{
  "contractName": "Slash",
  "abi": [
    {
      "anonymous": false,
      "inputs": [
        {
          "indexed": false,
          "internalType": "address[]",
          "name": "validators",
          "type": "address[]"
        },
        {
          "indexed": false,
          "internalType": "uint256[]",
          "name": "missedBlockCounters",
          "type": "uint256[]"
        },
        {
          "indexed": false,
          "internalType": "uint256",
          "name": "decreasedCount",
          "type": "uint256"
        }
      ],
      "name": "ValidatorDecreasedMissedBlockCounter",
      "type": "event"
    },
    {
      "anonymous": false,
      "inputs": [
        {
          "indexed": true,
          "internalType": "address",
          "name": "validator",
          "type": "address"
        }
      ],
      "name": "ValidatorMissedBlock",
      "type": "event"
    },
    {
      "inputs": [],
      "name": "BlockEpoch",
      "outputs": [
        {
          "internalType": "uint256",
          "name": "",
          "type": "uint256"
        }
      ],
      "stateMutability": "view",
      "type": "function"
    },
    {
      "inputs": [],
      "name": "SlashContractAddr",
      "outputs": [
        {
          "internalType": "address",
          "name": "",
          "type": "address"
        }
      ],
      "stateMutability": "view",
      "type": "function"
    },
    {
      "inputs": [],
      "name": "ValidatorContractAddr",
      "outputs": [
        {
          "internalType": "address",
          "name": "",
          "type": "address"
        }
      ],
      "stateMutability": "view",
      "type": "function"
    },
    {
      "inputs": [],
      "name": "decreaseRate",
      "outputs": [
        {
          "internalType": "uint256",
          "name": "",
          "type": "uint256"
        }
      ],
      "stateMutability": "view",
      "type": "function"
    },
    {
      "inputs": [],
      "name": "initialized",
      "outputs": [
        {
          "internalType": "bool",
          "name": "",
          "type": "bool"
        }
      ],
      "stateMutability": "view",
      "type": "function"
    },
    {
      "inputs": [],
      "name": "slashThreshold",
      "outputs": [
        {
          "internalType": "uint256",
          "name": "",
          "type": "uint256"
        }
      ],
      "stateMutability": "view",
      "type": "function"
    },
    {
      "inputs": [
        {
          "internalType": "uint256",
          "name": "",
          "type": "uint256"
        }
      ],
      "name": "slashValidators",
      "outputs": [
        {
          "internalType": "address",
          "name": "",
          "type": "address"
        }
      ],
      "stateMutability": "view",
      "type": "function"
    },
    {
      "inputs": [],
      "name": "initialize",
      "outputs": [],
      "stateMutability": "nonpayable",
      "type": "function"
    },
    {
      "inputs": [
        {
          "internalType": "address",
          "name": "validator",
          "type": "address"
        }
      ],
      "name": "slash",
      "outputs": [],
      "stateMutability": "nonpayable",
      "type": "function"
    },
    {
      "inputs": [],
      "name": "decreaseMissedBlocksCounter",
      "outputs": [],
      "stateMutability": "nonpayable",
      "type": "function"
    },
    {
      "inputs": [
        {
          "internalType": "address",
          "name": "validator",
          "type": "address"
        }
      ],
      "name": "clean",
      "outputs": [
        {
          "internalType": "bool",
          "name": "",
          "type": "bool"
        }
      ],
      "stateMutability": "nonpayable",
      "type": "function"
    },
    {
      "inputs": [],
      "name": "getSlashValidatorsLen",
      "outputs": [
        {
          "internalType": "uint256",
          "name": "",
          "type": "uint256"
        }
      ],
      "stateMutability": "view",
      "type": "function"
    },
    {
      "inputs": [
        {
          "internalType": "address",
          "name": "validator",
          "type": "address"
        }
      ],
      "name": "getSlashRecord",
      "outputs": [
        {
          "internalType": "uint256",
          "name": "",
          "type": "uint256"
        }
      ],
      "stateMutability": "view",
      "type": "function"
    }
  ],
  "bytecode": "0x608060405234801561001057600080fd5b50610dbf806100206000396000f3fe608060405234801561001057600080fd5b50600436106100cf5760003560e01c806367239a041161008c578063cda2db1b11610066578063cda2db1b1461019c578063e8a3298b146101b9578063ea29ba5f146101c1578063ee290632146101c9576100cf565b806367239a04146101665780638129fc1c1461016e578063c96be4cb14610176576100cf565b8063158ef93e146100d4578063169b2623146100f05780632897183d146101165780633a061bd3146101305780635df415d9146101545780635e81f1f81461015c575b600080fd5b6100dc6101ef565b604080519115158252519081900360200190f35b6100dc6004803603602081101561010657600080fd5b50356001600160a01b03166101f8565b61011e610444565b60408051918252519081900360200190f35b61013861044a565b604080516001600160a01b039092168252519081900360200190f35b61011e610450565b610164610456565b005b61013861097b565b610164610981565b6101646004803603602081101561018c57600080fd5b50356001600160a01b0316610a09565b610138600480360360208110156101b257600080fd5b5035610ce2565b61011e610d09565b61011e610d0e565b61011e600480360360208110156101df57600080fd5b50356001600160a01b0316610d14565b60005460ff1681565b6000805460ff1661024c576040805162461bcd60e51b81526020600482015260196024820152781d1a194818dbdb9d1c9858dd081b9bdd081a5b9a5d081e595d603a1b604482015290519081900360640190fd5b336110001461028c5760405162461bcd60e51b815260040180806020018281038252602d815260200180610d30602d913960400191505060405180910390fd5b6001600160a01b03821660009081526004602052604090206003015460ff1680156102ce57506001600160a01b03821660009081526004602052604090205415155b156102ed576001600160a01b0382166000908152600460205260408120555b6001600160a01b03821660009081526004602052604090206003015460ff168015610319575060055415155b1561043c576005546001600160a01b038316600090815260046020526040902060010154600019909101146103e3576005805460009190600019810190811061035e57fe5b60009182526020808320909101546001600160a01b038681168452600490925260409092206001015460058054929093169350839291811061039c57fe5b600091825260208083209190910180546001600160a01b0319166001600160a01b039485161790558583168252600490526040808220600190810154949093168252902001555b60058054806103ee57fe5b60008281526020808220830160001990810180546001600160a01b03191690559092019092556001600160a01b038416825260049052604081206001810191909155600301805460ff191690555b506001919050565b60025481565b61100081565b60015481565b3341146104945760405162461bcd60e51b815260040180806020018281038252602d815260200180610d5d602d913960400191505060405180910390fd5b60075443116104de576040805162461bcd60e51b8152602060048201526011602482015270105b1c9958591e48191958dc99585cd959607a1b604482015290519081900360640190fd5b60005460ff16610531576040805162461bcd60e51b81526020600482015260196024820152781d1a194818dbdb9d1c9858dd081b9bdd081a5b9a5d081e595d603a1b604482015290519081900360640190fd5b60c843061561057a576040805162461bcd60e51b815260206004820152601060248201526f426c6f636b2065706f6368206f6e6c7960801b604482015290519081900360640190fd5b60055461058657610975565b60055460609067ffffffffffffffff811180156105a257600080fd5b506040519080825280602002602001820160405280156105cc578160200160208202803683370190505b5060055490915060609067ffffffffffffffff811180156105ec57600080fd5b50604051908082528060200260200182016040528015610616578160200160208202803683370190505b5090506000805b6005548110156108a657600460006005838154811061063857fe5b60009182526020808320909101546001600160a01b0316835282019290925260400190206003015460ff1680156106a6575043600460006005848154811061067c57fe5b60009182526020808320909101546001600160a01b03168352820192909252604001902060020154105b1561089e574360046000600584815481106106bd57fe5b60009182526020808320909101546001600160a01b03168352820192909252604001902060029081019190915554600154816106f557fe5b04600460006005848154811061070757fe5b60009182526020808320909101546001600160a01b0316835282019290925260400190205411156107b8576002546001548161073f57fe5b04600460006005848154811061075157fe5b60009182526020808320909101546001600160a01b0316835282019290925260400181205460058054939091039260049291908590811061078e57fe5b60009182526020808320909101546001600160a01b031683528201929092526040019020556107f1565b600060046000600584815481106107cb57fe5b60009182526020808320909101546001600160a01b031683528201929092526040019020555b600581815481106107fe57fe5b9060005260206000200160009054906101000a90046001600160a01b031684838151811061082857fe5b60200260200101906001600160a01b031690816001600160a01b031681525050600460006005838154811061085957fe5b60009182526020808320909101546001600160a01b03168352820192909252604001902054835184908490811061088c57fe5b60209081029190910101526001909101905b60010161061d565b508015610971577f3e4ebe048d2e0b45269f37ccbfa8ef90af31aea2941cbc91615c150bbe2713f7838383604051808060200180602001848152602001838103835286818151815260200191508051906020019060200280838360005b8381101561091b578181015183820152602001610903565b50505050905001838103825285818151815260200191508051906020019060200280838360005b8381101561095a578181015183820152602001610942565b505050509050019550505050505060405180910390a15b5050505b43600755565b61100181565b60005460ff16156109d9576040805162461bcd60e51b815260206004820181905260248201527f74686520636f6e747261637420616c726561647920696e697469616c697a6564604482015290519081900360640190fd5b600380546001600160a01b031916611000179055603060018181556002919091556000805460ff19169091179055565b334114610a475760405162461bcd60e51b815260040180806020018281038252602d815260200180610d5d602d913960400191505060405180910390fd5b60005460ff16610a9a576040805162461bcd60e51b81526020600482015260196024820152781d1a194818dbdb9d1c9858dd081b9bdd081a5b9a5d081e595d603a1b604482015290519081900360640190fd5b6006544311610ae2576040805162461bcd60e51b815260206004820152600f60248201526e105b1c9958591e481cdb185cda1959608a1b604482015290519081900360640190fd5b60035460408051631c8b8a3d60e01b81526001600160a01b03848116600483015291519190921691631c8b8a3d916024808301926020929190829003018186803b158015610b2f57600080fd5b505afa158015610b43573d6000803e3d6000fd5b505050506040513d6020811015610b5957600080fd5b5051610b6457610cdb565b6001600160a01b03811660009081526004602052604090206003015460ff16610bf557600580546001600160a01b038316600081815260046020526040812060018082018590558085019095557f036b6384b5eca791c62761152d0c79bb0604c104a5fb6f4eb0703f3154bb3db090930180546001600160a01b0319168317905552600301805460ff191690911790555b6001600160a01b03811660009081526004602052604090208054600190810191829055549081610c2157fe5b06610ca65760035460408051632388fac360e11b81526001600160a01b03848116600483015291519190921691634711f58691602480830192600092919082900301818387803b158015610c7457600080fd5b505af1158015610c88573d6000803e3d6000fd5b5050506001600160a01b038216600090815260046020526040812055505b6040516001600160a01b038216907f011400136be37d787a732cebb128bffead28f399b112ed259b52ad591233fa5390600090a25b5043600655565b60058181548110610cef57fe5b6000918252602090912001546001600160a01b0316905081565b60c881565b60055490565b6001600160a01b03166000908152600460205260409020549056fe746865206d6573736167652073656e646572206d7573742062652076616c696461746f7220636f6e7472616374746865206d6573736167652073656e646572206d7573742062652074686520626c6f636b2070726f6475636572a2646970667358221220c8e725d20929f84233545cd13ea9a0472a1e1185ece01c89f11ac099ed46425c64736f6c634300060c0033",
  "immutableReferences": {},
  "source": "// SPDX-License-Identifier: GPL\npragma solidity 0.6.12;\n\nimport \"./System.sol\";\nimport \"./Validators.sol\";\n\ncontract Slash is System {\n    uint256 public slashThreshold;\n    uint256 public decreaseRate;\n\n    struct SlashRecord {\n        uint256 missedBlocksCounter;\n        uint256 index;\n        uint256 decreasePrevNumber;\n        bool exist;\n    }\n\n    Validators validatorContract;\n\n    mapping(address => SlashRecord) slashRecords;\n    address[] public slashValidators;\n\n    uint256 slashPrevNumber;\n    uint256 decreasePrevNumber;\n\n    event ValidatorMissedBlock(address indexed validator);\n    event ValidatorDecreasedMissedBlockCounter(address []validators, uint256 []missedBlockCounters, uint256 decreasedCount);\n\n    modifier onlyNotSlashed() {\n        require(block.number > slashPrevNumber, \"Already slashed\");\n        _;\n        slashPrevNumber = block.number;\n    }\n\n    modifier onlyNotDecreased() {\n        require(block.number > decreasePrevNumber, \"Already decreased\");\n        _;\n        decreasePrevNumber = block.number;\n    }\n\n    function initialize() external onlyNotInitialized {\n        validatorContract = Validators(ValidatorContractAddr);\n        slashThreshold = 48;\n        decreaseRate = 48;\n        initialized = true;\n    }\n\n    function slash(address validator)\n        external\n        onlyCoinbase\n        onlyInitialized\n        onlyNotSlashed\n    {\n        if (!validatorContract.isValidatorActivated(validator)) {\n            return;\n        }\n\n        if (!slashRecords[validator].exist) {\n            slashRecords[validator].index = slashValidators.length;\n            slashValidators.push(validator);\n            slashRecords[validator].exist = true;\n        }\n        slashRecords[validator].missedBlocksCounter++;\n\n        if (slashRecords[validator].missedBlocksCounter % slashThreshold == 0) {\n            validatorContract.slashValidator(validator);\n            slashRecords[validator].missedBlocksCounter = 0;\n        }\n        emit ValidatorMissedBlock(validator);\n    }\n\n    function decreaseMissedBlocksCounter()\n        external\n        onlyCoinbase\n        onlyNotDecreased\n        onlyInitialized\n        onlyBlockEpoch()\n    {\n        if (slashValidators.length == 0) {\n            return;\n        }\n\n        address[] memory decreasedValidators = new address[](slashValidators.length);\n        uint256[] memory missedBlockCounters = new uint256[](slashValidators.length);\n        uint256 decreasedCount = 0;\n        for (uint256 i = 0; i < slashValidators.length; i++) {\n            if (slashRecords[slashValidators[i]].exist && slashRecords[slashValidators[i]].decreasePrevNumber < block.number) {\n                slashRecords[slashValidators[i]].decreasePrevNumber = block.number;\n                if (slashRecords[slashValidators[i]].missedBlocksCounter > slashThreshold / decreaseRate) {\n                    slashRecords[slashValidators[i]].missedBlocksCounter =\n                        slashRecords[slashValidators[i]].missedBlocksCounter -\n                        slashThreshold /\n                        decreaseRate;\n                } else {\n                    slashRecords[slashValidators[i]].missedBlocksCounter = 0;\n                }\n                decreasedValidators[decreasedCount] = slashValidators[i];\n                missedBlockCounters[decreasedCount] = slashRecords[slashValidators[i]].missedBlocksCounter;\n                decreasedCount++;\n            }\n        }\n        if (decreasedCount > 0) {\n            emit ValidatorDecreasedMissedBlockCounter(decreasedValidators, missedBlockCounters, decreasedCount);\n        }\n    }\n\n    // clean validator's slash record if one unjailed\n    function clean(address validator)\n        public\n        onlyInitialized\n        onlyValidatorsContract\n        returns (bool)\n    {\n        if (slashRecords[validator].exist && slashRecords[validator].missedBlocksCounter != 0) {\n            slashRecords[validator].missedBlocksCounter = 0;\n        }\n\n        // remove it out of array if exist\n        if (slashRecords[validator].exist && slashValidators.length > 0) {\n            if (slashRecords[validator].index != slashValidators.length - 1) {\n                address lastValidator = slashValidators[slashValidators.length - 1];\n                slashValidators[slashRecords[validator].index] = lastValidator;\n\n                slashRecords[lastValidator].index = slashRecords[validator].index;\n            }\n            slashValidators.pop();\n            slashRecords[validator].index = 0;\n            slashRecords[validator].exist = false;\n        }\n\n        return true;\n    }\n\n    function getSlashValidatorsLen() public view returns (uint256) {\n        return slashValidators.length;\n    }\n\n    function getSlashRecord(address validator) public view returns (uint256) {\n        return slashRecords[validator].missedBlocksCounter;\n    }\n}\n",
  "sourcePath": "/Users/vino/projects/coinexstartchain/csc_genesis_contract/contracts/Slash.sol",
  "compiler": {
    "name": "solc",
    "version": "0.6.12+commit.27d51765.Emscripten.clang"
  },
  "schemaVersion": "3.3.2",
  "updatedAt": "2021-06-17T12:37:54.618Z",
  "devdoc": {
    "kind": "dev",
    "methods": {},
    "version": 1
  },
  "userdoc": {
    "kind": "user",
    "methods": {},
    "version": 1
  }
}