{
  "contractName": "Slash",
  "abi": [
    {
      "anonymous": false,
      "inputs": [
        {
          "indexed": false,
          "internalType": "address[]",
          "name": "validators",
          "type": "address[]"
        },
        {
          "indexed": false,
          "internalType": "uint256[]",
          "name": "missedBlockCounters",
          "type": "uint256[]"
        },
        {
          "indexed": false,
          "internalType": "uint256",
          "name": "",
          "type": "uint256"
        }
      ],
      "name": "ValidatorDecreasedMissedBlockCounter",
      "type": "event"
    },
    {
      "anonymous": false,
      "inputs": [
        {
          "indexed": true,
          "internalType": "address",
          "name": "validator",
          "type": "address"
        }
      ],
      "name": "ValidatorSlash",
      "type": "event"
    },
    {
      "inputs": [],
      "name": "SlashContractAddr",
      "outputs": [
        {
          "internalType": "address",
          "name": "",
          "type": "address"
        }
      ],
      "stateMutability": "view",
      "type": "function"
    },
    {
      "inputs": [],
      "name": "ValidatorContractAddr",
      "outputs": [
        {
          "internalType": "address",
          "name": "",
          "type": "address"
        }
      ],
      "stateMutability": "view",
      "type": "function"
    },
    {
      "inputs": [],
      "name": "decreaseRate",
      "outputs": [
        {
          "internalType": "uint256",
          "name": "",
          "type": "uint256"
        }
      ],
      "stateMutability": "view",
      "type": "function"
    },
    {
      "inputs": [],
      "name": "initialized",
      "outputs": [
        {
          "internalType": "bool",
          "name": "",
          "type": "bool"
        }
      ],
      "stateMutability": "view",
      "type": "function"
    },
    {
      "inputs": [],
      "name": "slashThreshold",
      "outputs": [
        {
          "internalType": "uint256",
          "name": "",
          "type": "uint256"
        }
      ],
      "stateMutability": "view",
      "type": "function"
    },
    {
      "inputs": [
        {
          "internalType": "uint256",
          "name": "",
          "type": "uint256"
        }
      ],
      "name": "slashValidators",
      "outputs": [
        {
          "internalType": "address",
          "name": "",
          "type": "address"
        }
      ],
      "stateMutability": "view",
      "type": "function"
    },
    {
      "inputs": [],
      "name": "initialize",
      "outputs": [],
      "stateMutability": "nonpayable",
      "type": "function"
    },
    {
      "inputs": [
        {
          "internalType": "address",
          "name": "validator",
          "type": "address"
        }
      ],
      "name": "slash",
      "outputs": [],
      "stateMutability": "nonpayable",
      "type": "function"
    },
    {
      "inputs": [
        {
          "internalType": "address[]",
          "name": "validators",
          "type": "address[]"
        },
        {
          "internalType": "uint256",
          "name": "epoch",
          "type": "uint256"
        }
      ],
      "name": "decreaseMissedBlocksCounter",
      "outputs": [],
      "stateMutability": "nonpayable",
      "type": "function"
    },
    {
      "inputs": [
        {
          "internalType": "address",
          "name": "validator",
          "type": "address"
        }
      ],
      "name": "clean",
      "outputs": [
        {
          "internalType": "bool",
          "name": "",
          "type": "bool"
        }
      ],
      "stateMutability": "nonpayable",
      "type": "function"
    },
    {
      "inputs": [],
      "name": "getSlashValidatorsLen",
      "outputs": [
        {
          "internalType": "uint256",
          "name": "",
          "type": "uint256"
        }
      ],
      "stateMutability": "view",
      "type": "function"
    },
    {
      "inputs": [
        {
          "internalType": "address",
          "name": "validator",
          "type": "address"
        }
      ],
      "name": "getSlashRecord",
      "outputs": [
        {
          "internalType": "uint256",
          "name": "",
          "type": "uint256"
        }
      ],
      "stateMutability": "view",
      "type": "function"
    }
  ],
  "bytecode": "0x608060405234801561001057600080fd5b50610d09806100206000396000f3fe608060405234801561001057600080fd5b50600436106100b45760003560e01c806368638f231161007157806368638f23146101495780638129fc1c146101bb578063c96be4cb146101c3578063cda2db1b146101e9578063ea29ba5f14610206578063ee2906321461020e576100b4565b8063158ef93e146100b9578063169b2623146100d55780632897183d146100fb5780633a061bd3146101155780635df415d91461013957806367239a0414610141575b600080fd5b6100c1610234565b604080519115158252519081900360200190f35b6100c1600480360360208110156100eb57600080fd5b50356001600160a01b031661023d565b610103610473565b60408051918252519081900360200190f35b61011d610479565b604080516001600160a01b039092168252519081900360200190f35b61010361047f565b61011d610485565b6101b96004803603604081101561015f57600080fd5b81019060208101813564010000000081111561017a57600080fd5b82018360208201111561018c57600080fd5b803590602001918460208302840111640100000000831117156101ae57600080fd5b91935091503561048b565b005b6101b9610965565b6101b9600480360360208110156101d957600080fd5b50356001600160a01b03166109ec565b61011d600480360360208110156101ff57600080fd5b5035610c31565b610103610c58565b6101036004803603602081101561022457600080fd5b50356001600160a01b0316610c5e565b60005460ff1681565b6000805460ff16610291576040805162461bcd60e51b81526020600482015260196024820152781d1a194818dbdb9d1c9858dd081b9bdd081a5b9a5d081e595d603a1b604482015290519081900360640190fd5b33611000146102d15760405162461bcd60e51b815260040180806020018281038252602d815260200180610c7a602d913960400191505060405180910390fd5b6001600160a01b03821660009081526004602052604090206002015460ff16801561031357506001600160a01b03821660009081526004602052604090205415155b15610332576001600160a01b0382166000908152600460205260408120555b6001600160a01b03821660009081526004602052604090206002015460ff16801561035e575060055415155b1561046b576005546001600160a01b0383166000908152600460205260409020600101546000199091011461041257600580546000919060001981019081106103a357fe5b60009182526020808320909101546001600160a01b0316808352600490915260409091206001015460058054929350839290919081106103df57fe5b600091825260208083209190910180546001600160a01b0319166001600160a01b03948516179055929091169052600490525b600580548061041d57fe5b60008281526020808220830160001990810180546001600160a01b03191690559092019092556001600160a01b038416825260049052604081206001810191909155600201805460ff191690555b506001919050565b60025481565b61100081565b60015481565b61100181565b3341146104c95760405162461bcd60e51b815260040180806020018281038252602d815260200180610ca7602d913960400191505060405180910390fd5b4360009081526007602052604090205460ff1615610522576040805162461bcd60e51b8152602060048201526011602482015270105b1c9958591e48191958dc99585cd959607a1b604482015290519081900360640190fd5b60005460ff16610575576040805162461bcd60e51b81526020600482015260196024820152781d1a194818dbdb9d1c9858dd081b9bdd081a5b9a5d081e595d603a1b604482015290519081900360640190fd5b8080438161057f57fe5b06156105c5576040805162461bcd60e51b815260206004820152601060248201526f426c6f636b2065706f6368206f6e6c7960801b604482015290519081900360640190fd5b436000908152600760205260409020805460ff1916600117905560055415806105ec575082155b156105f65761095f565b60608367ffffffffffffffff8111801561060f57600080fd5b50604051908082528060200260200182016040528015610639578160200160208202803683370190505b50905060608467ffffffffffffffff8111801561065557600080fd5b5060405190808252806020026020018201604052801561067f578160200160208202803683370190505b5090506000805b86811015610897576004600089898481811061069e57fe5b602090810292909201356001600160a01b03168352508101919091526040016000206002015460ff161561088f57600254600154816106d957fe5b04600460008a8a858181106106ea57fe5b905060200201356001600160a01b03166001600160a01b03166001600160a01b031681526020019081526020016000206000015411156107af576002546001548161073157fe5b04600460008a8a8581811061074257fe5b905060200201356001600160a01b03166001600160a01b03166001600160a01b031681526020019081526020016000206000015403600460008a8a8581811061078757fe5b602090810292909201356001600160a01b0316835250810191909152604001600020556107e5565b6000600460008a8a858181106107c157fe5b602090810292909201356001600160a01b0316835250810191909152604001600020555b8787828181106107f157fe5b905060200201356001600160a01b031684838151811061080d57fe5b60200260200101906001600160a01b031690816001600160a01b0316815250506004600089898481811061083d57fe5b905060200201356001600160a01b03166001600160a01b03166001600160a01b031681526020019081526020016000206000015483838151811061087d57fe5b60209081029190910101526001909101905b600101610686565b507f3e4ebe048d2e0b45269f37ccbfa8ef90af31aea2941cbc91615c150bbe2713f7838383604051808060200180602001848152602001838103835286818151815260200191508051906020019060200280838360005b838110156109065781810151838201526020016108ee565b50505050905001838103825285818151815260200191508051906020019060200280838360005b8381101561094557818101518382015260200161092d565b505050509050019550505050505060405180910390a15050505b50505050565b60005460ff16156109bd576040805162461bcd60e51b815260206004820181905260248201527f74686520636f6e747261637420616c726561647920696e697469616c697a6564604482015290519081900360640190fd5b600380546001600160a01b0319166110001790556030600190815560186002556000805460ff19169091179055565b334114610a2a5760405162461bcd60e51b815260040180806020018281038252602d815260200180610ca7602d913960400191505060405180910390fd5b60005460ff16610a7d576040805162461bcd60e51b81526020600482015260196024820152781d1a194818dbdb9d1c9858dd081b9bdd081a5b9a5d081e595d603a1b604482015290519081900360640190fd5b4360009081526006602052604090205460ff1615610ad4576040805162461bcd60e51b815260206004820152600f60248201526e105b1c9958591e481cdb185cda1959608a1b604482015290519081900360640190fd5b436000908152600660209081526040808320805460ff191660011790556001600160a01b0384168352600490915290206002015460ff16610b7d57600580546001600160a01b038316600081815260046020526040812060018082018590558085019095557f036b6384b5eca791c62761152d0c79bb0604c104a5fb6f4eb0703f3154bb3db090930180546001600160a01b0319168317905552600201805460ff191690911790555b6001600160a01b03811660009081526004602052604090208054600190810191829055549081610ba957fe5b06610c2e5760035460408051632388fac360e11b81526001600160a01b03848116600483015291519190921691634711f58691602480830192600092919082900301818387803b158015610bfc57600080fd5b505af1158015610c10573d6000803e3d6000fd5b5050506001600160a01b038216600090815260046020526040812055505b50565b60058181548110610c3e57fe5b6000918252602090912001546001600160a01b0316905081565b60055490565b6001600160a01b03166000908152600460205260409020549056fe746865206d6573736167652073656e646572206d7573742062652076616c696461746f7220636f6e7472616374746865206d6573736167652073656e646572206d7573742062652074686520626c6f636b2070726f6475636572a264697066735822122078e9dfbaae2c4dfe0cc2062b481c88d32d51560e842e506ac16305abdccf212964736f6c634300060c0033",
  "immutableReferences": {},
  "source": "// SPDX-License-Identifier: GPL\npragma solidity 0.6.12;\n\nimport \"./System.sol\";\nimport \"./ValidatorSet.sol\";\n\ncontract Slash is System {\n    uint256 public slashThreshold;\n    uint256 public decreaseRate;\n\n    struct SlashRecord {\n        uint256 missedBlocksCounter;\n        uint256 index;\n        bool exist;\n    }\n\n    ValidatorSet validatorContract;\n\n    mapping(address => SlashRecord) slashRecords;\n    address[] public slashValidators;\n\n    mapping(uint256 => bool) slashed;\n    mapping(uint256 => bool) decreased;\n\n    event ValidatorSlash(address indexed validator);\n    event ValidatorDecreasedMissedBlockCounter(address []validators, uint256 []missedBlockCounters, uint256);\n\n    modifier onlyNotSlashed() {\n        require(!slashed[block.number], \"Already slashed\");\n        _;\n    }\n\n    modifier onlyNotDecreased() {\n        require(!decreased[block.number], \"Already decreased\");\n        _;\n    }\n\n    function initialize() external onlyNotInitialized {\n        validatorContract = ValidatorSet(ValidatorContractAddr);\n        slashThreshold = 48;\n        decreaseRate = 24;\n        initialized = true;\n    }\n\n    function slash(address validator)\n        external\n        onlyCoinbase\n        onlyInitialized\n        onlyNotSlashed\n    {\n        slashed[block.number] = true;\n        if (!slashRecords[validator].exist) {\n            slashRecords[validator].index = slashValidators.length;\n            slashValidators.push(validator);\n            slashRecords[validator].exist = true;\n        }\n        slashRecords[validator].missedBlocksCounter++;\n\n        if (slashRecords[validator].missedBlocksCounter % slashThreshold == 0) {\n            validatorContract.slashValidator(validator);\n            slashRecords[validator].missedBlocksCounter = 0;\n        }\n    }\n\n    function decreaseMissedBlocksCounter(address[] calldata validators, uint256 epoch)\n        external\n        onlyCoinbase\n        onlyNotDecreased\n        onlyInitialized\n        onlyBlockEpoch(epoch)\n    {\n        decreased[block.number] = true;\n        if (slashValidators.length == 0 || validators.length == 0) {\n            return;\n        }\n\n        address[] memory decreasedValidators = new address[](validators.length);\n        uint256[] memory missedBlockCounters = new uint256[](validators.length);\n        uint256 decreasedCount = 0;\n        for (uint256 i = 0; i < validators.length; i++) {\n            if (slashRecords[validators[i]].exist) {\n                if (slashRecords[validators[i]].missedBlocksCounter > slashThreshold / decreaseRate) {\n                    slashRecords[validators[i]].missedBlocksCounter =\n                        slashRecords[validators[i]].missedBlocksCounter -\n                        slashThreshold /\n                        decreaseRate;\n                } else {\n                    slashRecords[validators[i]].missedBlocksCounter = 0;\n                }\n                decreasedValidators[decreasedCount] = validators[i];\n                missedBlockCounters[decreasedCount] = slashRecords[validators[i]].missedBlocksCounter;\n                decreasedCount++;\n            }\n        }\n        emit ValidatorDecreasedMissedBlockCounter(decreasedValidators, missedBlockCounters, decreasedCount);\n    }\n\n    // clean validator's slash record if one unjailed\n    function clean(address validator)\n        public\n        onlyInitialized\n        onlyValidatorsContract\n        returns (bool)\n    {\n        if (slashRecords[validator].exist && slashRecords[validator].missedBlocksCounter != 0) {\n            slashRecords[validator].missedBlocksCounter = 0;\n        }\n\n        // remove it out of array if exist\n        if (slashRecords[validator].exist && slashValidators.length > 0) {\n            if (slashRecords[validator].index != slashValidators.length - 1) {\n                address val = slashValidators[slashValidators.length - 1];\n                slashValidators[slashRecords[val].index] = val;\n\n                slashRecords[val].index = slashRecords[val].index;\n            }\n            slashValidators.pop();\n            slashRecords[validator].index = 0;\n            slashRecords[validator].exist = false;\n        }\n\n        return true;\n    }\n\n    function getSlashValidatorsLen() public view returns (uint256) {\n        return slashValidators.length;\n    }\n\n    function getSlashRecord(address validator) public view returns (uint256) {\n        return slashRecords[validator].missedBlocksCounter;\n    }\n}\n",
  "sourcePath": "/Users/vino/projects/coinexstartchain/csc_genesis_contract/contracts/Slash.sol",
  "compiler": {
    "name": "solc",
    "version": "0.6.12+commit.27d51765.Emscripten.clang"
  },
  "schemaVersion": "3.3.2",
  "updatedAt": "2021-03-16T06:06:33.609Z",
  "devdoc": {
    "kind": "dev",
    "methods": {},
    "version": 1
  },
  "userdoc": {
    "kind": "user",
    "methods": {},
    "version": 1
  }
}