{
  "contractName": "System",
  "abi": [
    {
      "inputs": [],
      "name": "BlockEpoch",
      "outputs": [
        {
          "internalType": "uint256",
          "name": "",
          "type": "uint256"
        }
      ],
      "stateMutability": "view",
      "type": "function"
    },
    {
      "inputs": [],
      "name": "SlashContractAddr",
      "outputs": [
        {
          "internalType": "address",
          "name": "",
          "type": "address"
        }
      ],
      "stateMutability": "view",
      "type": "function"
    },
    {
      "inputs": [],
      "name": "ValidatorContractAddr",
      "outputs": [
        {
          "internalType": "address",
          "name": "",
          "type": "address"
        }
      ],
      "stateMutability": "view",
      "type": "function"
    },
    {
      "inputs": [],
      "name": "initialized",
      "outputs": [
        {
          "internalType": "bool",
          "name": "",
          "type": "bool"
        }
      ],
      "stateMutability": "view",
      "type": "function"
    }
  ],
  "bytecode": "0x608060405234801561001057600080fd5b5060f58061001f6000396000f3fe6080604052348015600f57600080fd5b506004361060465760003560e01c8063158ef93e14604b5780633a061bd314606557806367239a04146087578063e8a3298b14608d575b600080fd5b605160a5565b604080519115158252519081900360200190f35b606b60ae565b604080516001600160a01b039092168252519081900360200190f35b606b60b4565b609360ba565b60408051918252519081900360200190f35b60005460ff1681565b61100081565b61100181565b60c88156fea26469706673582212206dfeecaf8ea7ef9d778a552c7941ee5b19c228a5116dd97f48f712e8a123f90b64736f6c634300060c0033",
  "immutableReferences": {},
  "source": "// SPDX-License-Identifier: GPL\npragma solidity 0.6.12;\n\ncontract System {\n    bool public initialized;\n\n    address public constant ValidatorContractAddr = 0x0000000000000000000000000000000000001000;\n    address public constant SlashContractAddr = 0x0000000000000000000000000000000000001001;\n    uint256 public constant BlockEpoch = 200;\n\n    modifier onlyCoinbase() {\n        require(msg.sender == block.coinbase, \"the message sender must be the block producer\");\n        _;\n    }\n\n    modifier onlyNotInitialized() {\n        require(!initialized, \"the contract already initialized\");\n        _;\n    }\n\n    modifier onlyInitialized() {\n        require(initialized, \"the contract not init yet\");\n        _;\n    }\n\n    modifier onlySlashContract() {\n        require(msg.sender == SlashContractAddr, \"the message sender must be slash contract\");\n        _;\n    }\n\n    modifier onlyValidatorsContract() {\n        require(msg.sender == ValidatorContractAddr, \"the message sender must be validator contract\");\n        _;\n    }\n\n    modifier onlyBlockEpoch() {\n        require(block.number % BlockEpoch == 0, \"Block epoch only\");\n        _;\n    }\n}\n",
  "sourcePath": "/Users/vino/projects/coinexstartchain/csc_genesis_contract/contracts/System.sol",
  "compiler": {
    "name": "solc",
    "version": "0.6.12+commit.27d51765.Emscripten.clang"
  },
  "schemaVersion": "3.3.2",
  "updatedAt": "2021-06-17T12:37:54.624Z",
  "devdoc": {
    "kind": "dev",
    "methods": {},
    "version": 1
  },
  "userdoc": {
    "kind": "user",
    "methods": {},
    "version": 1
  }
}