{
  "contractName": "System",
  "abi": [
    {
      "inputs": [],
      "name": "SlashContractAddr",
      "outputs": [
        {
          "internalType": "address",
          "name": "",
          "type": "address"
        }
      ],
      "stateMutability": "view",
      "type": "function"
    },
    {
      "inputs": [],
      "name": "ValidatorContractAddr",
      "outputs": [
        {
          "internalType": "address",
          "name": "",
          "type": "address"
        }
      ],
      "stateMutability": "view",
      "type": "function"
    },
    {
      "inputs": [],
      "name": "initialized",
      "outputs": [
        {
          "internalType": "bool",
          "name": "",
          "type": "bool"
        }
      ],
      "stateMutability": "view",
      "type": "function"
    }
  ],
  "bytecode": "0x608060405234801561001057600080fd5b5060ce8061001f6000396000f3fe6080604052348015600f57600080fd5b5060043610603c5760003560e01c8063158ef93e1460415780633a061bd314605b57806367239a0414607d575b600080fd5b60476083565b604080519115158252519081900360200190f35b6061608c565b604080516001600160a01b039092168252519081900360200190f35b60616092565b60005460ff1681565b61100081565b6110018156fea2646970667358221220507f57dd6546898ea35019be5458b3448afeed9835177efbeb9b181eaa5847e764736f6c634300060c0033",
  "immutableReferences": {},
  "source": "// SPDX-License-Identifier: GPL\npragma solidity 0.6.12;\n\n\ncontract System {\n\n  bool public initialized;\n\n  address public constant ValidatorContractAddr = 0x0000000000000000000000000000000000001000;\n  address public constant SlashContractAddr = 0x0000000000000000000000000000000000001001;\n\n  modifier onlyCoinbase() {\n    require(msg.sender == block.coinbase, \"the message sender must be the block producer\");\n    _;\n  }\n\n  modifier onlyNotInitialized() {\n        require(!initialized, \"the contract already initialized\");\n        _;\n    }\n\n  modifier onlyInitialized() {\n    require(initialized, \"the contract not init yet\");\n    _;\n  }\n\n  modifier onlySlashContract() {\n    require(msg.sender == SlashContractAddr, \"the message sender must be slash contract\");\n    _;\n  }\n\n  modifier onlyValidatorsContract() {\n    require(msg.sender == ValidatorContractAddr, \"the message sender must be validator contract\");\n    _;\n  }\n\n  modifier onlyBlockEpoch(uint256 epoch) {\n    require(block.number % epoch == 0, \"Block epoch only\");\n    _;\n}\n}\n",
  "sourcePath": "/Users/vino/projects/coinexstartchain/csc_genesis_contract/contracts/System.sol",
  "compiler": {
    "name": "solc",
    "version": "0.6.12+commit.27d51765.Emscripten.clang"
  },
  "schemaVersion": "3.3.2",
  "updatedAt": "2021-03-16T01:35:03.382Z",
  "devdoc": {
    "kind": "dev",
    "methods": {},
    "version": 1
  },
  "userdoc": {
    "kind": "user",
    "methods": {},
    "version": 1
  }
}