{
  "contractName": "Validators",
  "abi": [
    {
      "anonymous": false,
      "inputs": [
        {
          "indexed": true,
          "internalType": "address",
          "name": "validator",
          "type": "address"
        }
      ],
      "name": "AddToValidatorCandidate",
      "type": "event"
    },
    {
      "anonymous": false,
      "inputs": [
        {
          "indexed": true,
          "internalType": "address",
          "name": "valdiator",
          "type": "address"
        }
      ],
      "name": "RemoveFromValidatorCandidate",
      "type": "event"
    },
    {
      "anonymous": false,
      "inputs": [
        {
          "indexed": false,
          "internalType": "address[]",
          "name": "validators",
          "type": "address[]"
        },
        {
          "indexed": false,
          "internalType": "uint256[]",
          "name": "rewards",
          "type": "uint256[]"
        },
        {
          "indexed": false,
          "internalType": "uint256",
          "name": "rewardCount",
          "type": "uint256"
        }
      ],
      "name": "RewardDistributed",
      "type": "event"
    },
    {
      "anonymous": false,
      "inputs": [
        {
          "indexed": true,
          "internalType": "address",
          "name": "staker",
          "type": "address"
        },
        {
          "indexed": true,
          "internalType": "address",
          "name": "validator",
          "type": "address"
        },
        {
          "indexed": false,
          "internalType": "uint256",
          "name": "amount",
          "type": "uint256"
        }
      ],
      "name": "Staking",
      "type": "event"
    },
    {
      "anonymous": false,
      "inputs": [
        {
          "indexed": true,
          "internalType": "address",
          "name": "staker",
          "type": "address"
        },
        {
          "indexed": true,
          "internalType": "address",
          "name": "validator",
          "type": "address"
        },
        {
          "indexed": false,
          "internalType": "uint256",
          "name": "amount",
          "type": "uint256"
        },
        {
          "indexed": false,
          "internalType": "uint256",
          "name": "unLockHeight",
          "type": "uint256"
        }
      ],
      "name": "Unstake",
      "type": "event"
    },
    {
      "anonymous": false,
      "inputs": [
        {
          "indexed": true,
          "internalType": "address",
          "name": "validator",
          "type": "address"
        },
        {
          "indexed": true,
          "internalType": "address",
          "name": "rewardAddr",
          "type": "address"
        }
      ],
      "name": "ValidatorCreated",
      "type": "event"
    },
    {
      "anonymous": false,
      "inputs": [
        {
          "indexed": false,
          "internalType": "address[]",
          "name": "validators",
          "type": "address[]"
        }
      ],
      "name": "ValidatorSetUpdated",
      "type": "event"
    },
    {
      "anonymous": false,
      "inputs": [
        {
          "indexed": true,
          "internalType": "address",
          "name": "validator",
          "type": "address"
        },
        {
          "indexed": false,
          "internalType": "uint256",
          "name": "amount",
          "type": "uint256"
        }
      ],
      "name": "ValidatorSlash",
      "type": "event"
    },
    {
      "anonymous": false,
      "inputs": [
        {
          "indexed": true,
          "internalType": "address",
          "name": "validator",
          "type": "address"
        }
      ],
      "name": "ValidatorUnjailed",
      "type": "event"
    },
    {
      "anonymous": false,
      "inputs": [
        {
          "indexed": true,
          "internalType": "address",
          "name": "validator",
          "type": "address"
        },
        {
          "indexed": true,
          "internalType": "address",
          "name": "rewardAddr",
          "type": "address"
        }
      ],
      "name": "ValidatorUpdated",
      "type": "event"
    },
    {
      "anonymous": false,
      "inputs": [
        {
          "indexed": true,
          "internalType": "address",
          "name": "validator",
          "type": "address"
        },
        {
          "indexed": true,
          "internalType": "address",
          "name": "rewardAddress",
          "type": "address"
        },
        {
          "indexed": false,
          "internalType": "uint256",
          "name": "amount",
          "type": "uint256"
        },
        {
          "indexed": false,
          "internalType": "uint256",
          "name": "nextWithdrawBlock",
          "type": "uint256"
        }
      ],
      "name": "WithdrawRewards",
      "type": "event"
    },
    {
      "anonymous": false,
      "inputs": [
        {
          "indexed": true,
          "internalType": "address",
          "name": "staker",
          "type": "address"
        },
        {
          "indexed": true,
          "internalType": "address",
          "name": "validator",
          "type": "address"
        },
        {
          "indexed": false,
          "internalType": "uint256",
          "name": "amount",
          "type": "uint256"
        }
      ],
      "name": "WithdrawStaking",
      "type": "event"
    },
    {
      "inputs": [],
      "name": "BlockEpoch",
      "outputs": [
        {
          "internalType": "uint256",
          "name": "",
          "type": "uint256"
        }
      ],
      "stateMutability": "view",
      "type": "function"
    },
    {
      "inputs": [],
      "name": "MaxValidatorNum",
      "outputs": [
        {
          "internalType": "uint16",
          "name": "",
          "type": "uint16"
        }
      ],
      "stateMutability": "view",
      "type": "function"
    },
    {
      "inputs": [],
      "name": "MinimalStakingCoin",
      "outputs": [
        {
          "internalType": "uint256",
          "name": "",
          "type": "uint256"
        }
      ],
      "stateMutability": "view",
      "type": "function"
    },
    {
      "inputs": [],
      "name": "SlashContractAddr",
      "outputs": [
        {
          "internalType": "address",
          "name": "",
          "type": "address"
        }
      ],
      "stateMutability": "view",
      "type": "function"
    },
    {
      "inputs": [],
      "name": "StakingLockPeriod",
      "outputs": [
        {
          "internalType": "uint64",
          "name": "",
          "type": "uint64"
        }
      ],
      "stateMutability": "view",
      "type": "function"
    },
    {
      "inputs": [],
      "name": "ValidatorContractAddr",
      "outputs": [
        {
          "internalType": "address",
          "name": "",
          "type": "address"
        }
      ],
      "stateMutability": "view",
      "type": "function"
    },
    {
      "inputs": [],
      "name": "ValidatorSlashAmount",
      "outputs": [
        {
          "internalType": "uint256",
          "name": "",
          "type": "uint256"
        }
      ],
      "stateMutability": "view",
      "type": "function"
    },
    {
      "inputs": [],
      "name": "WithdrawRewardPeriod",
      "outputs": [
        {
          "internalType": "uint64",
          "name": "",
          "type": "uint64"
        }
      ],
      "stateMutability": "view",
      "type": "function"
    },
    {
      "inputs": [],
      "name": "initialized",
      "outputs": [
        {
          "internalType": "bool",
          "name": "",
          "type": "bool"
        }
      ],
      "stateMutability": "view",
      "type": "function"
    },
    {
      "inputs": [],
      "name": "totalStaking",
      "outputs": [
        {
          "internalType": "uint256",
          "name": "",
          "type": "uint256"
        }
      ],
      "stateMutability": "view",
      "type": "function"
    },
    {
      "inputs": [
        {
          "internalType": "uint256",
          "name": "",
          "type": "uint256"
        }
      ],
      "name": "validatorCandidateSet",
      "outputs": [
        {
          "internalType": "address",
          "name": "",
          "type": "address"
        }
      ],
      "stateMutability": "view",
      "type": "function"
    },
    {
      "inputs": [
        {
          "internalType": "uint256",
          "name": "",
          "type": "uint256"
        }
      ],
      "name": "validatorSet",
      "outputs": [
        {
          "internalType": "address",
          "name": "",
          "type": "address"
        }
      ],
      "stateMutability": "view",
      "type": "function"
    },
    {
      "inputs": [
        {
          "internalType": "address[]",
          "name": "validators",
          "type": "address[]"
        }
      ],
      "name": "initialize",
      "outputs": [],
      "stateMutability": "nonpayable",
      "type": "function"
    },
    {
      "inputs": [
        {
          "internalType": "address payable",
          "name": "rewardAddr",
          "type": "address"
        },
        {
          "internalType": "string",
          "name": "moniker",
          "type": "string"
        },
        {
          "internalType": "string",
          "name": "website",
          "type": "string"
        },
        {
          "internalType": "string",
          "name": "email",
          "type": "string"
        },
        {
          "internalType": "string",
          "name": "details",
          "type": "string"
        }
      ],
      "name": "create",
      "outputs": [
        {
          "internalType": "bool",
          "name": "",
          "type": "bool"
        }
      ],
      "stateMutability": "payable",
      "type": "function"
    },
    {
      "inputs": [
        {
          "internalType": "address payable",
          "name": "rewardAddr",
          "type": "address"
        },
        {
          "internalType": "string",
          "name": "moniker",
          "type": "string"
        },
        {
          "internalType": "string",
          "name": "website",
          "type": "string"
        },
        {
          "internalType": "string",
          "name": "email",
          "type": "string"
        },
        {
          "internalType": "string",
          "name": "details",
          "type": "string"
        }
      ],
      "name": "edit",
      "outputs": [
        {
          "internalType": "bool",
          "name": "",
          "type": "bool"
        }
      ],
      "stateMutability": "nonpayable",
      "type": "function"
    },
    {
      "inputs": [
        {
          "internalType": "address",
          "name": "validator",
          "type": "address"
        }
      ],
      "name": "stake",
      "outputs": [
        {
          "internalType": "bool",
          "name": "",
          "type": "bool"
        }
      ],
      "stateMutability": "payable",
      "type": "function"
    },
    {
      "inputs": [
        {
          "internalType": "address",
          "name": "validator",
          "type": "address"
        }
      ],
      "name": "unstake",
      "outputs": [
        {
          "internalType": "bool",
          "name": "",
          "type": "bool"
        }
      ],
      "stateMutability": "nonpayable",
      "type": "function"
    },
    {
      "inputs": [],
      "name": "unjailed",
      "outputs": [
        {
          "internalType": "bool",
          "name": "",
          "type": "bool"
        }
      ],
      "stateMutability": "nonpayable",
      "type": "function"
    },
    {
      "inputs": [
        {
          "internalType": "address",
          "name": "validator",
          "type": "address"
        }
      ],
      "name": "withdrawStaking",
      "outputs": [
        {
          "internalType": "bool",
          "name": "",
          "type": "bool"
        }
      ],
      "stateMutability": "nonpayable",
      "type": "function"
    },
    {
      "inputs": [
        {
          "internalType": "address",
          "name": "validator",
          "type": "address"
        }
      ],
      "name": "withdrawRewards",
      "outputs": [
        {
          "internalType": "bool",
          "name": "",
          "type": "bool"
        }
      ],
      "stateMutability": "nonpayable",
      "type": "function"
    },
    {
      "inputs": [],
      "name": "distributeBlockReward",
      "outputs": [],
      "stateMutability": "payable",
      "type": "function"
    },
    {
      "inputs": [
        {
          "internalType": "address",
          "name": "validator",
          "type": "address"
        }
      ],
      "name": "slashValidator",
      "outputs": [],
      "stateMutability": "nonpayable",
      "type": "function"
    },
    {
      "inputs": [
        {
          "internalType": "address",
          "name": "validator",
          "type": "address"
        }
      ],
      "name": "getValidatorDescription",
      "outputs": [
        {
          "internalType": "string",
          "name": "",
          "type": "string"
        },
        {
          "internalType": "string",
          "name": "",
          "type": "string"
        },
        {
          "internalType": "string",
          "name": "",
          "type": "string"
        },
        {
          "internalType": "string",
          "name": "",
          "type": "string"
        }
      ],
      "stateMutability": "view",
      "type": "function"
    },
    {
      "inputs": [
        {
          "internalType": "address",
          "name": "validator",
          "type": "address"
        }
      ],
      "name": "getValidatorInfo",
      "outputs": [
        {
          "internalType": "address payable",
          "name": "",
          "type": "address"
        },
        {
          "internalType": "enum Validators.Status",
          "name": "",
          "type": "uint8"
        },
        {
          "internalType": "uint256",
          "name": "",
          "type": "uint256"
        },
        {
          "internalType": "uint256",
          "name": "",
          "type": "uint256"
        },
        {
          "internalType": "uint256",
          "name": "",
          "type": "uint256"
        },
        {
          "internalType": "uint256",
          "name": "",
          "type": "uint256"
        },
        {
          "internalType": "address[]",
          "name": "",
          "type": "address[]"
        }
      ],
      "stateMutability": "view",
      "type": "function"
    },
    {
      "inputs": [
        {
          "internalType": "address",
          "name": "staker",
          "type": "address"
        },
        {
          "internalType": "address",
          "name": "validator",
          "type": "address"
        }
      ],
      "name": "getStakingInfo",
      "outputs": [
        {
          "internalType": "uint256",
          "name": "",
          "type": "uint256"
        },
        {
          "internalType": "uint256",
          "name": "",
          "type": "uint256"
        },
        {
          "internalType": "uint256",
          "name": "",
          "type": "uint256"
        }
      ],
      "stateMutability": "view",
      "type": "function"
    },
    {
      "inputs": [],
      "name": "getValidatorCandidate",
      "outputs": [
        {
          "internalType": "address[]",
          "name": "",
          "type": "address[]"
        },
        {
          "internalType": "uint256[]",
          "name": "",
          "type": "uint256[]"
        },
        {
          "internalType": "uint256",
          "name": "",
          "type": "uint256"
        }
      ],
      "stateMutability": "view",
      "type": "function"
    },
    {
      "inputs": [],
      "name": "updateActivatedValidators",
      "outputs": [
        {
          "internalType": "address[]",
          "name": "",
          "type": "address[]"
        }
      ],
      "stateMutability": "nonpayable",
      "type": "function"
    },
    {
      "inputs": [
        {
          "internalType": "address",
          "name": "who",
          "type": "address"
        }
      ],
      "name": "isValidatorCandidate",
      "outputs": [
        {
          "internalType": "bool",
          "name": "",
          "type": "bool"
        }
      ],
      "stateMutability": "view",
      "type": "function"
    },
    {
      "inputs": [
        {
          "internalType": "address",
          "name": "validator",
          "type": "address"
        }
      ],
      "name": "isValidatorActivated",
      "outputs": [
        {
          "internalType": "bool",
          "name": "",
          "type": "bool"
        }
      ],
      "stateMutability": "view",
      "type": "function"
    },
    {
      "inputs": [
        {
          "internalType": "address",
          "name": "validator",
          "type": "address"
        }
      ],
      "name": "isJailed",
      "outputs": [
        {
          "internalType": "bool",
          "name": "",
          "type": "bool"
        }
      ],
      "stateMutability": "view",
      "type": "function"
    },
    {
      "inputs": [],
      "name": "getActivatedValidators",
      "outputs": [
        {
          "internalType": "address[]",
          "name": "",
          "type": "address[]"
        }
      ],
      "stateMutability": "view",
      "type": "function"
    },
    {
      "inputs": [
        {
          "internalType": "string",
          "name": "moniker",
          "type": "string"
        },
        {
          "internalType": "string",
          "name": "website",
          "type": "string"
        },
        {
          "internalType": "string",
          "name": "email",
          "type": "string"
        },
        {
          "internalType": "string",
          "name": "details",
          "type": "string"
        }
      ],
      "name": "validateDescription",
      "outputs": [
        {
          "internalType": "bool",
          "name": "",
          "type": "bool"
        }
      ],
      "stateMutability": "pure",
      "type": "function"
    }
  ],
  "bytecode": "0x608060405234801561001057600080fd5b50614869806100206000396000f3fe6080604052600436106101e35760003560e01c80638cab587d11610102578063be64569211610095578063db7d5ace11610064578063db7d5ace14610e75578063e64808f314610e8a578063e8a3298b14610eb4578063f2888dbb14610ec9576101e3565b8063be64569214610dfa578063d59070c214610e0f578063d6c0edad14610e3b578063db78dd2814610e43576101e3565b8063a224cee7116100d1578063a224cee71461094d578063a43569b3146109c8578063b7d02ce214610ba5578063b7dc5c4014610de5576101e3565b80638cab587d1461061c57806393e71c5f1461078a5780639b7fb0631461079f578063a0c3f2d21461091a576101e3565b80633a061bd31161017a57806367239a041161014957806367239a04146104845780637f4f95fa146104995780638a11d7c9146104f25780638af0a869146105b7576101e3565b80633a061bd31461035257806342d8669314610367578063445db4a11461039a5780634711f5861461044f576101e3565b8063222d3b05116101b6578063222d3b051461029e57806326476204146102d15780632bccecfd146102f757806338a92c761461030c576101e3565b806314bfb527146101e8578063158ef93e1461022f578063165defa4146102445780631c8b8a3d1461026b575b600080fd5b3480156101f457600080fd5b5061021b6004803603602081101561020b57600080fd5b50356001600160a01b0316610efc565b604080519115158252519081900360200190f35b34801561023b57600080fd5b5061021b610f45565b34801561025057600080fd5b50610259610f4e565b60408051918252519081900360200190f35b34801561027757600080fd5b5061021b6004803603602081101561028e57600080fd5b50356001600160a01b0316610f54565b3480156102aa57600080fd5b5061021b600480360360208110156102c157600080fd5b50356001600160a01b0316610faf565b61021b600480360360208110156102e757600080fd5b50356001600160a01b03166111cc565b34801561030357600080fd5b50610259611227565b34801561031857600080fd5b506103366004803603602081101561032f57600080fd5b5035611234565b604080516001600160a01b039092168252519081900360200190f35b34801561035e57600080fd5b5061033661125b565b34801561037357600080fd5b5061021b6004803603602081101561038a57600080fd5b50356001600160a01b0316611261565b3480156103a657600080fd5b506103af6114c7565b604051808060200180602001848152602001838103835286818151815260200191508051906020019060200280838360005b838110156103f95781810151838201526020016103e1565b50505050905001838103825285818151815260200191508051906020019060200280838360005b83811015610438578181015183820152602001610420565b505050509050019550505050505060405180910390f35b34801561045b57600080fd5b506104826004803603602081101561047257600080fd5b50356001600160a01b0316611688565b005b34801561049057600080fd5b50610336611839565b3480156104a557600080fd5b506104d4600480360360408110156104bc57600080fd5b506001600160a01b038135811691602001351661183f565b60408051938452602084019290925282820152519081900360600190f35b3480156104fe57600080fd5b506105256004803603602081101561051557600080fd5b50356001600160a01b031661187c565b60405180886001600160a01b0316815260200187600481111561054457fe5b815260200186815260200185815260200184815260200183815260200180602001828103825283818151815260200191508051906020019060200280838360005b8381101561059d578181015183820152602001610585565b505050509050019850505050505050505060405180910390f35b3480156105c357600080fd5b506105cc611c2e565b60408051602080825283518183015283519192839290830191858101910280838360005b838110156106085781810151838201526020016105f0565b505050509050019250505060405180910390f35b61021b600480360360a081101561063257600080fd5b6001600160a01b038235169190810190604081016020820135600160201b81111561065c57600080fd5b82018360208201111561066e57600080fd5b803590602001918460018302840111600160201b8311171561068f57600080fd5b919390929091602081019035600160201b8111156106ac57600080fd5b8201836020820111156106be57600080fd5b803590602001918460018302840111600160201b831117156106df57600080fd5b919390929091602081019035600160201b8111156106fc57600080fd5b82018360208201111561070e57600080fd5b803590602001918460018302840111600160201b8311171561072f57600080fd5b919390929091602081019035600160201b81111561074c57600080fd5b82018360208201111561075e57600080fd5b803590602001918460018302840111600160201b8311171561077f57600080fd5b509092509050611ee9565b34801561079657600080fd5b5061021b61202a565b3480156107ab57600080fd5b5061021b600480360360a08110156107c257600080fd5b6001600160a01b038235169190810190604081016020820135600160201b8111156107ec57600080fd5b8201836020820111156107fe57600080fd5b803590602001918460018302840111600160201b8311171561081f57600080fd5b919390929091602081019035600160201b81111561083c57600080fd5b82018360208201111561084e57600080fd5b803590602001918460018302840111600160201b8311171561086f57600080fd5b919390929091602081019035600160201b81111561088c57600080fd5b82018360208201111561089e57600080fd5b803590602001918460018302840111600160201b831117156108bf57600080fd5b919390929091602081019035600160201b8111156108dc57600080fd5b8201836020820111156108ee57600080fd5b803590602001918460018302840111600160201b8311171561090f57600080fd5b509092509050612280565b34801561092657600080fd5b5061021b6004803603602081101561093d57600080fd5b50356001600160a01b031661239a565b34801561095957600080fd5b506104826004803603602081101561097057600080fd5b810190602081018135600160201b81111561098a57600080fd5b82018360208201111561099c57600080fd5b803590602001918460208302840111600160201b831117156109bd57600080fd5b5090925090506123ec565b3480156109d457600080fd5b506109fb600480360360208110156109eb57600080fd5b50356001600160a01b0316612747565b6040518080602001806020018060200180602001858103855289818151815260200191508051906020019080838360005b83811015610a44578181015183820152602001610a2c565b50505050905090810190601f168015610a715780820380516001836020036101000a031916815260200191505b5085810384528851815288516020918201918a019080838360005b83811015610aa4578181015183820152602001610a8c565b50505050905090810190601f168015610ad15780820380516001836020036101000a031916815260200191505b50858103835287518152875160209182019189019080838360005b83811015610b04578181015183820152602001610aec565b50505050905090810190601f168015610b315780820380516001836020036101000a031916815260200191505b50858103825286518152865160209182019188019080838360005b83811015610b64578181015183820152602001610b4c565b50505050905090810190601f168015610b915780820380516001836020036101000a031916815260200191505b509850505050505050505060405180910390f35b348015610bb157600080fd5b5061021b60048036036080811015610bc857600080fd5b810190602081018135600160201b811115610be257600080fd5b820183602082011115610bf457600080fd5b803590602001918460018302840111600160201b83111715610c1557600080fd5b91908080601f0160208091040260200160405190810160405280939291908181526020018383808284376000920191909152509295949360208101935035915050600160201b811115610c6757600080fd5b820183602082011115610c7957600080fd5b803590602001918460018302840111600160201b83111715610c9a57600080fd5b91908080601f0160208091040260200160405190810160405280939291908181526020018383808284376000920191909152509295949360208101935035915050600160201b811115610cec57600080fd5b820183602082011115610cfe57600080fd5b803590602001918460018302840111600160201b83111715610d1f57600080fd5b91908080601f0160208091040260200160405190810160405280939291908181526020018383808284376000920191909152509295949360208101935035915050600160201b811115610d7157600080fd5b820183602082011115610d8357600080fd5b803590602001918460018302840111600160201b83111715610da457600080fd5b91908080601f016020809104026020016040519081016040528093929190818152602001838380828437600092019190915250929550612add945050505050565b348015610df157600080fd5b506105cc612c2b565b348015610e0657600080fd5b50610259612c8d565b348015610e1b57600080fd5b50610e24612c9b565b6040805161ffff9092168252519081900360200190f35b610482612ca0565b348015610e4f57600080fd5b50610e58612dc2565b6040805167ffffffffffffffff9092168252519081900360200190f35b348015610e8157600080fd5b50610e58612dc9565b348015610e9657600080fd5b5061033660048036036020811015610ead57600080fd5b5035612dcf565b348015610ec057600080fd5b50610259612ddc565b348015610ed557600080fd5b5061021b60048036036020811015610eec57600080fd5b50356001600160a01b0316612de1565b600060046001600160a01b038316600090815260016020526040902054600160a01b900460ff166004811115610f2e57fe5b1415610f3c57506001610f40565b5060005b919050565b60005460ff1681565b60055481565b6000805b600454811015610fa657826001600160a01b031660048281548110610f7957fe5b6000918252602090912001546001600160a01b03161415610f9e576001915050610f40565b600101610f58565b50600092915050565b3360008181526002602090815260408083206001600160a01b0386168452825280832060019092528220549192918390600160a01b900460ff166004811115610ff457fe5b141561103d576040805162461bcd60e51b81526020600482015260136024820152721d985b1a59185d1bdc881b9bdd08195e1a5cdd606a1b604482015290519081900360640190fd5b6001810154611093576040805162461bcd60e51b815260206004820152601960248201527f796f75206861766520746f20756e7374616b6520666972737400000000000000604482015290519081900360640190fd5b436201518067ffffffffffffffff1682600101540111156110e55760405162461bcd60e51b81526004018080602001828103825260218152602001806146676021913960400191505060405180910390fd5b8054611133576040805162461bcd60e51b8152602060048201526018602482015277796f7520646f6e2774206861766520616e79207374616b6560401b604482015290519081900360640190fd5b80546000808355600183018190556040516001600160a01b0385169183156108fc02918491818181858888f19350505050158015611175573d6000803e3d6000fd5b50846001600160a01b0316836001600160a01b03167f3ca927248eb3fe77ad85f6de5853a874833484b0985cdb49c8ceaa326162456b836040518082815260200191505060405180910390a3506001949350505050565b6000805460ff16611212576040805162461bcd60e51b815260206004820152601960248201526000805160206147eb833981519152604482015290519081900360640190fd5b333461121f8285836131cf565b949350505050565b681b1ae4d6e2ef50000081565b6003818154811061124157fe5b6000918252602090912001546001600160a01b0316905081565b61100081565b600033816001600160a01b038416600090815260016020526040902054600160a01b900460ff16600481111561129357fe5b14156112dc576040805162461bcd60e51b81526020600482015260136024820152721d985b1a59185d1bdc881b9bdd08195e1a5cdd606a1b604482015290519081900360640190fd5b6001600160a01b038381166000908152600160205260409020548116908216146113375760405162461bcd60e51b815260040180806020018281038252603181526020018061476a6031913960400191505060405180910390fd5b6001600160a01b0383166000908152600160205260409020600801544361708090910111156113975760405162461bcd60e51b815260040180806020018281038252605b815260200180614688605b913960600191505060405180910390fd5b6001600160a01b03831660009081526001602052604090206006015480611405576040805162461bcd60e51b815260206004820152601960248201527f796f7520646f6e2774206861766520616e792072657761726400000000000000604482015290519081900360640190fd5b6001600160a01b0384166000908152600160205260408120600681019190915543600890910155801561146a576040516001600160a01b0383169082156108fc029083906000818181858888f19350505050158015611468573d6000803e3d6000fd5b505b60408051828152617081430160208201819052825190926001600160a01b0380871693908916927ff4e9e956ba4b65051e84982c3ade043c89890cdbc452e9e446afe09cd4db40c8929181900390910190a3506001949350505050565b6060806000606060038054905067ffffffffffffffff811180156114ea57600080fd5b50604051908082528060200260200182016040528015611514578160200160208202803683370190505b5060035490915060609067ffffffffffffffff8111801561153457600080fd5b5060405190808252806020026020018201604052801561155e578160200160208202803683370190505b5090506000805b60035481101561167b576002600160006003848154811061158257fe5b60009182526020808320909101546001600160a01b0316835282019290925260400190205460ff600160a01b9091041660048111156115bd57fe5b141561167357600381815481106115d057fe5b9060005260206000200160009054906101000a90046001600160a01b03168483815181106115fa57fe5b60200260200101906001600160a01b031690816001600160a01b031681525050600160006003838154811061162b57fe5b60009182526020808320909101546001600160a01b03168352820192909252604001902060010154835184908490811061166157fe5b60209081029190910101526001909101905b600101611565565b5091945092509050909192565b33611001146116c85760405162461bcd60e51b815260040180806020018281038252602981526020018061480b6029913960400191505060405180910390fd5b6116d181610f54565b6116da57611836565b6001600160a01b0381166000908152600160208190526040909120805460ff60a01b1916600160a21b17815590810154611713836134fd565b61171c836135f6565b6000805b60098401548110156117c05760006002600086600901848154811061174157fe5b60009182526020808320909101546001600160a01b0390811684528382019490945260409283018220938a168252929092528120805490925061179990869061179390681b1ae4d6e2ef500000613725565b90613787565b82549091506117a890826137c9565b82556117b4848261380b565b93505050600101611720565b5060018301546117d090826137c9565b600184015560078301546117e4908261380b565b60078401556117f38185613865565b6040805182815290516001600160a01b038616917fdd028864d7fcafbeb3bfb9802b23966c52cef5d2e4066d3c76ca2e8e4c19ebd0919081900360200190a25050505b50565b61100181565b6001600160a01b03918216600090815260026020818152604080842094909516835292909252919091208054600182015491909201549192909190565b600080600080600080606061188f6144f4565b6001600160a01b038981166000908152600160209081526040918290208251610100810190935280549384168352919290830190600160a01b900460ff1660048111156118d857fe5b60048111156118e357fe5b81526020016001820154815260200160028201604051806080016040529081600082018054600181600116156101000203166002900480601f01602080910402602001604051908101604052809291908181526020018280546001816001161561010002031660029004801561199a5780601f1061196f5761010080835404028352916020019161199a565b820191906000526020600020905b81548152906001019060200180831161197d57829003601f168201915b50505050508152602001600182018054600181600116156101000203166002900480601f016020809104026020016040519081016040528092919081815260200182805460018160011615610100020316600290048015611a3c5780601f10611a1157610100808354040283529160200191611a3c565b820191906000526020600020905b815481529060010190602001808311611a1f57829003601f168201915b5050509183525050600282810180546040805160206001841615610100026000190190931694909404601f81018390048302850183019091528084529381019390830182828015611ace5780601f10611aa357610100808354040283529160200191611ace565b820191906000526020600020905b815481529060010190602001808311611ab157829003601f168201915b505050918352505060038201805460408051602060026001851615610100026000190190941693909304601f8101849004840282018401909252818152938201939291830182828015611b625780601f10611b3757610100808354040283529160200191611b62565b820191906000526020600020905b815481529060010190602001808311611b4557829003601f168201915b505050505081525050815260200160068201548152602001600782015481526020016008820154815260200160098201805480602002602001604051908101604052809291908181526020018280548015611be657602002820191906000526020600020905b81546001600160a01b03168152600190910190602001808311611bc8575b505050505081525050905080600001518160200151826040015183608001518460a001518560c001518660e00151975097509750975097509750975050919395979092949650565b6060334114611c6e5760405162461bcd60e51b815260040180806020018281038252602d81526020018061479b602d913960400191505060405180910390fd5b6008544311611cc4576040805162461bcd60e51b815260206004820152601a60248201527f56616c696461746f727320616c72656164792075706461746564000000000000604482015290519081900360640190fd5b60005460ff16611d09576040805162461bcd60e51b815260206004820152601960248201526000805160206147eb833981519152604482015290519081900360640190fd5b60c8430615611d52576040805162461bcd60e51b815260206004820152601060248201526f426c6f636b2065706f6368206f6e6c7960801b604482015290519081900360640190fd5b600354611d9c576040805162461bcd60e51b815260206004820152601360248201527276616c696461746f722073657420656d70747960681b604482015290519081900360640190fd5b60035460651015611df4576040805162461bcd60e51b815260206004820152601d60248201527f76616c696461746f722063616e2774206d6f7265207468616e20313031000000604482015290519081900360640190fd5b60038054611e0491600491614540565b507f6120448f3d4245c1ff708d970c34e1b6484ee22a794ede0bfca2317a97aa8ced600460405180806020018281038252838181548152602001915080548015611e7757602002820191906000526020600020905b81546001600160a01b03168152600190910190602001808311611e59575b50509250505060405180910390a16004805480602002602001604051908101604052809291908181526020018280548015611edb57602002820191906000526020600020905b81546001600160a01b03168152600190910190602001808311611ebd575b505050505090504360085590565b6000805460ff16611f2f576040805162461bcd60e51b815260206004820152601960248201526000805160206147eb833981519152604482015290519081900360640190fd5b33600081815260016020526040812054600160a01b900460ff166004811115611f5457fe5b14611fa6576040805162461bcd60e51b815260206004820152601760248201527f76616c696461746f7220616c7265616479206578697374000000000000000000604482015290519081900360640190fd5b34611fb9828d8d8d8d8d8d8d8d8d613db2565b508b6001600160a01b0316826001600160a01b03167f22d10a5eb7a0f38ef7d1b508532e80fc470342c7ffafcc24fc98b5d20b2cc0ea60405160405180910390a36000811161200d5760019250505061201d565b6120188283836131cf565b925050505b9998505050505050505050565b6000805460ff16612070576040805162461bcd60e51b815260206004820152601960248201526000805160206147eb833981519152604482015290519081900360640190fd5b33600081815260016020526040902054600490600160a01b900460ff168181111561209757fe5b146120e2576040805162461bcd60e51b81526020600482015260166024820152751d985b1a59185d1bdc881a5cdb89dd081a985a5b195960521b604482015290519081900360640190fd5b6006546040805163169b262360e01b81526001600160a01b0384811660048301529151919092169163169b26239160248083019260209291908290030181600087803b15801561213157600080fd5b505af1158015612145573d6000803e3d6000fd5b505050506040513d602081101561215b57600080fd5b50516121ae576040805162461bcd60e51b815260206004820152601960248201527f636c65616e20736c61736820726577617264206661696c656400000000000000604482015290519081900360640190fd5b6001600160a01b0381166000908152600160208190526040909120015469021e19e0c9bab24000001161221a576001600160a01b0381166000908152600160208190526040909120805460ff60a01b1916600160a11b1781550154612214908290614178565b50612244565b6001600160a01b0381166000908152600160205260409020805460ff60a01b1916600360a01b1790555b6040516001600160a01b038216907f9390b453426557da5ebdc31f19a37753ca04addf656d32f35232211bb2af3f1990600090a2600191505090565b6000805460ff166122c6576040805162461bcd60e51b815260206004820152601960248201526000805160206147eb833981519152604482015290519081900360640190fd5b33600081815260016020526040812054600160a01b900460ff1660048111156122eb57fe5b1415612336576040805162461bcd60e51b81526020600482015260156024820152741d985b1a59185d1bdc881a5cdb89dd08195e1a5cdd605a1b604482015290519081900360640190fd5b612348818c8c8c8c8c8c8c8c8c613db2565b508a6001600160a01b0316816001600160a01b03167fcfac5dc75b8d9a7e074162f59d9adcd33da59f0fe8dfb21580db298fc0fdad0d60405160405180910390a35060019a9950505050505050505050565b6000805b600354811015610fa657826001600160a01b0316600382815481106123bf57fe5b6000918252602090912001546001600160a01b031614156123e4576001915050610f40565b60010161239e565b60005460ff1615612444576040805162461bcd60e51b815260206004820181905260248201527f74686520636f6e747261637420616c726561647920696e697469616c697a6564604482015290519081900360640190fd5b600680546001600160a01b03191661100117905560005b8181101561273557600083838381811061247157fe5b905060200201356001600160a01b03166001600160a01b031614156124dd576040805162461bcd60e51b815260206004820152601960248201527f496e76616c69642076616c696461746f72206164647265737300000000000000604482015290519081900360640190fd5b6125018383838181106124ec57fe5b905060200201356001600160a01b031661239a565b61255057600383838381811061251357fe5b835460018101855560009485526020948590200180546001600160a01b0319166001600160a01b0395909202939093013593909316929092179055505b61257483838381811061255f57fe5b905060200201356001600160a01b0316610f54565b6125c357600483838381811061258657fe5b835460018101855560009485526020948590200180546001600160a01b0319166001600160a01b0395909202939093013593909316929092179055505b60006001818585858181106125d457fe5b6001600160a01b03602091820293909301358316845283019390935260409091016000205416919091141590506126895782828281811061261157fe5b905060200201356001600160a01b03166001600085858581811061263157fe5b905060200201356001600160a01b03166001600160a01b03166001600160a01b0316815260200190815260200160002060000160006101000a8154816001600160a01b0302191690836001600160a01b031602179055505b60006001600085858581811061269b57fe5b602090810292909201356001600160a01b031683525081019190915260400160002054600160a01b900460ff1660048111156126d357fe5b141561272d576002600160008585858181106126eb57fe5b602090810292909201356001600160a01b0316835250810191909152604001600020805460ff60a01b1916600160a01b83600481111561272757fe5b02179055505b60010161245b565b50506000805460ff1916600117905550565b6060806060806127556144f4565b6001600160a01b038681166000908152600160209081526040918290208251610100810190935280549384168352919290830190600160a01b900460ff16600481111561279e57fe5b60048111156127a957fe5b81526020016001820154815260200160028201604051806080016040529081600082018054600181600116156101000203166002900480601f0160208091040260200160405190810160405280929190818152602001828054600181600116156101000203166002900480156128605780601f1061283557610100808354040283529160200191612860565b820191906000526020600020905b81548152906001019060200180831161284357829003601f168201915b50505050508152602001600182018054600181600116156101000203166002900480601f0160208091040260200160405190810160405280929190818152602001828054600181600116156101000203166002900480156129025780601f106128d757610100808354040283529160200191612902565b820191906000526020600020905b8154815290600101906020018083116128e557829003601f168201915b5050509183525050600282810180546040805160206001841615610100026000190190931694909404601f810183900483028501830190915280845293810193908301828280156129945780601f1061296957610100808354040283529160200191612994565b820191906000526020600020905b81548152906001019060200180831161297757829003601f168201915b505050918352505060038201805460408051602060026001851615610100026000190190941693909304601f8101849004840282018401909252818152938201939291830182828015612a285780601f106129fd57610100808354040283529160200191612a28565b820191906000526020600020905b815481529060010190602001808311612a0b57829003601f168201915b505050505081525050815260200160068201548152602001600782015481526020016008820154815260200160098201805480602002602001604051908101604052809291908181526020018280548015612aac57602002820191906000526020600020905b81546001600160a01b03168152600190910190602001808311612a8e575b5050509190925250505060609081015180516020820151604083015192909301519099929850909650945092505050565b6000608085511115612b2f576040805162461bcd60e51b81526020600482015260166024820152750d2dcecc2d8d2c840dadedcd2d6cae440d8cadccee8d60531b604482015290519081900360640190fd5b61010084511115612b80576040805162461bcd60e51b81526020600482015260166024820152750d2dcecc2d8d2c840eecac4e6d2e8ca40d8cadccee8d60531b604482015290519081900360640190fd5b61010083511115612bcf576040805162461bcd60e51b81526020600482015260146024820152730d2dcecc2d8d2c840cadac2d2d840d8cadccee8d60631b604482015290519081900360640190fd5b61040082511115612c20576040805162461bcd60e51b81526020600482015260166024820152750d2dcecc2d8d2c840c8cae8c2d2d8e640d8cadccee8d60531b604482015290519081900360640190fd5b506001949350505050565b60606004805480602002602001604051908101604052809291908181526020018280548015612c8357602002820191906000526020600020905b81546001600160a01b03168152600190910190602001808311612c65575b5050505050905090565b69021e19e0c9bab240000081565b606581565b334114612cde5760405162461bcd60e51b815260040180806020018281038252602d81526020018061479b602d913960400191505060405180910390fd5b6007544311612d34576040805162461bcd60e51b815260206004820152601960248201527f426c6f636b20697320616c726561647920726577617264656400000000000000604482015290519081900360640190fd5b60005460ff16612d79576040805162461bcd60e51b815260206004820152601960248201526000805160206147eb833981519152604482015290519081900360640190fd5b33600081815260016020526040812054349190600160a01b900460ff166004811115612da157fe5b1415612dae575050612dbc565b612db9816000613865565b50505b43600755565b6201518081565b61708081565b6004818154811061124157fe5b60c881565b6000805460ff16612e27576040805162461bcd60e51b815260206004820152601960248201526000805160206147eb833981519152604482015290519081900360640190fd5b3360006001600160a01b038416600090815260016020526040902054600160a01b900460ff166004811115612e5857fe5b1415612ea4576040805162461bcd60e51b81526020600482015260166024820152751d985b1a59185d1bdc881a5cc81b9bdd08195e1a5cdd60521b604482015290519081900360640190fd5b6001600160a01b03808216600090815260026020908152604080832093871683529281528282206001918290529290912082549183015490919015612f1a5760405162461bcd60e51b81526004018080602001828103825260238152602001806147c86023913960400191505060405180910390fd5b60008111612f6a576040805162461bcd60e51b8152602060048201526018602482015277796f7520646f6e2774206861766520616e79207374616b6560401b604482015290519081900360640190fd5b6004546001148015612f805750612f8086610f54565b8015612fa45750600182015469021e19e0c9bab240000090612fa290836137c9565b105b15612fe05760405162461bcd60e51b81526004018080602001828103825260448152602001806146e36044913960600191505060405180910390fd5b60098201546002840154600019909101146130bd57600982018054600019810190811061300957fe5b9060005260206000200160009054906101000a90046001600160a01b03168260090184600201548154811061303a57fe5b9060005260206000200160006101000a8154816001600160a01b0302191690836001600160a01b031602179055508260020154600260008460090186600201548154811061308457fe5b60009182526020808320909101546001600160a01b0390811684528382019490945260409283018220938b168252929092529020600201555b816009018054806130ca57fe5b600082815260209020810160001990810180546001600160a01b031916905501905560018201546130fb90826137c9565b60018084019190915543908401556000600284015560055461311d90826137c9565b600555600182015469021e19e0c9bab2400000111561314857815460ff60a01b1916600360a01b1782555b6040805182815262015181430160208201819052825190926001600160a01b03808b1693908916927f18edd09e80386cd99df397e2e0d87d2bb259423eae08645e776321a36fe680ef929181900390910190a360028354600160a01b900460ff1660048111156131b457fe5b146131c2576131c2876135f6565b5060019695505050505050565b6000806001600160a01b038416600090815260016020526040902054600160a01b900460ff16600481111561320057fe5b141561324c576040805162461bcd60e51b81526020600482015260166024820152751d985b1a59185d1bdc881a5cc81b9bdd08195e1a5cdd60521b604482015290519081900360640190fd5b6001600160a01b03808516600090815260026020908152604080832093871683529290522060010154156132b15760405162461bcd60e51b81526004018080602001828103825260228152602001806147276022913960400191505060405180910390fd5b6001600160a01b03831660009081526001602081905260409091209081015469021e19e0c9bab2400000906132e6908561380b565b1015613339576040805162461bcd60e51b815260206004820152601960248201527f7374616b696e6720616d6f756e74206e6f7420656e6f75676800000000000000604482015290519081900360640190fd5b6001600160a01b038086166000908152600260209081526040808320938816835292905220546133b2576009810180546001600160a01b038088166000818152600260208181526040808420958c1684529481529382200184905560018401855593845292200180546001600160a01b03191690911790555b60018101546133c1908461380b565b600182015560028154600160a01b900460ff1660048111156133df57fe5b14158015613404575060048154600160a01b900460ff16600481111561340157fe5b14155b1561341b57805460ff60a01b1916600160a11b1781555b6001600160a01b0380861660009081526002602090815260408083209388168352929052205461344b908461380b565b6001600160a01b0380871660009081526002602090815260408083209389168352929052205560055461347e908461380b565b6005556040805184815290516001600160a01b0380871692908816917f795c91e2fef542f2e8bccd08552a8961ecb158d0f47be08f5c44b349993b07a99181900360200190a360028154600160a01b900460ff1660048111156134dd57fe5b1415612c20576134f1848260010154614178565b50506001949350505050565b60005b6004548110801561351357506004546001105b156135f2576004818154811061352557fe5b6000918252602090912001546001600160a01b03838116911614156135ea576004546000190181146135b85760048054600019810190811061356357fe5b600091825260209091200154600480546001600160a01b03909216918390811061358957fe5b9060005260206000200160006101000a8154816001600160a01b0302191690836001600160a01b031602179055505b60048054806135c357fe5b600082815260209020810160001990810180546001600160a01b03191690550190556135f2565b600101613500565b5050565b60005b6003548110801561360c57506003546001105b156135f257816001600160a01b03166003828154811061362857fe5b6000918252602090912001546001600160a01b0316141561371d576003546000190181146136b75760038054600019810190811061366257fe5b600091825260209091200154600380546001600160a01b03909216918390811061368857fe5b9060005260206000200160006101000a8154816001600160a01b0302191690836001600160a01b031602179055505b60038054806136c257fe5b600082815260208120820160001990810180546001600160a01b03191690559091019091556040516001600160a01b038416917f4fc54cda221fafc19baae2a4c79ae99dd0916c88b67ab97d3122a5afe333fc1d91a26135f2565b6001016135f9565b60008261373457506000613781565b8282028284828161374157fe5b041461377e5760405162461bcd60e51b81526004018080602001828103825260218152602001806147496021913960400191505060405180910390fd5b90505b92915050565b600061377e83836040518060400160405280601a81526020017f536166654d6174683a206469766973696f6e206279207a65726f0000000000008152506143f8565b600061377e83836040518060400160405280601e81526020017f536166654d6174683a207375627472616374696f6e206f766572666c6f77000081525061449a565b60008282018381101561377e576040805162461bcd60e51b815260206004820152601b60248201527f536166654d6174683a206164646974696f6e206f766572666c6f770000000000604482015290519081900360640190fd5b8161386f576135f2565b60008060005b60045481101561395e576004600160006004848154811061389257fe5b60009182526020808320909101546001600160a01b0316835282019290925260400190205460ff600160a01b9091041660048111156138cd57fe5b141580156139055750836001600160a01b0316600482815481106138ed57fe5b6000918252602090912001546001600160a01b031614155b156139565761394d600160006004848154811061391e57fe5b60009182526020808320909101546001600160a01b03168352820192909252604001902060010154849061380b565b92506001909101905b600101613875565b508061396b5750506135f2565b6000806000606060048054905067ffffffffffffffff8111801561398e57600080fd5b506040519080825280602002602001820160405280156139b8578160200160208202803683370190505b5060045490915060609067ffffffffffffffff811180156139d857600080fd5b50604051908082528060200260200182016040528015613a02578160200160208202803683370190505b50905060008060005b600454811015613c2b5760046001600060048481548110613a2857fe5b60009182526020808320909101546001600160a01b0316835282019290925260400190205460ff600160a01b909104166004811115613a6357fe5b14158015613a9b57508a6001600160a01b031660048281548110613a8357fe5b6000918252602090912001546001600160a01b031614155b15613c235789613ab657613aaf8c8a613787565b9150613b00565b613afd8a6117936001600060048681548110613ace57fe5b60009182526020808320909101546001600160a01b031683528201929092526040019020600101548f90613725565b91505b613b43826001600060048581548110613b1557fe5b60009182526020808320909101546001600160a01b031683528201929092526040019020600601549061380b565b6001600060048481548110613b5457fe5b60009182526020808320909101546001600160a01b031683528201929092526040019020600601556004805482908110613b8a57fe5b6000918252602090912001546001600160a01b03169650613bab868361380b565b955060048181548110613bba57fe5b9060005260206000200160009054906101000a90046001600160a01b0316858481518110613be457fe5b60200260200101906001600160a01b031690816001600160a01b03168152505081848481518110613c1157fe5b60209081029190910101526001909201915b600101613a0b565b50613c368b866137c9565b9650600087118015613c5057506001600160a01b03861615155b15613ce2576001600160a01b038616600090815260016020526040902060060154613c7b908861380b565b6001600160a01b0387166000908152600160205260409020600601558251613cc590889085906000198101908110613caf57fe5b602002602001015161380b90919063ffffffff16565b83600185510381518110613cd557fe5b6020026020010181815250505b7f762312188fa57bea7344b027aa7fe37066e66085ddedd6dbec6190a107668dd6848484604051808060200180602001848152602001838103835286818151815260200191508051906020019060200280838360005b83811015613d50578181015183820152602001613d38565b50505050905001838103825285818151815260200191508051906020019060200280838360005b83811015613d8f578181015183820152602001613d77565b505050509050019550505050505060405180910390a15050505050505050505050565b60006001600160a01b038a16613e0f576040805162461bcd60e51b815260206004820152601e60248201527f696e76616c696420726563656976652072657761726420616464726573730000604482015290519081900360640190fd5b613eea89898080601f01602080910402602001604051908101604052809392919081815260200183838082843760009201919091525050604080516020601f8d018190048102820181019092528b815292508b91508a908190840183828082843760009201919091525050604080516020601f8c018190048102820181019092528a815292508a915089908190840183828082843760009201919091525050604080516020601f8b018190048102820181019092528981529250899150889081908401838280828437600092019190915250612add92505050565b613f3b576040805162461bcd60e51b815260206004820152601d60248201527f696e76616c69642076616c696461746f72206465736372697074696f6e000000604482015290519081900360640190fd5b60006001600160a01b038c16600090815260016020526040902054600160a01b900460ff166004811115613f6b57fe5b1415613f9b576001600160a01b038b166000908152600160205260409020805460ff60a01b1916600160a01b1790555b6001600160a01b038b81166000908152600160205260409020548116908b1614613fee576001600160a01b038b8116600090815260016020526040902080546001600160a01b031916918c169190911790555b60405180608001604052808a8a8080601f016020809104026020016040519081016040528093929190818152602001838380828437600092019190915250505090825250604080516020601f8b0181900481028201810190925289815291810191908a908a9081908401838280828437600092019190915250505090825250604080516020601f890181900481028201810190925287815291810191908890889081908401838280828437600092019190915250505090825250604080516020601f87018190048102820181019092528581529181019190869086908190840183828082843760009201829052509390945250506001600160a01b038e1681526001602090815260409091208351805160029092019350614113928492910190614590565b50602082810151805161412c9260018501920190614590565b5060408201518051614148916002840191602090910190614590565b5060608201518051614164916003840191602090910190614590565b5060019d9c50505050505050505050505050565b6000805b6003548110156141ca57836001600160a01b03166003828154811061419d57fe5b6000918252602090912001546001600160a01b031614156141c2576001915050613781565b60010161417c565b5060035460651115614253576003805460018101825560009182527fc2575a0e9e593c00f959f8c92f12db2869c3395a3b0502d05e2516446f71f85b0180546001600160a01b0319166001600160a01b03861690811790915560405190917f3200b283524ec389117b5f97a240b03a9a72a036996087fd6e65404e5ec52fd391a2506001613781565b600060016000600360008154811061426757fe5b60009182526020808320909101546001600160a01b03168352820192909252604001812060019081015492505b600354811015614325578260016000600384815481106142b057fe5b60009182526020808320909101546001600160a01b03168352820192909252604001902060010154101561431d5760016000600383815481106142ef57fe5b60009182526020808320909101546001600160a01b0316835282019290925260400190206001015492509050805b600101614294565b5081841161433857600092505050613781565b6003818154811061434557fe5b60009182526020822001546040516001600160a01b03909116917f4fc54cda221fafc19baae2a4c79ae99dd0916c88b67ab97d3122a5afe333fc1d91a26040516001600160a01b038616907f3200b283524ec389117b5f97a240b03a9a72a036996087fd6e65404e5ec52fd390600090a284600382815481106143c457fe5b600091825260209091200180546001600160a01b0319166001600160a01b0392909216919091179055506001949350505050565b600081836144845760405162461bcd60e51b81526004018080602001828103825283818151815260200191508051906020019080838360005b83811015614449578181015183820152602001614431565b50505050905090810190601f1680156144765780820380516001836020036101000a031916815260200191505b509250505060405180910390fd5b50600083858161449057fe5b0495945050505050565b600081848411156144ec5760405162461bcd60e51b8152602060048201818152835160248401528351909283926044909101919085019080838360008315614449578181015183820152602001614431565b505050900390565b6040805161010081019091526000808252602082019081526020016000815260200161451e61460a565b8152602001600081526020016000815260200160008152602001606081525090565b8280548282559060005260206000209081019282156145805760005260206000209182015b82811115614580578254825591600101919060010190614565565b5061458c929150614632565b5090565b828054600181600116156101000203166002900490600052602060002090601f016020900481019282601f106145d157805160ff19168380011785556145fe565b828001600101855582156145fe579182015b828111156145fe5782518255916020019190600101906145e3565b5061458c929150614651565b6040518060800160405280606081526020016060815260200160608152602001606081525090565b5b8082111561458c5780546001600160a01b0319168155600101614633565b5b8082111561458c576000815560010161465256fe796f7572207374616b696e6720686176656e277420756e6c6f636b656420796574796f75206d757374207761697420656e6f75676820626c6f636b7320746f20776974686472617720796f757220726577617264206166746572206c6174657374207769746864726177206f6620746869732076616c696461746f72796f752063616e277420756e7374616b652c2076616c696461746f72206c6973742077696c6c20626520656d7074792061667465722074686973206f7065726174696f6e63616e2774207374616b65207768656e20796f752061726520756e7374616b696e67536166654d6174683a206d756c7469706c69636174696f6e206f766572666c6f77796f7520617265206e6f742074686520726577617264207265636569766572206f6620746869732076616c696461746f72746865206d6573736167652073656e646572206d7573742062652074686520626c6f636b2070726f6475636572796f752061726520616c726561647920696e20756e7374616b696e672073746174757374686520636f6e7472616374206e6f7420696e69742079657400000000000000746865206d6573736167652073656e646572206d75737420626520736c61736820636f6e7472616374a2646970667358221220bc8ed1643723f0769ae6a90a7aa6f4bd99a7b645e832c5ff58b06457911ada8664736f6c634300060c0033",
  "immutableReferences": {},
  "source": "// SPDX-License-Identifier: GPL\npragma solidity 0.6.12;\n\nimport \"./System.sol\";\nimport \"./Slash.sol\";\nimport \"./library/SafeMath.sol\";\n\ncontract Validators is System {\n    using SafeMath for uint256;\n\n    uint16 public constant MaxValidatorNum = 101;\n    // Validator have to wait StakingLockPeriod blocks to withdraw staking\n    uint64 public constant StakingLockPeriod = 86400;\n    // Validator have to wait WithdrawRewardPeriod blocks to withdraw his rewards\n    uint64 public constant WithdrawRewardPeriod = 28800;\n    uint256 public constant MinimalStakingCoin = 10000 ether;\n    uint256 public constant ValidatorSlashAmount = 500 ether;\n\n    enum Status {\n        // validator not exist, default status\n        NotExist,\n        // validator created\n        Created,\n        // anyone has staked for the validator\n        Staked,\n        // validator's staked amount < MinimalStakingCoin\n        Unstake,\n        // validator is jailed by system(validator have to repropose)\n        Jailed\n    }\n\n    struct Description {\n        string moniker;\n        string website;\n        string email;\n        string details;\n    }\n\n    struct Validator {\n        address payable rewardAddr;\n        Status status;\n        uint256 stakingAmount;\n        Description description;\n        uint256 rewardAmount;\n        uint256 slashAmount;\n        uint256 lastWithdrawRewardBlock;\n        // Address list of user who has staked for this validator\n        address[] stakers;\n    }\n\n    struct StakingInfo {\n        uint256 amount;\n        // unstakeBlock != 0 means that you are unstaking your stake, so you can't stake or unstake\n        uint256 unstakeBlock;\n        // index of the staker list in validator\n        uint256 index;\n    }\n\n    mapping(address => Validator) validatorInfo;\n    // staker => validator => info\n    mapping(address => mapping(address => StakingInfo)) stakerInfo;\n    // validator candidate set (dynamic changed)\n    address[] public validatorCandidateSet;\n    // current activate validator set\n    address[] public validatorSet;\n    // total staking amount of all validators\n    uint256 public totalStaking;\n\n    // slash contract\n    Slash slash;\n\n    // Record the operations is done or not.\n    uint256 distributedRewardNumber;\n    uint256 updateValidatorNumber;\n\n    event ValidatorCreated(address indexed validator, address indexed rewardAddr);\n    event ValidatorUpdated(address indexed validator, address indexed rewardAddr);\n    event ValidatorUnjailed(address indexed validator);\n    event Unstake(address indexed staker, address indexed validator, uint256 amount, uint256 unLockHeight);\n    event Staking(address indexed staker, address indexed validator, uint256 amount);\n    event WithdrawStaking(address indexed staker, address indexed validator, uint256 amount);\n    event WithdrawRewards(address indexed validator, address indexed rewardAddress, uint256 amount, uint256 nextWithdrawBlock);\n    event RewardDistributed(address []validators, uint256 []rewards, uint256 rewardCount);\n    //event RewardDistributed(address indexed validator, uint256 indexed reward);\n    event ValidatorSlash(address indexed validator, uint256 amount);\n\n    event ValidatorSetUpdated(address []validators);\n\n    event AddToValidatorCandidate(address indexed validator);\n    event RemoveFromValidatorCandidate(address indexed valdiator);\n\n    modifier onlyNotRewarded() {\n        require(\n            block.number > distributedRewardNumber,\n            \"Block is already rewarded\"\n        );\n        _;\n        distributedRewardNumber = block.number;\n    }\n\n    modifier onlyNotUpdated() {\n        require(\n            block.number > updateValidatorNumber,\n            \"Validators already updated\"\n        );\n        _;\n        updateValidatorNumber = block.number;\n    }\n\n    function initialize(address[] calldata validators) external onlyNotInitialized {\n        slash = Slash(SlashContractAddr);\n\n        for (uint256 i = 0; i < validators.length; i++) {\n            require(validators[i] != address(0), \"Invalid validator address\");\n\n            if (!isValidatorCandidate(validators[i])) {\n                validatorCandidateSet.push(validators[i]);\n            }\n            \n            if (!isValidatorActivated(validators[i])) {\n                validatorSet.push(validators[i]);\n            }\n            \n            if (validatorInfo[validators[i]].rewardAddr == address(0)) {\n                validatorInfo[validators[i]].rewardAddr = payable(validators[i]);\n            }\n            \n            // Important: NotExist validator can't get rewards\n            if (validatorInfo[validators[i]].status == Status.NotExist) {\n                validatorInfo[validators[i]].status = Status.Staked;\n            }\n        }\n\n        initialized = true;\n    }\n\n    function create(\n        address payable rewardAddr,\n        string calldata moniker,\n        string calldata website,\n        string calldata email,\n        string calldata details\n    ) external payable onlyInitialized returns (bool) {\n        address payable validator = msg.sender;\n        require(validatorInfo[validator].status == Status.NotExist, \"validator already exist\");\n        uint256 stakingAmount = msg.value;\n        _updateValidator(validator, rewardAddr, moniker, website, email, details);\n        emit ValidatorCreated(validator, rewardAddr);\n        if (stakingAmount <= 0) {\n            return true;\n        }\n\n        return _stake(validator, validator, stakingAmount);\n    }\n\n    function edit(\n        address payable rewardAddr,\n        string calldata moniker,\n        string calldata website,\n        string calldata email,\n        string calldata details\n    ) external onlyInitialized returns (bool) {\n        address payable validator = msg.sender;\n        require(validatorInfo[validator].status != Status.NotExist, \"validator isn't exist\");\n        _updateValidator(validator, rewardAddr, moniker, website, email, details);\n        emit ValidatorUpdated(validator, rewardAddr);\n        return true;\n    }\n\n    // stake for the validator\n    function stake(address validator)\n        external\n        payable\n        onlyInitialized\n        returns (bool)\n    {\n        address payable staker = msg.sender;\n        uint256 stakingAmount = msg.value;\n        return _stake(staker, validator, stakingAmount);\n    }\n\n    function _stake(address staker, address validator, uint256 stakingAmount) private returns (bool) {\n        require(\n            validatorInfo[validator].status != Status.NotExist,\n            \"validator is not exist\"\n        );\n        require(\n            stakerInfo[staker][validator].unstakeBlock == 0,\n            \"can't stake when you are unstaking\"\n        );\n\n        Validator storage valInfo = validatorInfo[validator];\n        // The staked amount of validator must >= MinimalStakingCoin\n        require(\n            valInfo.stakingAmount.add(stakingAmount) >= MinimalStakingCoin,\n            \"staking amount not enough\"\n        );\n\n        // stake at first time to this valiadtor\n        if (stakerInfo[staker][validator].amount == 0) {\n            // add staker to validator's record list\n            stakerInfo[staker][validator].index = valInfo.stakers.length;\n            valInfo.stakers.push(staker);\n        }\n\n        valInfo.stakingAmount = valInfo.stakingAmount.add(stakingAmount);\n        if (valInfo.status != Status.Staked && valInfo.status != Status.Jailed) {\n            valInfo.status = Status.Staked;\n        }\n        \n        // record staker's info\n        stakerInfo[staker][validator].amount = stakerInfo[staker][validator].amount.add(stakingAmount);\n        totalStaking = totalStaking.add(stakingAmount);\n        emit Staking(staker, validator, stakingAmount);\n\n        if (valInfo.status == Status.Staked) {\n            addToValidatorCandidate(validator, valInfo.stakingAmount);\n        }\n\n        return true;\n    }\n\n    function unstake(address validator)\n        external\n        onlyInitialized\n        returns (bool)\n    {\n        address staker = msg.sender;\n        require(validatorInfo[validator].status != Status.NotExist, \"validator is not exist\");\n\n        StakingInfo storage stakingInfo = stakerInfo[staker][validator];\n        Validator storage valInfo = validatorInfo[validator];\n        uint256 unstakeAmount = stakingInfo.amount;\n\n        require(stakingInfo.unstakeBlock == 0, \"you are already in unstaking status\");\n        require(unstakeAmount > 0, \"you don't have any stake\");\n        // You can't unstake if the validator is the only one top validator and\n        // this unstake operation will cause staked amount of validator < MinimalStakingCoin\n        require(\n            !(validatorSet.length == 1 &&\n                isValidatorActivated(validator) &&\n                valInfo.stakingAmount.sub(unstakeAmount) < MinimalStakingCoin),\n            \"you can't unstake, validator list will be empty after this operation\"\n        );\n\n        // try to remove this staker out of validator stakers list.\n        if (stakingInfo.index != valInfo.stakers.length - 1) {\n            valInfo.stakers[stakingInfo.index] = valInfo.stakers[valInfo\n                .stakers\n                .length - 1];\n            // update index of the changed staker.\n            stakerInfo[valInfo.stakers[stakingInfo.index]][validator]\n                .index = stakingInfo.index;\n        }\n        valInfo.stakers.pop();\n\n        valInfo.stakingAmount = valInfo.stakingAmount.sub(unstakeAmount);\n        stakingInfo.unstakeBlock = block.number;\n        stakingInfo.index = 0;\n        totalStaking = totalStaking.sub(unstakeAmount);\n\n        // try to remove it out of active validator set if validator's stakingAmount < MinimalStakingCoin\n        if (valInfo.stakingAmount < MinimalStakingCoin) {\n            valInfo.status = Status.Unstake;\n        }\n        uint256 unLockHeight = block.number + StakingLockPeriod + 1;\n        emit Unstake(staker, validator, unstakeAmount, unLockHeight);\n\n        if (valInfo.status != Status.Staked) {\n            removeFromValidatorCandidate(validator);\n        }\n        return true;\n    }\n\n    function _updateValidator(address payable validator, address payable rewardAddr,\n        string calldata moniker,\n        string calldata website,\n        string calldata email,\n        string calldata details\n    ) private returns (bool) {\n        require(rewardAddr != address(0), \"invalid receive reward address\");\n        require(validateDescription(moniker, website, email,details), \"invalid validator description\");\n        if (validatorInfo[validator].status == Status.NotExist) {\n            validatorInfo[validator].status = Status.Created;\n        }\n\n        if (validatorInfo[validator].rewardAddr != rewardAddr) {\n            validatorInfo[validator].rewardAddr = rewardAddr;\n        }\n\n        validatorInfo[validator].description = Description(\n            moniker,\n            website,\n            email,\n            details\n        );\n\n        return true;\n\n    }\n\n    function unjailed()\n        external\n        onlyInitialized\n        returns (bool)\n    {\n        address validator = msg.sender;\n        require(validatorInfo[validator].status == Status.Jailed, \"validator isn't jailed\");\n        require(slash.clean(validator), \"clean slash reward failed\");\n\n        if (validatorInfo[validator].stakingAmount >= MinimalStakingCoin) {\n            validatorInfo[validator].status = Status.Staked;\n            addToValidatorCandidate(validator, validatorInfo[validator].stakingAmount);\n        } else {\n            validatorInfo[validator].status = Status.Unstake;\n        }\n\n        emit ValidatorUnjailed(validator);\n        return true;\n    }\n\n    function withdrawStaking(address validator) external returns (bool) {\n        address payable staker = payable(msg.sender);\n        StakingInfo storage stakingInfo = stakerInfo[staker][validator];\n        require(\n            validatorInfo[validator].status != Status.NotExist,\n            \"validator not exist\"\n        );\n        require(stakingInfo.unstakeBlock != 0, \"you have to unstake first\");\n        // Ensure staker can withdraw his staking back\n        require(\n            stakingInfo.unstakeBlock + StakingLockPeriod <= block.number,\n            \"your staking haven't unlocked yet\"\n        );\n        require(stakingInfo.amount > 0, \"you don't have any stake\");\n\n        uint256 staking = stakingInfo.amount;\n        stakingInfo.amount = 0;\n        stakingInfo.unstakeBlock = 0;\n\n        // send stake back to staker\n        staker.transfer(staking);\n\n        emit WithdrawStaking(staker, validator, staking);\n        return true;\n    }\n\n    // rewardAddress can withdraw reward of it's validator\n    function withdrawRewards(address validator) external returns (bool) {\n        address payable rewardAddr = payable(msg.sender);\n        require(\n            validatorInfo[validator].status != Status.NotExist,\n            \"validator not exist\"\n        );\n        require(\n            validatorInfo[validator].rewardAddr == rewardAddr,\n            \"you are not the reward receiver of this validator\"\n        );\n        require(\n            validatorInfo[validator].lastWithdrawRewardBlock +\n                WithdrawRewardPeriod <=\n                block.number,\n            \"you must wait enough blocks to withdraw your reward after latest withdraw of this validator\"\n        );\n        uint256 rewardAmount = validatorInfo[validator].rewardAmount;\n        require(rewardAmount > 0, \"you don't have any reward\");\n\n        // update info\n        validatorInfo[validator].rewardAmount = 0;\n        validatorInfo[validator].lastWithdrawRewardBlock = block.number;\n\n        // send reward to reward address\n        if (rewardAmount > 0) {\n            rewardAddr.transfer(rewardAmount);\n        }\n        uint256 nextWithdrawBlock = block.number + WithdrawRewardPeriod + 1;\n        emit WithdrawRewards(validator, rewardAddr, rewardAmount, nextWithdrawBlock);\n\n        return true;\n    }\n\n    // distributeBlockReward distributes block reward to all active validators\n    function distributeBlockReward()\n        external\n        payable\n        onlyCoinbase\n        onlyNotRewarded\n        onlyInitialized\n    {\n        address validator = msg.sender;\n        uint256 amount = msg.value;\n\n        if (validatorInfo[validator].status == Status.NotExist) {\n            return;\n        }\n\n        _distributeRewardToActivatedValidators(amount, address(0));\n\n    }\n\n    function slashValidator(address validator) external onlySlashContract {\n        if (!isValidatorActivated(validator)) {\n            return;\n        }\n\n        Validator storage valInfo = validatorInfo[validator];\n        valInfo.status = Status.Jailed;\n        uint256 stakingAmount = valInfo.stakingAmount;\n        deactivateValidator(validator);\n        removeFromValidatorCandidate(validator);\n\n        uint256 slashTotal = 0;\n        for (uint256 i = 0; i < valInfo.stakers.length; i++) {\n            StakingInfo storage stakingInfo = stakerInfo[valInfo.stakers[i]][validator];\n            uint256 stakerSlashAmount = stakingInfo.amount.mul(ValidatorSlashAmount).div(stakingAmount);\n            stakingInfo.amount = stakingInfo.amount.sub(stakerSlashAmount);\n            slashTotal = slashTotal.add(stakerSlashAmount);\n        }\n        valInfo.stakingAmount = valInfo.stakingAmount.sub(slashTotal);\n        valInfo.slashAmount = valInfo.slashAmount.add(slashTotal);\n\n        _distributeRewardToActivatedValidators(slashTotal, validator);\n        emit ValidatorSlash(validator, slashTotal);\n    }\n\n    function _distributeRewardToActivatedValidators(uint256 rewardAmount, address exceptAddress) private {\n        if (rewardAmount == 0) {\n            return;\n        }\n\n        uint256 totalRewardStaking = 0;\n        uint256 rewardValidatorLen = 0;\n        for (uint256 i = 0; i < validatorSet.length; i++) {\n            if (validatorInfo[validatorSet[i]].status != Status.Jailed && validatorSet[i] != exceptAddress) {\n                totalRewardStaking = totalRewardStaking.add(validatorInfo[validatorSet[i]].stakingAmount);\n                rewardValidatorLen++;\n            }\n        }\n        if (rewardValidatorLen == 0) {\n            return;\n        }\n\n        uint256 remain;\n        address last;\n        uint256 distributedAmount;\n        address[] memory rewardValidators = new address[](validatorSet.length);\n        uint256[] memory validatorRewardAmount = new uint256[](validatorSet.length);\n        uint256 rewardCount = 0;\n        uint256 reward = 0;\n        for (uint256 i = 0; i < validatorSet.length; i++) {\n            if (validatorInfo[validatorSet[i]].status != Status.Jailed && validatorSet[i] != exceptAddress) {\n                if (totalRewardStaking == 0) {\n                    reward = rewardAmount.div(rewardValidatorLen);\n                } else {\n                    reward = rewardAmount.mul(validatorInfo[validatorSet[i]].stakingAmount).div(totalRewardStaking);\n                }\n                validatorInfo[validatorSet[i]].rewardAmount = validatorInfo[validatorSet[i]].rewardAmount.add(reward);\n                last = validatorSet[i];\n                distributedAmount = distributedAmount.add(reward);\n                rewardValidators[rewardCount] = validatorSet[i];\n                validatorRewardAmount[rewardCount] = reward;\n                rewardCount++;\n            }\n        }\n\n        remain = rewardAmount.sub(distributedAmount);\n        if (remain > 0 && last != address(0)) {\n            validatorInfo[last].rewardAmount = validatorInfo[last].rewardAmount.add(remain);\n            validatorRewardAmount[validatorRewardAmount.length-1] = validatorRewardAmount[validatorRewardAmount.length-1].add(remain);\n        }\n\n        emit RewardDistributed(rewardValidators, validatorRewardAmount, rewardCount);\n    }\n\n    function deactivateValidator(address validator) private {\n        for (uint256 i = 0; i < validatorSet.length && validatorSet.length > 1; i++) {\n            if (validator == validatorSet[i]) {\n                if (i != validatorSet.length-1) {\n                    validatorSet[i] = validatorSet[validatorSet.length-1];\n                }\n                validatorSet.pop();\n                break;\n            }\n        }\n    }\n\n    function getValidatorDescription(address validator) public view returns (string memory, string memory, string memory, string memory){\n        Validator memory v = validatorInfo[validator];\n\n        return (\n            v.description.moniker,\n            v.description.website,\n            v.description.email,\n            v.description.details\n        );\n    }\n\n    function getValidatorInfo(address validator) public view returns (address payable, Status, uint256, uint256, uint256, uint256, address[] memory) {\n        Validator memory v = validatorInfo[validator];\n\n        return (\n            v.rewardAddr,\n            v.status,\n            v.stakingAmount,\n            v.rewardAmount,\n            v.slashAmount,\n            v.lastWithdrawRewardBlock,\n            v.stakers\n        );\n    }\n\n    function getStakingInfo(address staker, address validator) public view returns (uint256, uint256, uint256) {\n        return (\n            stakerInfo[staker][validator].amount,\n            stakerInfo[staker][validator].unstakeBlock,\n            stakerInfo[staker][validator].index\n        );\n    }\n\n    function getValidatorCandidate() public view returns (address[] memory, uint256[] memory, uint256) {\n        address[] memory candidates = new address[](validatorCandidateSet.length);\n        uint256[] memory stakings = new uint256[](validatorCandidateSet.length);\n        uint256 count = 0;\n        for (uint256 i = 0; i < validatorCandidateSet.length; i++) {\n            if (validatorInfo[validatorCandidateSet[i]].status == Status.Staked) {\n                candidates[count] = validatorCandidateSet[i];\n                stakings[count] = validatorInfo[validatorCandidateSet[i]].stakingAmount;\n                count++;\n            }\n        }\n        return (candidates, stakings, count);\n    }\n\n    function updateActivatedValidators() public \n        onlyCoinbase\n        onlyNotUpdated\n        onlyInitialized\n        onlyBlockEpoch() returns (address[] memory)\n    {\n        require(validatorCandidateSet.length > 0, \"validator set empty\");\n        require(validatorCandidateSet.length <= MaxValidatorNum, \"validator can't more than 101\");\n        validatorSet = validatorCandidateSet;\n        emit ValidatorSetUpdated(validatorSet);\n        return validatorSet;\n    }\n\n    function isValidatorCandidate(address who) public view returns (bool) {\n        for (uint256 i = 0; i < validatorCandidateSet.length; i++) {\n            if (validatorCandidateSet[i] == who) {\n                return true;\n            }\n        }\n\n        return false;\n    }\n\n    function isValidatorActivated(address validator) public view returns (bool) {\n        for (uint256 i = 0; i < validatorSet.length; i++) {\n            if (validatorSet[i] == validator) {\n                return true;\n            }\n        }\n\n        return false;\n    }\n\n    function isJailed(address validator) public view returns (bool) {\n        if (validatorInfo[validator].status == Status.Jailed) {\n            return true;\n        }\n        return false;\n    }\n\n    function getActivatedValidators() public view returns (address[] memory) {\n        return validatorSet;\n    }\n\n    function validateDescription(\n        string memory moniker,\n        string memory website,\n        string memory email,\n        string memory details\n    ) public pure returns (bool) {\n        require(bytes(moniker).length <= 128, \"invalid moniker length\");\n        require(bytes(website).length <= 256, \"invalid website length\");\n        require(bytes(email).length <= 256, \"invalid email length\");\n        require(bytes(details).length <= 1024, \"invalid details length\");\n\n        return true;\n    }\n\n    function addToValidatorCandidate(address validator, uint256 staking) internal returns (bool){\n        for (uint256 i = 0; i < validatorCandidateSet.length; i++) {\n            if (validatorCandidateSet[i] == validator) {\n                return true;\n            }\n        }\n\n        if (validatorCandidateSet.length < MaxValidatorNum) {\n            validatorCandidateSet.push(validator);\n            emit AddToValidatorCandidate(validator);\n            return true;\n        }\n\n        uint256 lowestStaking = validatorInfo[validatorCandidateSet[0]].stakingAmount;\n        uint256 lowestIndex = 0;\n        for (uint256 i = 1; i < validatorCandidateSet.length; i++) {\n            if (validatorInfo[validatorCandidateSet[i]].stakingAmount < lowestStaking) {\n                lowestStaking = validatorInfo[validatorCandidateSet[i]].stakingAmount;\n                lowestIndex = i;\n            }\n        }\n\n        if (staking <= lowestStaking) {\n            return false;\n        }\n\n        emit RemoveFromValidatorCandidate(validatorCandidateSet[lowestIndex]);\n        emit AddToValidatorCandidate(validator);\n        validatorCandidateSet[lowestIndex] = validator;\n        return true;\n    }\n\n    function removeFromValidatorCandidate(address validator) internal {\n        for (uint256 i = 0; i < validatorCandidateSet.length && validatorCandidateSet.length > 1; i++) {\n            if (validatorCandidateSet[i] == validator) {\n                if (i != validatorCandidateSet.length - 1) {\n                    validatorCandidateSet[i] = validatorCandidateSet[validatorCandidateSet.length - 1];\n                }\n                validatorCandidateSet.pop();\n                emit RemoveFromValidatorCandidate(validator);\n                break;\n            }\n        }\n    }\n}\n",
  "sourcePath": "/Users/vino/projects/coinexstartchain/csc_genesis_contract/contracts/Validators.sol",
  "compiler": {
    "name": "solc",
    "version": "0.6.12+commit.27d51765.Emscripten.clang"
  },
  "schemaVersion": "3.3.2",
  "updatedAt": "2021-06-17T12:37:54.634Z",
  "devdoc": {
    "kind": "dev",
    "methods": {},
    "version": 1
  },
  "userdoc": {
    "kind": "user",
    "methods": {},
    "version": 1
  }
}