{
  "contractName": "Validators",
  "abi": [
    {
      "anonymous": false,
      "inputs": [
        {
          "indexed": false,
          "internalType": "address[]",
          "name": "validators",
          "type": "address[]"
        },
        {
          "indexed": false,
          "internalType": "uint256[]",
          "name": "rewards",
          "type": "uint256[]"
        },
        {
          "indexed": false,
          "internalType": "uint256",
          "name": "rewardCount",
          "type": "uint256"
        }
      ],
      "name": "RewardDistributed",
      "type": "event"
    },
    {
      "anonymous": false,
      "inputs": [
        {
          "indexed": true,
          "internalType": "address",
          "name": "staker",
          "type": "address"
        },
        {
          "indexed": true,
          "internalType": "address",
          "name": "validator",
          "type": "address"
        },
        {
          "indexed": false,
          "internalType": "uint256",
          "name": "amount",
          "type": "uint256"
        }
      ],
      "name": "Staking",
      "type": "event"
    },
    {
      "anonymous": false,
      "inputs": [
        {
          "indexed": true,
          "internalType": "address",
          "name": "staker",
          "type": "address"
        },
        {
          "indexed": true,
          "internalType": "address",
          "name": "validator",
          "type": "address"
        },
        {
          "indexed": false,
          "internalType": "uint256",
          "name": "amount",
          "type": "uint256"
        },
        {
          "indexed": false,
          "internalType": "uint256",
          "name": "unLockHeight",
          "type": "uint256"
        }
      ],
      "name": "Unstake",
      "type": "event"
    },
    {
      "anonymous": false,
      "inputs": [
        {
          "indexed": true,
          "internalType": "address",
          "name": "validator",
          "type": "address"
        },
        {
          "indexed": true,
          "internalType": "address",
          "name": "rewardAddr",
          "type": "address"
        }
      ],
      "name": "ValidatorCreated",
      "type": "event"
    },
    {
      "anonymous": false,
      "inputs": [
        {
          "indexed": false,
          "internalType": "address[]",
          "name": "validators",
          "type": "address[]"
        }
      ],
      "name": "ValidatorSetUpdated",
      "type": "event"
    },
    {
      "anonymous": false,
      "inputs": [
        {
          "indexed": true,
          "internalType": "address",
          "name": "validator",
          "type": "address"
        },
        {
          "indexed": false,
          "internalType": "uint256",
          "name": "amount",
          "type": "uint256"
        }
      ],
      "name": "ValidatorSlash",
      "type": "event"
    },
    {
      "anonymous": false,
      "inputs": [
        {
          "indexed": true,
          "internalType": "address",
          "name": "validator",
          "type": "address"
        }
      ],
      "name": "ValidatorUnjailed",
      "type": "event"
    },
    {
      "anonymous": false,
      "inputs": [
        {
          "indexed": true,
          "internalType": "address",
          "name": "validator",
          "type": "address"
        },
        {
          "indexed": true,
          "internalType": "address",
          "name": "rewardAddr",
          "type": "address"
        }
      ],
      "name": "ValidatorUpdated",
      "type": "event"
    },
    {
      "anonymous": false,
      "inputs": [
        {
          "indexed": true,
          "internalType": "address",
          "name": "validator",
          "type": "address"
        },
        {
          "indexed": true,
          "internalType": "address",
          "name": "rewardAddress",
          "type": "address"
        },
        {
          "indexed": false,
          "internalType": "uint256",
          "name": "amount",
          "type": "uint256"
        },
        {
          "indexed": false,
          "internalType": "uint256",
          "name": "nextWithdrawBlock",
          "type": "uint256"
        }
      ],
      "name": "WithdrawRewards",
      "type": "event"
    },
    {
      "anonymous": false,
      "inputs": [
        {
          "indexed": true,
          "internalType": "address",
          "name": "staker",
          "type": "address"
        },
        {
          "indexed": true,
          "internalType": "address",
          "name": "validator",
          "type": "address"
        },
        {
          "indexed": false,
          "internalType": "uint256",
          "name": "amount",
          "type": "uint256"
        }
      ],
      "name": "WithdrawStaking",
      "type": "event"
    },
    {
      "inputs": [],
      "name": "MaxValidatorNum",
      "outputs": [
        {
          "internalType": "uint16",
          "name": "",
          "type": "uint16"
        }
      ],
      "stateMutability": "view",
      "type": "function"
    },
    {
      "inputs": [],
      "name": "MinimalStakingCoin",
      "outputs": [
        {
          "internalType": "uint256",
          "name": "",
          "type": "uint256"
        }
      ],
      "stateMutability": "view",
      "type": "function"
    },
    {
      "inputs": [],
      "name": "SlashContractAddr",
      "outputs": [
        {
          "internalType": "address",
          "name": "",
          "type": "address"
        }
      ],
      "stateMutability": "view",
      "type": "function"
    },
    {
      "inputs": [],
      "name": "StakingLockPeriod",
      "outputs": [
        {
          "internalType": "uint64",
          "name": "",
          "type": "uint64"
        }
      ],
      "stateMutability": "view",
      "type": "function"
    },
    {
      "inputs": [],
      "name": "ValidatorContractAddr",
      "outputs": [
        {
          "internalType": "address",
          "name": "",
          "type": "address"
        }
      ],
      "stateMutability": "view",
      "type": "function"
    },
    {
      "inputs": [],
      "name": "ValidatorSlashAmount",
      "outputs": [
        {
          "internalType": "uint256",
          "name": "",
          "type": "uint256"
        }
      ],
      "stateMutability": "view",
      "type": "function"
    },
    {
      "inputs": [],
      "name": "WithdrawRewardPeriod",
      "outputs": [
        {
          "internalType": "uint64",
          "name": "",
          "type": "uint64"
        }
      ],
      "stateMutability": "view",
      "type": "function"
    },
    {
      "inputs": [],
      "name": "initialized",
      "outputs": [
        {
          "internalType": "bool",
          "name": "",
          "type": "bool"
        }
      ],
      "stateMutability": "view",
      "type": "function"
    },
    {
      "inputs": [],
      "name": "totalStaking",
      "outputs": [
        {
          "internalType": "uint256",
          "name": "",
          "type": "uint256"
        }
      ],
      "stateMutability": "view",
      "type": "function"
    },
    {
      "inputs": [
        {
          "internalType": "uint256",
          "name": "",
          "type": "uint256"
        }
      ],
      "name": "validatorCandidateSet",
      "outputs": [
        {
          "internalType": "address",
          "name": "",
          "type": "address"
        }
      ],
      "stateMutability": "view",
      "type": "function"
    },
    {
      "inputs": [
        {
          "internalType": "uint256",
          "name": "",
          "type": "uint256"
        }
      ],
      "name": "validatorSet",
      "outputs": [
        {
          "internalType": "address",
          "name": "",
          "type": "address"
        }
      ],
      "stateMutability": "view",
      "type": "function"
    },
    {
      "inputs": [
        {
          "internalType": "address[]",
          "name": "validators",
          "type": "address[]"
        }
      ],
      "name": "initialize",
      "outputs": [],
      "stateMutability": "nonpayable",
      "type": "function"
    },
    {
      "inputs": [
        {
          "internalType": "address payable",
          "name": "rewardAddr",
          "type": "address"
        },
        {
          "internalType": "string",
          "name": "moniker",
          "type": "string"
        },
        {
          "internalType": "string",
          "name": "identity",
          "type": "string"
        },
        {
          "internalType": "string",
          "name": "website",
          "type": "string"
        },
        {
          "internalType": "string",
          "name": "email",
          "type": "string"
        },
        {
          "internalType": "string",
          "name": "details",
          "type": "string"
        }
      ],
      "name": "create",
      "outputs": [
        {
          "internalType": "bool",
          "name": "",
          "type": "bool"
        }
      ],
      "stateMutability": "payable",
      "type": "function"
    },
    {
      "inputs": [
        {
          "internalType": "address payable",
          "name": "rewardAddr",
          "type": "address"
        },
        {
          "internalType": "string",
          "name": "moniker",
          "type": "string"
        },
        {
          "internalType": "string",
          "name": "identity",
          "type": "string"
        },
        {
          "internalType": "string",
          "name": "website",
          "type": "string"
        },
        {
          "internalType": "string",
          "name": "email",
          "type": "string"
        },
        {
          "internalType": "string",
          "name": "details",
          "type": "string"
        }
      ],
      "name": "edit",
      "outputs": [
        {
          "internalType": "bool",
          "name": "",
          "type": "bool"
        }
      ],
      "stateMutability": "nonpayable",
      "type": "function"
    },
    {
      "inputs": [
        {
          "internalType": "address",
          "name": "validator",
          "type": "address"
        }
      ],
      "name": "stake",
      "outputs": [
        {
          "internalType": "bool",
          "name": "",
          "type": "bool"
        }
      ],
      "stateMutability": "payable",
      "type": "function"
    },
    {
      "inputs": [
        {
          "internalType": "address",
          "name": "validator",
          "type": "address"
        }
      ],
      "name": "unstake",
      "outputs": [
        {
          "internalType": "bool",
          "name": "",
          "type": "bool"
        }
      ],
      "stateMutability": "nonpayable",
      "type": "function"
    },
    {
      "inputs": [],
      "name": "unjailed",
      "outputs": [
        {
          "internalType": "bool",
          "name": "",
          "type": "bool"
        }
      ],
      "stateMutability": "nonpayable",
      "type": "function"
    },
    {
      "inputs": [
        {
          "internalType": "address",
          "name": "validator",
          "type": "address"
        }
      ],
      "name": "withdrawStaking",
      "outputs": [
        {
          "internalType": "bool",
          "name": "",
          "type": "bool"
        }
      ],
      "stateMutability": "nonpayable",
      "type": "function"
    },
    {
      "inputs": [
        {
          "internalType": "address",
          "name": "validator",
          "type": "address"
        }
      ],
      "name": "withdrawRewards",
      "outputs": [
        {
          "internalType": "bool",
          "name": "",
          "type": "bool"
        }
      ],
      "stateMutability": "nonpayable",
      "type": "function"
    },
    {
      "inputs": [],
      "name": "distributeBlockReward",
      "outputs": [],
      "stateMutability": "payable",
      "type": "function"
    },
    {
      "inputs": [
        {
          "internalType": "address",
          "name": "validator",
          "type": "address"
        }
      ],
      "name": "slashValidator",
      "outputs": [],
      "stateMutability": "nonpayable",
      "type": "function"
    },
    {
      "inputs": [
        {
          "internalType": "address",
          "name": "validator",
          "type": "address"
        }
      ],
      "name": "getValidatorDescription",
      "outputs": [
        {
          "internalType": "string",
          "name": "",
          "type": "string"
        },
        {
          "internalType": "string",
          "name": "",
          "type": "string"
        },
        {
          "internalType": "string",
          "name": "",
          "type": "string"
        },
        {
          "internalType": "string",
          "name": "",
          "type": "string"
        },
        {
          "internalType": "string",
          "name": "",
          "type": "string"
        }
      ],
      "stateMutability": "view",
      "type": "function"
    },
    {
      "inputs": [
        {
          "internalType": "address",
          "name": "validator",
          "type": "address"
        }
      ],
      "name": "getValidatorInfo",
      "outputs": [
        {
          "internalType": "address payable",
          "name": "",
          "type": "address"
        },
        {
          "internalType": "enum Validators.Status",
          "name": "",
          "type": "uint8"
        },
        {
          "internalType": "uint256",
          "name": "",
          "type": "uint256"
        },
        {
          "internalType": "uint256",
          "name": "",
          "type": "uint256"
        },
        {
          "internalType": "uint256",
          "name": "",
          "type": "uint256"
        },
        {
          "internalType": "uint256",
          "name": "",
          "type": "uint256"
        },
        {
          "internalType": "address[]",
          "name": "",
          "type": "address[]"
        }
      ],
      "stateMutability": "view",
      "type": "function"
    },
    {
      "inputs": [
        {
          "internalType": "address",
          "name": "staker",
          "type": "address"
        },
        {
          "internalType": "address",
          "name": "validator",
          "type": "address"
        }
      ],
      "name": "getStakingInfo",
      "outputs": [
        {
          "internalType": "uint256",
          "name": "",
          "type": "uint256"
        },
        {
          "internalType": "uint256",
          "name": "",
          "type": "uint256"
        },
        {
          "internalType": "uint256",
          "name": "",
          "type": "uint256"
        }
      ],
      "stateMutability": "view",
      "type": "function"
    },
    {
      "inputs": [],
      "name": "getValidatorCandidate",
      "outputs": [
        {
          "internalType": "address[]",
          "name": "",
          "type": "address[]"
        },
        {
          "internalType": "uint256[]",
          "name": "",
          "type": "uint256[]"
        },
        {
          "internalType": "uint256",
          "name": "",
          "type": "uint256"
        }
      ],
      "stateMutability": "view",
      "type": "function"
    },
    {
      "inputs": [
        {
          "internalType": "address[]",
          "name": "newValidators",
          "type": "address[]"
        },
        {
          "internalType": "uint256",
          "name": "epoch",
          "type": "uint256"
        }
      ],
      "name": "updateActivatedValidators",
      "outputs": [],
      "stateMutability": "nonpayable",
      "type": "function"
    },
    {
      "inputs": [
        {
          "internalType": "address",
          "name": "who",
          "type": "address"
        }
      ],
      "name": "isValidatorCandidate",
      "outputs": [
        {
          "internalType": "bool",
          "name": "",
          "type": "bool"
        }
      ],
      "stateMutability": "view",
      "type": "function"
    },
    {
      "inputs": [
        {
          "internalType": "address",
          "name": "validator",
          "type": "address"
        }
      ],
      "name": "isValidatorActivated",
      "outputs": [
        {
          "internalType": "bool",
          "name": "",
          "type": "bool"
        }
      ],
      "stateMutability": "view",
      "type": "function"
    },
    {
      "inputs": [
        {
          "internalType": "address",
          "name": "validator",
          "type": "address"
        }
      ],
      "name": "isJailed",
      "outputs": [
        {
          "internalType": "bool",
          "name": "",
          "type": "bool"
        }
      ],
      "stateMutability": "view",
      "type": "function"
    },
    {
      "inputs": [],
      "name": "getActivatedValidators",
      "outputs": [
        {
          "internalType": "address[]",
          "name": "",
          "type": "address[]"
        }
      ],
      "stateMutability": "view",
      "type": "function"
    },
    {
      "inputs": [
        {
          "internalType": "string",
          "name": "moniker",
          "type": "string"
        },
        {
          "internalType": "string",
          "name": "identity",
          "type": "string"
        },
        {
          "internalType": "string",
          "name": "website",
          "type": "string"
        },
        {
          "internalType": "string",
          "name": "email",
          "type": "string"
        },
        {
          "internalType": "string",
          "name": "details",
          "type": "string"
        }
      ],
      "name": "validateDescription",
      "outputs": [
        {
          "internalType": "bool",
          "name": "",
          "type": "bool"
        }
      ],
      "stateMutability": "pure",
      "type": "function"
    }
  ],
  "bytecode": "0x608060405234801561001057600080fd5b506148b2806100206000396000f3fe6080604052600436106101d85760003560e01c80638a11d7c911610102578063be64569211610095578063db78dd2811610064578063db78dd281461105e578063db7d5ace14611090578063e64808f3146110a5578063f2888dbb146110cf576101d8565b8063be64569214610f65578063d59070c214610f7a578063d6c0edad14610fa6578063dae4b3e614610fae576101d8565b8063a43569b3116100d1578063a43569b31461082d578063b3e32ebf14610a70578063b6c8851914610c3b578063b7dc5c4014610f00576101d8565b80638a11d7c9146106a557806393e71c5f1461076a578063a0c3f2d21461077f578063a224cee7146107b2576101d8565b80632bccecfd1161017a578063445db4a111610149578063445db4a11461054d5780634711f5861461060257806367239a04146106375780637f4f95fa1461064c576101d8565b80632bccecfd146104aa57806338a92c76146104bf5780633a061bd31461050557806342d866931461051a576101d8565b8063165defa4116101b6578063165defa4146103f75780631c8b8a3d1461041e578063222d3b05146104515780632647620414610484576101d8565b806314bfb527146101dd57806314d688e314610224578063158ef93e146103e2575b600080fd5b3480156101e957600080fd5b506102106004803603602081101561020057600080fd5b50356001600160a01b0316611102565b604080519115158252519081900360200190f35b610210600480360360c081101561023a57600080fd5b6001600160a01b038235169190810190604081016020820135600160201b81111561026457600080fd5b82018360208201111561027657600080fd5b803590602001918460018302840111600160201b8311171561029757600080fd5b919390929091602081019035600160201b8111156102b457600080fd5b8201836020820111156102c657600080fd5b803590602001918460018302840111600160201b831117156102e757600080fd5b919390929091602081019035600160201b81111561030457600080fd5b82018360208201111561031657600080fd5b803590602001918460018302840111600160201b8311171561033757600080fd5b919390929091602081019035600160201b81111561035457600080fd5b82018360208201111561036657600080fd5b803590602001918460018302840111600160201b8311171561038757600080fd5b919390929091602081019035600160201b8111156103a457600080fd5b8201836020820111156103b657600080fd5b803590602001918460018302840111600160201b831117156103d757600080fd5b50909250905061114b565b3480156103ee57600080fd5b50610210611290565b34801561040357600080fd5b5061040c611299565b60408051918252519081900360200190f35b34801561042a57600080fd5b506102106004803603602081101561044157600080fd5b50356001600160a01b031661129f565b34801561045d57600080fd5b506102106004803603602081101561047457600080fd5b50356001600160a01b03166112fa565b6102106004803603602081101561049a57600080fd5b50356001600160a01b0316611517565b3480156104b657600080fd5b5061040c611572565b3480156104cb57600080fd5b506104e9600480360360208110156104e257600080fd5b503561157f565b604080516001600160a01b039092168252519081900360200190f35b34801561051157600080fd5b506104e96115a6565b34801561052657600080fd5b506102106004803603602081101561053d57600080fd5b50356001600160a01b03166115ac565b34801561055957600080fd5b50610562611812565b604051808060200180602001848152602001838103835286818151815260200191508051906020019060200280838360005b838110156105ac578181015183820152602001610594565b50505050905001838103825285818151815260200191508051906020019060200280838360005b838110156105eb5781810151838201526020016105d3565b505050509050019550505050505060405180910390f35b34801561060e57600080fd5b506106356004803603602081101561062557600080fd5b50356001600160a01b03166119d3565b005b34801561064357600080fd5b506104e9611b7b565b34801561065857600080fd5b506106876004803603604081101561066f57600080fd5b506001600160a01b0381358116916020013516611b81565b60408051938452602084019290925282820152519081900360600190f35b3480156106b157600080fd5b506106d8600480360360208110156106c857600080fd5b50356001600160a01b0316611bbe565b60405180886001600160a01b031681526020018760048111156106f757fe5b815260200186815260200185815260200184815260200183815260200180602001828103825283818151815260200191508051906020019060200280838360005b83811015610750578181015183820152602001610738565b505050509050019850505050505050505060405180910390f35b34801561077657600080fd5b50610210612004565b34801561078b57600080fd5b50610210600480360360208110156107a257600080fd5b50356001600160a01b0316612249565b3480156107be57600080fd5b50610635600480360360208110156107d557600080fd5b810190602081018135600160201b8111156107ef57600080fd5b82018360208201111561080157600080fd5b803590602001918460208302840111600160201b8311171561082257600080fd5b50909250905061229b565b34801561083957600080fd5b506108606004803603602081101561085057600080fd5b50356001600160a01b03166125f6565b60405180806020018060200180602001806020018060200186810386528b818151815260200191508051906020019080838360005b838110156108ad578181015183820152602001610895565b50505050905090810190601f1680156108da5780820380516001836020036101000a031916815260200191505b5086810385528a5181528a516020918201918c019080838360005b8381101561090d5781810151838201526020016108f5565b50505050905090810190601f16801561093a5780820380516001836020036101000a031916815260200191505b5086810384528951815289516020918201918b019080838360005b8381101561096d578181015183820152602001610955565b50505050905090810190601f16801561099a5780820380516001836020036101000a031916815260200191505b5086810383528851815288516020918201918a019080838360005b838110156109cd5781810151838201526020016109b5565b50505050905090810190601f1680156109fa5780820380516001836020036101000a031916815260200191505b50868103825287518152875160209182019189019080838360005b83811015610a2d578181015183820152602001610a15565b50505050905090810190601f168015610a5a5780820380516001836020036101000a031916815260200191505b509a505050505050505050505060405180910390f35b348015610a7c57600080fd5b50610210600480360360c0811015610a9357600080fd5b6001600160a01b038235169190810190604081016020820135600160201b811115610abd57600080fd5b820183602082011115610acf57600080fd5b803590602001918460018302840111600160201b83111715610af057600080fd5b919390929091602081019035600160201b811115610b0d57600080fd5b820183602082011115610b1f57600080fd5b803590602001918460018302840111600160201b83111715610b4057600080fd5b919390929091602081019035600160201b811115610b5d57600080fd5b820183602082011115610b6f57600080fd5b803590602001918460018302840111600160201b83111715610b9057600080fd5b919390929091602081019035600160201b811115610bad57600080fd5b820183602082011115610bbf57600080fd5b803590602001918460018302840111600160201b83111715610be057600080fd5b919390929091602081019035600160201b811115610bfd57600080fd5b820183602082011115610c0f57600080fd5b803590602001918460018302840111600160201b83111715610c3057600080fd5b509092509050612a2a565b348015610c4757600080fd5b50610210600480360360a0811015610c5e57600080fd5b810190602081018135600160201b811115610c7857600080fd5b820183602082011115610c8a57600080fd5b803590602001918460018302840111600160201b83111715610cab57600080fd5b91908080601f0160208091040260200160405190810160405280939291908181526020018383808284376000920191909152509295949360208101935035915050600160201b811115610cfd57600080fd5b820183602082011115610d0f57600080fd5b803590602001918460018302840111600160201b83111715610d3057600080fd5b91908080601f0160208091040260200160405190810160405280939291908181526020018383808284376000920191909152509295949360208101935035915050600160201b811115610d8257600080fd5b820183602082011115610d9457600080fd5b803590602001918460018302840111600160201b83111715610db557600080fd5b91908080601f0160208091040260200160405190810160405280939291908181526020018383808284376000920191909152509295949360208101935035915050600160201b811115610e0757600080fd5b820183602082011115610e1957600080fd5b803590602001918460018302840111600160201b83111715610e3a57600080fd5b91908080601f0160208091040260200160405190810160405280939291908181526020018383808284376000920191909152509295949360208101935035915050600160201b811115610e8c57600080fd5b820183602082011115610e9e57600080fd5b803590602001918460018302840111600160201b83111715610ebf57600080fd5b91908080601f016020809104026020016040519081016040528093929190818152602001838380828437600092019190915250929550612b48945050505050565b348015610f0c57600080fd5b50610f15612cef565b60408051602080825283518183015283519192839290830191858101910280838360005b83811015610f51578181015183820152602001610f39565b505050509050019250505060405180910390f35b348015610f7157600080fd5b5061040c612d51565b348015610f8657600080fd5b50610f8f612d5f565b6040805161ffff9092168252519081900360200190f35b610635612d64565b348015610fba57600080fd5b5061063560048036036040811015610fd157600080fd5b810190602081018135600160201b811115610feb57600080fd5b820183602082011115610ffd57600080fd5b803590602001918460208302840111600160201b8311171561101e57600080fd5b9190808060200260200160405190810160405280939291908181526020018383602002808284376000920191909152509295505091359250612e86915050565b34801561106a57600080fd5b506110736130ef565b6040805167ffffffffffffffff9092168252519081900360200190f35b34801561109c57600080fd5b506110736130f6565b3480156110b157600080fd5b506104e9600480360360208110156110c857600080fd5b50356130fc565b3480156110db57600080fd5b50610210600480360360208110156110f257600080fd5b50356001600160a01b0316613109565b600060046001600160a01b038316600090815260016020526040902054600160a01b900460ff16600481111561113457fe5b141561114257506001611146565b5060005b919050565b6000805460ff16611191576040805162461bcd60e51b81526020600482015260196024820152600080516020614834833981519152604482015290519081900360640190fd5b33600081815260016020526040812054600160a01b900460ff1660048111156111b657fe5b14611208576040805162461bcd60e51b815260206004820152601760248201527f76616c696461746f7220616c7265616479206578697374000000000000000000604482015290519081900360640190fd5b3461121d828f8f8f8f8f8f8f8f8f8f8f6134d0565b508d6001600160a01b0316826001600160a01b03167f22d10a5eb7a0f38ef7d1b508532e80fc470342c7ffafcc24fc98b5d20b2cc0ea60405160405180910390a36000811161127157600192505050611281565b61127c828383613946565b925050505b9b9a5050505050505050505050565b60005460ff1681565b60055481565b6000805b6004548110156112f157826001600160a01b0316600482815481106112c457fe5b6000918252602090912001546001600160a01b031614156112e9576001915050611146565b6001016112a3565b50600092915050565b3360008181526002602090815260408083206001600160a01b0386168452825280832060019092528220549192918390600160a01b900460ff16600481111561133f57fe5b1415611388576040805162461bcd60e51b81526020600482015260136024820152721d985b1a59185d1bdc881b9bdd08195e1a5cdd606a1b604482015290519081900360640190fd5b60018101546113de576040805162461bcd60e51b815260206004820152601960248201527f796f75206861766520746f20756e7374616b6520666972737400000000000000604482015290519081900360640190fd5b436201518067ffffffffffffffff1682600101540111156114305760405162461bcd60e51b81526004018080602001828103825260218152602001806146b06021913960400191505060405180910390fd5b805461147e576040805162461bcd60e51b8152602060048201526018602482015277796f7520646f6e2774206861766520616e79207374616b6560401b604482015290519081900360640190fd5b80546000808355600183018190556040516001600160a01b0385169183156108fc02918491818181858888f193505050501580156114c0573d6000803e3d6000fd5b50846001600160a01b0316836001600160a01b03167f3ca927248eb3fe77ad85f6de5853a874833484b0985cdb49c8ceaa326162456b836040518082815260200191505060405180910390a3506001949350505050565b6000805460ff1661155d576040805162461bcd60e51b81526020600482015260196024820152600080516020614834833981519152604482015290519081900360640190fd5b333461156a828583613946565b949350505050565b681b1ae4d6e2ef50000081565b6003818154811061158c57fe5b6000918252602090912001546001600160a01b0316905081565b61100081565b600033816001600160a01b038416600090815260016020526040902054600160a01b900460ff1660048111156115de57fe5b1415611627576040805162461bcd60e51b81526020600482015260136024820152721d985b1a59185d1bdc881b9bdd08195e1a5cdd606a1b604482015290519081900360640190fd5b6001600160a01b038381166000908152600160205260409020548116908216146116825760405162461bcd60e51b81526004018080602001828103825260318152602001806147b36031913960400191505060405180910390fd5b6001600160a01b0383166000908152600160205260409020600901544361708090910111156116e25760405162461bcd60e51b815260040180806020018281038252605b8152602001806146d1605b913960600191505060405180910390fd5b6001600160a01b03831660009081526001602052604090206007015480611750576040805162461bcd60e51b815260206004820152601960248201527f796f7520646f6e2774206861766520616e792072657761726400000000000000604482015290519081900360640190fd5b6001600160a01b038416600090815260016020526040812060078101919091554360099091015580156117b5576040516001600160a01b0383169082156108fc029083906000818181858888f193505050501580156117b3573d6000803e3d6000fd5b505b60408051828152617081430160208201819052825190926001600160a01b0380871693908916927ff4e9e956ba4b65051e84982c3ade043c89890cdbc452e9e446afe09cd4db40c8929181900390910190a3506001949350505050565b6060806000606060038054905067ffffffffffffffff8111801561183557600080fd5b5060405190808252806020026020018201604052801561185f578160200160208202803683370190505b5060035490915060609067ffffffffffffffff8111801561187f57600080fd5b506040519080825280602002602001820160405280156118a9578160200160208202803683370190505b5090506000805b6003548110156119c657600260016000600384815481106118cd57fe5b60009182526020808320909101546001600160a01b0316835282019290925260400190205460ff600160a01b90910416600481111561190857fe5b14156119be576003818154811061191b57fe5b9060005260206000200160009054906101000a90046001600160a01b031684838151811061194557fe5b60200260200101906001600160a01b031690816001600160a01b031681525050600160006003838154811061197657fe5b60009182526020808320909101546001600160a01b0316835282019290925260400190206001015483518490849081106119ac57fe5b60209081029190910101526001909101905b6001016118b0565b5091945092509050909192565b3361100114611a135760405162461bcd60e51b81526004018080602001828103825260298152602001806148546029913960400191505060405180910390fd5b611a1c8161129f565b611a2557611b78565b6001600160a01b0381166000908152600160208190526040909120805460ff60a01b1916600160a21b17815590810154611a5e83613c9f565b6000805b600a840154811015611b025760006002600086600a018481548110611a8357fe5b60009182526020808320909101546001600160a01b0390811684528382019490945260409283018220938a1682529290925281208054909250611adb908690611ad590681b1ae4d6e2ef500000613d98565b90613dfa565b8254909150611aea9082613e3c565b8255611af68482613e7e565b93505050600101611a62565b506001830154611b129082613e3c565b60018401556008830154611b269082613e7e565b6008840155611b358185613ed8565b6040805182815290516001600160a01b038616917fdd028864d7fcafbeb3bfb9802b23966c52cef5d2e4066d3c76ca2e8e4c19ebd0919081900360200190a25050505b50565b61100181565b6001600160a01b03918216600090815260026020818152604080842094909516835292909252919091208054600182015491909201549192909190565b6000806000806000806060611bd1614521565b6001600160a01b038981166000908152600160209081526040918290208251610100810190935280549384168352919290830190600160a01b900460ff166004811115611c1a57fe5b6004811115611c2557fe5b815260200160018201548152602001600282016040518060a0016040529081600082018054600181600116156101000203166002900480601f016020809104026020016040519081016040528092919081815260200182805460018160011615610100020316600290048015611cdc5780601f10611cb157610100808354040283529160200191611cdc565b820191906000526020600020905b815481529060010190602001808311611cbf57829003601f168201915b50505050508152602001600182018054600181600116156101000203166002900480601f016020809104026020016040519081016040528092919081815260200182805460018160011615610100020316600290048015611d7e5780601f10611d5357610100808354040283529160200191611d7e565b820191906000526020600020905b815481529060010190602001808311611d6157829003601f168201915b5050509183525050600282810180546040805160206001841615610100026000190190931694909404601f81018390048302850183019091528084529381019390830182828015611e105780601f10611de557610100808354040283529160200191611e10565b820191906000526020600020905b815481529060010190602001808311611df357829003601f168201915b505050918352505060038201805460408051602060026001851615610100026000190190941693909304601f8101849004840282018401909252818152938201939291830182828015611ea45780601f10611e7957610100808354040283529160200191611ea4565b820191906000526020600020905b815481529060010190602001808311611e8757829003601f168201915b505050918352505060048201805460408051602060026001851615610100026000190190941693909304601f8101849004840282018401909252818152938201939291830182828015611f385780601f10611f0d57610100808354040283529160200191611f38565b820191906000526020600020905b815481529060010190602001808311611f1b57829003601f168201915b5050505050815250508152602001600782015481526020016008820154815260200160098201548152602001600a8201805480602002602001604051908101604052809291908181526020018280548015611fbc57602002820191906000526020600020905b81546001600160a01b03168152600190910190602001808311611f9e575b505050505081525050905080600001518160200151826040015183608001518460a001518560c001518660e00151975097509750975097509750975050919395979092949650565b6000805460ff1661204a576040805162461bcd60e51b81526020600482015260196024820152600080516020614834833981519152604482015290519081900360640190fd5b33600081815260016020526040902054600490600160a01b900460ff168181111561207157fe5b146120bc576040805162461bcd60e51b81526020600482015260166024820152751d985b1a59185d1bdc881a5cdb89dd081a985a5b195960521b604482015290519081900360640190fd5b6006546040805163169b262360e01b81526001600160a01b0384811660048301529151919092169163169b26239160248083019260209291908290030181600087803b15801561210b57600080fd5b505af115801561211f573d6000803e3d6000fd5b505050506040513d602081101561213557600080fd5b5051612188576040805162461bcd60e51b815260206004820152601960248201527f636c65616e20736c61736820726577617264206661696c656400000000000000604482015290519081900360640190fd5b6001600160a01b0381166000908152600160208190526040909120015469021e19e0c9bab2400000116121e3576001600160a01b0381166000908152600160205260409020805460ff60a01b1916600160a11b17905561220d565b6001600160a01b0381166000908152600160205260409020805460ff60a01b1916600360a01b1790555b6040516001600160a01b038216907f9390b453426557da5ebdc31f19a37753ca04addf656d32f35232211bb2af3f1990600090a2600191505090565b6000805b6003548110156112f157826001600160a01b03166003828154811061226e57fe5b6000918252602090912001546001600160a01b03161415612293576001915050611146565b60010161224d565b60005460ff16156122f3576040805162461bcd60e51b815260206004820181905260248201527f74686520636f6e747261637420616c726561647920696e697469616c697a6564604482015290519081900360640190fd5b600680546001600160a01b03191661100117905560005b818110156125e457600083838381811061232057fe5b905060200201356001600160a01b03166001600160a01b0316141561238c576040805162461bcd60e51b815260206004820152601960248201527f496e76616c69642076616c696461746f72206164647265737300000000000000604482015290519081900360640190fd5b6123b083838381811061239b57fe5b905060200201356001600160a01b0316612249565b6123ff5760038383838181106123c257fe5b835460018101855560009485526020948590200180546001600160a01b0319166001600160a01b0395909202939093013593909316929092179055505b61242383838381811061240e57fe5b905060200201356001600160a01b031661129f565b61247257600483838381811061243557fe5b835460018101855560009485526020948590200180546001600160a01b0319166001600160a01b0395909202939093013593909316929092179055505b600060018185858581811061248357fe5b6001600160a01b0360209182029390930135831684528301939093526040909101600020541691909114159050612538578282828181106124c057fe5b905060200201356001600160a01b0316600160008585858181106124e057fe5b905060200201356001600160a01b03166001600160a01b03166001600160a01b0316815260200190815260200160002060000160006101000a8154816001600160a01b0302191690836001600160a01b031602179055505b60006001600085858581811061254a57fe5b602090810292909201356001600160a01b031683525081019190915260400160002054600160a01b900460ff16600481111561258257fe5b14156125dc5760026001600085858581811061259a57fe5b602090810292909201356001600160a01b0316835250810191909152604001600020805460ff60a01b1916600160a01b8360048111156125d657fe5b02179055505b60010161230a565b50506000805460ff1916600117905550565b6060806060806060612606614521565b6001600160a01b038781166000908152600160209081526040918290208251610100810190935280549384168352919290830190600160a01b900460ff16600481111561264f57fe5b600481111561265a57fe5b815260200160018201548152602001600282016040518060a0016040529081600082018054600181600116156101000203166002900480601f0160208091040260200160405190810160405280929190818152602001828054600181600116156101000203166002900480156127115780601f106126e657610100808354040283529160200191612711565b820191906000526020600020905b8154815290600101906020018083116126f457829003601f168201915b50505050508152602001600182018054600181600116156101000203166002900480601f0160208091040260200160405190810160405280929190818152602001828054600181600116156101000203166002900480156127b35780601f10612788576101008083540402835291602001916127b3565b820191906000526020600020905b81548152906001019060200180831161279657829003601f168201915b5050509183525050600282810180546040805160206001841615610100026000190190931694909404601f810183900483028501830190915280845293810193908301828280156128455780601f1061281a57610100808354040283529160200191612845565b820191906000526020600020905b81548152906001019060200180831161282857829003601f168201915b505050918352505060038201805460408051602060026001851615610100026000190190941693909304601f81018490048402820184019092528181529382019392918301828280156128d95780601f106128ae576101008083540402835291602001916128d9565b820191906000526020600020905b8154815290600101906020018083116128bc57829003601f168201915b505050918352505060048201805460408051602060026001851615610100026000190190941693909304601f810184900484028201840190925281815293820193929183018282801561296d5780601f106129425761010080835404028352916020019161296d565b820191906000526020600020905b81548152906001019060200180831161295057829003601f168201915b5050505050815250508152602001600782015481526020016008820154815260200160098201548152602001600a82018054806020026020016040519081016040528092919081815260200182805480156129f157602002820191906000526020600020905b81546001600160a01b031681526001909101906020018083116129d3575b5050509190925250505060609081015180516020820151604083015193830151608090930151919b909a50929850909650945092505050565b6000805460ff16612a70576040805162461bcd60e51b81526020600482015260196024820152600080516020614834833981519152604482015290519081900360640190fd5b33600081815260016020526040812054600160a01b900460ff166004811115612a9557fe5b1415612ae0576040805162461bcd60e51b81526020600482015260156024820152741d985b1a59185d1bdc881a5cdb89dd08195e1a5cdd605a1b604482015290519081900360640190fd5b612af4818e8e8e8e8e8e8e8e8e8e8e6134d0565b508c6001600160a01b0316816001600160a01b03167fcfac5dc75b8d9a7e074162f59d9adcd33da59f0fe8dfb21580db298fc0fdad0d60405160405180910390a35060019c9b505050505050505050505050565b6000604686511115612b9a576040805162461bcd60e51b81526020600482015260166024820152750d2dcecc2d8d2c840dadedcd2d6cae440d8cadccee8d60531b604482015290519081900360640190fd5b610bb885511115612bf2576040805162461bcd60e51b815260206004820152601760248201527f696e76616c6964206964656e74697479206c656e677468000000000000000000604482015290519081900360640190fd5b61010084511115612c43576040805162461bcd60e51b81526020600482015260166024820152750d2dcecc2d8d2c840eecac4e6d2e8ca40d8cadccee8d60531b604482015290519081900360640190fd5b61010083511115612c92576040805162461bcd60e51b81526020600482015260146024820152730d2dcecc2d8d2c840cadac2d2d840d8cadccee8d60631b604482015290519081900360640190fd5b61040082511115612ce3576040805162461bcd60e51b81526020600482015260166024820152750d2dcecc2d8d2c840c8cae8c2d2d8e640d8cadccee8d60531b604482015290519081900360640190fd5b50600195945050505050565b60606004805480602002602001604051908101604052809291908181526020018280548015612d4757602002820191906000526020600020905b81546001600160a01b03168152600190910190602001808311612d29575b5050505050905090565b69021e19e0c9bab240000081565b606581565b334114612da25760405162461bcd60e51b815260040180806020018281038252602d8152602001806147e4602d913960400191505060405180910390fd5b6007544311612df8576040805162461bcd60e51b815260206004820152601960248201527f426c6f636b20697320616c726561647920726577617264656400000000000000604482015290519081900360640190fd5b60005460ff16612e3d576040805162461bcd60e51b81526020600482015260196024820152600080516020614834833981519152604482015290519081900360640190fd5b33600081815260016020526040812054349190600160a01b900460ff166004811115612e6557fe5b1415612e72575050612e80565b612e7d816000613ed8565b50505b43600755565b334114612ec45760405162461bcd60e51b815260040180806020018281038252602d8152602001806147e4602d913960400191505060405180910390fd5b6008544311612f1a576040805162461bcd60e51b815260206004820152601a60248201527f56616c696461746f727320616c72656164792075706461746564000000000000604482015290519081900360640190fd5b60005460ff16612f5f576040805162461bcd60e51b81526020600482015260196024820152600080516020614834833981519152604482015290519081900360640190fd5b80804381612f6957fe5b0615612faf576040805162461bcd60e51b815260206004820152601060248201526f426c6f636b2065706f6368206f6e6c7960801b604482015290519081900360640190fd5b6000835111612ffb576040805162461bcd60e51b815260206004820152601360248201527276616c696461746f722073657420656d70747960681b604482015290519081900360640190fd5b825160651015613052576040805162461bcd60e51b815260206004820152601d60248201527f76616c696461746f722063616e2774206d6f7265207468616e20313031000000604482015290519081900360640190fd5b825161306590600490602086019061456d565b507f6120448f3d4245c1ff708d970c34e1b6484ee22a794ede0bfca2317a97aa8ced6004604051808060200182810382528381815481526020019150805480156130d857602002820191906000526020600020905b81546001600160a01b031681526001909101906020018083116130ba575b50509250505060405180910390a150504360085550565b6201518081565b61708081565b6004818154811061158c57fe5b6000805460ff1661314f576040805162461bcd60e51b81526020600482015260196024820152600080516020614834833981519152604482015290519081900360640190fd5b3360006001600160a01b038416600090815260016020526040902054600160a01b900460ff16600481111561318057fe5b14156131cc576040805162461bcd60e51b81526020600482015260166024820152751d985b1a59185d1bdc881a5cc81b9bdd08195e1a5cdd60521b604482015290519081900360640190fd5b6001600160a01b038082166000908152600260209081526040808320938716835292815282822060019182905292909120825491830154909190156132425760405162461bcd60e51b81526004018080602001828103825260238152602001806148116023913960400191505060405180910390fd5b60008111613292576040805162461bcd60e51b8152602060048201526018602482015277796f7520646f6e2774206861766520616e79207374616b6560401b604482015290519081900360640190fd5b60045460011480156132a857506132a88661129f565b80156132cc5750600182015469021e19e0c9bab2400000906132ca9083613e3c565b105b156133085760405162461bcd60e51b815260040180806020018281038252604481526020018061472c6044913960600191505060405180910390fd5b600a8201546002840154600019909101146133e557600a82018054600019810190811061333157fe5b9060005260206000200160009054906101000a90046001600160a01b031682600a0184600201548154811061336257fe5b9060005260206000200160006101000a8154816001600160a01b0302191690836001600160a01b0316021790555082600201546002600084600a018660020154815481106133ac57fe5b60009182526020808320909101546001600160a01b0390811684528382019490945260409283018220938b168252929092529020600201555b81600a018054806133f257fe5b600082815260209020810160001990810180546001600160a01b031916905501905560018201546134239082613e3c565b6001808401919091554390840155600060028401556005546134459082613e3c565b600555600182015469021e19e0c9bab2400000111561347057815460ff60a01b1916600360a01b1782555b6040805182815262015181430160208201819052825190926001600160a01b03808b1693908916927f18edd09e80386cd99df397e2e0d87d2bb259423eae08645e776321a36fe680ef929181900390910190a35060019695505050505050565b60006001600160a01b038c1661352d576040805162461bcd60e51b815260206004820152601e60248201527f696e76616c696420726563656976652072657761726420616464726573730000604482015290519081900360640190fd5b61363c8b8b8080601f01602080910402602001604051908101604052809392919081815260200183838082843760009201919091525050604080516020601f8f018190048102820181019092528d815292508d91508c908190840183828082843760009201919091525050604080516020601f8e018190048102820181019092528c815292508c91508b908190840183828082843760009201919091525050604080516020601f8d018190048102820181019092528b815292508b91508a908190840183828082843760009201919091525050604080516020601f8c018190048102820181019092528a815292508a9150899081908401838280828437600092019190915250612b4892505050565b61368d576040805162461bcd60e51b815260206004820152601d60248201527f696e76616c69642076616c696461746f72206465736372697074696f6e000000604482015290519081900360640190fd5b60006001600160a01b038e16600090815260016020526040902054600160a01b900460ff1660048111156136bd57fe5b14156136ed576001600160a01b038d166000908152600160205260409020805460ff60a01b1916600160a01b1790555b6001600160a01b038d81166000908152600160205260409020548116908d1614613740576001600160a01b038d8116600090815260016020526040902080546001600160a01b031916918e169190911790555b6040518060a001604052808c8c8080601f016020809104026020016040519081016040528093929190818152602001838380828437600092019190915250505090825250604080516020601f8d018190048102820181019092528b815291810191908c908c9081908401838280828437600092019190915250505090825250604080516020601f8b0181900481028201810190925289815291810191908a908a9081908401838280828437600092019190915250505090825250604080516020601f890181900481028201810190925287815291810191908890889081908401838280828437600092019190915250505090825250604080516020601f870181900481028201810190925285815291810191908690869081908401838280828437600081840152601f19601f82011690508083019250505050505050815250600160008f6001600160a01b03166001600160a01b0316815260200190815260200160002060020160008201518160000190805190602001906138c39291906145d2565b5060208281015180516138dc92600185019201906145d2565b50604082015180516138f89160028401916020909101906145d2565b50606082015180516139149160038401916020909101906145d2565b50608082015180516139309160048401916020909101906145d2565b5060019f9e505050505050505050505050505050565b6000806001600160a01b038416600090815260016020526040902054600160a01b900460ff16600481111561397757fe5b14156139c3576040805162461bcd60e51b81526020600482015260166024820152751d985b1a59185d1bdc881a5cc81b9bdd08195e1a5cdd60521b604482015290519081900360640190fd5b6001600160a01b0380851660009081526002602090815260408083209387168352929052206001015415613a285760405162461bcd60e51b81526004018080602001828103825260228152602001806147706022913960400191505060405180910390fd5b6001600160a01b03831660009081526001602081905260409091209081015469021e19e0c9bab240000090613a5d9085613e7e565b1015613ab0576040805162461bcd60e51b815260206004820152601960248201527f7374616b696e6720616d6f756e74206e6f7420656e6f75676800000000000000604482015290519081900360640190fd5b613ab984612249565b613b0957600380546001810182556000919091527fc2575a0e9e593c00f959f8c92f12db2869c3395a3b0502d05e2516446f71f85b0180546001600160a01b0319166001600160a01b0386161790555b6001600160a01b03808616600090815260026020908152604080832093881683529290522054613b8257600a810180546001600160a01b038088166000818152600260208181526040808420958c1684529481529382200184905560018401855593845292200180546001600160a01b03191690911790555b6001810154613b919084613e7e565b600182015560028154600160a01b900460ff166004811115613baf57fe5b14158015613bd4575060048154600160a01b900460ff166004811115613bd157fe5b14155b15613beb57805460ff60a01b1916600160a11b1781555b6001600160a01b03808616600090815260026020908152604080832093881683529290522054613c1b9084613e7e565b6001600160a01b03808716600090815260026020908152604080832093891683529290522055600554613c4e9084613e7e565b6005556040805184815290516001600160a01b0380871692908816917f795c91e2fef542f2e8bccd08552a8961ecb158d0f47be08f5c44b349993b07a99181900360200190a3506001949350505050565b60005b60045481108015613cb557506004546001105b15613d945760048181548110613cc757fe5b6000918252602090912001546001600160a01b0383811691161415613d8c57600454600019018114613d5a57600480546000198101908110613d0557fe5b600091825260209091200154600480546001600160a01b039092169183908110613d2b57fe5b9060005260206000200160006101000a8154816001600160a01b0302191690836001600160a01b031602179055505b6004805480613d6557fe5b600082815260209020810160001990810180546001600160a01b0319169055019055613d94565b600101613ca2565b5050565b600082613da757506000613df4565b82820282848281613db457fe5b0414613df15760405162461bcd60e51b81526004018080602001828103825260218152602001806147926021913960400191505060405180910390fd5b90505b92915050565b6000613df183836040518060400160405280601a81526020017f536166654d6174683a206469766973696f6e206279207a65726f000000000000815250614425565b6000613df183836040518060400160405280601e81526020017f536166654d6174683a207375627472616374696f6e206f766572666c6f7700008152506144c7565b600082820183811015613df1576040805162461bcd60e51b815260206004820152601b60248201527f536166654d6174683a206164646974696f6e206f766572666c6f770000000000604482015290519081900360640190fd5b81613ee257613d94565b60008060005b600454811015613fd15760046001600060048481548110613f0557fe5b60009182526020808320909101546001600160a01b0316835282019290925260400190205460ff600160a01b909104166004811115613f4057fe5b14158015613f785750836001600160a01b031660048281548110613f6057fe5b6000918252602090912001546001600160a01b031614155b15613fc957613fc06001600060048481548110613f9157fe5b60009182526020808320909101546001600160a01b031683528201929092526040019020600101548490613e7e565b92506001909101905b600101613ee8565b5080613fde575050613d94565b6000806000606060048054905067ffffffffffffffff8111801561400157600080fd5b5060405190808252806020026020018201604052801561402b578160200160208202803683370190505b5060045490915060609067ffffffffffffffff8111801561404b57600080fd5b50604051908082528060200260200182016040528015614075578160200160208202803683370190505b50905060008060005b60045481101561429e576004600160006004848154811061409b57fe5b60009182526020808320909101546001600160a01b0316835282019290925260400190205460ff600160a01b9091041660048111156140d657fe5b1415801561410e57508a6001600160a01b0316600482815481106140f657fe5b6000918252602090912001546001600160a01b031614155b156142965789614129576141228c8a613dfa565b9150614173565b6141708a611ad5600160006004868154811061414157fe5b60009182526020808320909101546001600160a01b031683528201929092526040019020600101548f90613d98565b91505b6141b682600160006004858154811061418857fe5b60009182526020808320909101546001600160a01b0316835282019290925260400190206007015490613e7e565b60016000600484815481106141c757fe5b60009182526020808320909101546001600160a01b0316835282019290925260400190206007015560048054829081106141fd57fe5b6000918252602090912001546001600160a01b0316965061421e8683613e7e565b95506004818154811061422d57fe5b9060005260206000200160009054906101000a90046001600160a01b031685848151811061425757fe5b60200260200101906001600160a01b031690816001600160a01b0316815250508184848151811061428457fe5b60209081029190910101526001909201915b60010161407e565b506142a98b86613e3c565b96506000871180156142c357506001600160a01b03861615155b15614355576001600160a01b0386166000908152600160205260409020600701546142ee9088613e7e565b6001600160a01b03871660009081526001602052604090206007015582516143389088908590600019810190811061432257fe5b6020026020010151613e7e90919063ffffffff16565b8360018551038151811061434857fe5b6020026020010181815250505b7f762312188fa57bea7344b027aa7fe37066e66085ddedd6dbec6190a107668dd6848484604051808060200180602001848152602001838103835286818151815260200191508051906020019060200280838360005b838110156143c35781810151838201526020016143ab565b50505050905001838103825285818151815260200191508051906020019060200280838360005b838110156144025781810151838201526020016143ea565b505050509050019550505050505060405180910390a15050505050505050505050565b600081836144b15760405162461bcd60e51b81526004018080602001828103825283818151815260200191508051906020019080838360005b8381101561447657818101518382015260200161445e565b50505050905090810190601f1680156144a35780820380516001836020036101000a031916815260200191505b509250505060405180910390fd5b5060008385816144bd57fe5b0495945050505050565b600081848411156145195760405162461bcd60e51b815260206004820181815283516024840152835190928392604490910191908501908083836000831561447657818101518382015260200161445e565b505050900390565b6040805161010081019091526000808252602082019081526020016000815260200161454b61464c565b8152602001600081526020016000815260200160008152602001606081525090565b8280548282559060005260206000209081019282156145c2579160200282015b828111156145c257825182546001600160a01b0319166001600160a01b0390911617825560209092019160019091019061458d565b506145ce92915061467b565b5090565b828054600181600116156101000203166002900490600052602060002090601f016020900481019282601f1061461357805160ff1916838001178555614640565b82800160010185558215614640579182015b82811115614640578251825591602001919060010190614625565b506145ce92915061469a565b6040518060a0016040528060608152602001606081526020016060815260200160608152602001606081525090565b5b808211156145ce5780546001600160a01b031916815560010161467c565b5b808211156145ce576000815560010161469b56fe796f7572207374616b696e6720686176656e277420756e6c6f636b656420796574796f75206d757374207761697420656e6f75676820626c6f636b7320746f20776974686472617720796f757220726577617264206166746572206c6174657374207769746864726177206f6620746869732076616c696461746f72796f752063616e277420756e7374616b652c2076616c696461746f72206c6973742077696c6c20626520656d7074792061667465722074686973206f7065726174696f6e63616e2774207374616b65207768656e20796f752061726520756e7374616b696e67536166654d6174683a206d756c7469706c69636174696f6e206f766572666c6f77796f7520617265206e6f742074686520726577617264207265636569766572206f6620746869732076616c696461746f72746865206d6573736167652073656e646572206d7573742062652074686520626c6f636b2070726f6475636572796f752061726520616c726561647920696e20756e7374616b696e672073746174757374686520636f6e7472616374206e6f7420696e69742079657400000000000000746865206d6573736167652073656e646572206d75737420626520736c61736820636f6e7472616374a26469706673582212208ad69e874f15e7ea07038f5971c98f4bc15eb46f44cb91cedb992a2064797ffe64736f6c634300060c0033",
  "immutableReferences": {},
  "source": "// SPDX-License-Identifier: GPL\npragma solidity 0.6.12;\n\nimport \"./System.sol\";\nimport \"./Slash.sol\";\nimport \"./library/SafeMath.sol\";\n\ncontract Validators is System {\n    using SafeMath for uint256;\n\n    uint16 public constant MaxValidatorNum = 101;\n    // Validator have to wait StakingLockPeriod blocks to withdraw staking\n    uint64 public constant StakingLockPeriod = 86400;\n    // Validator have to wait WithdrawRewardPeriod blocks to withdraw his rewards\n    uint64 public constant WithdrawRewardPeriod = 28800;\n    uint256 public constant MinimalStakingCoin = 10000 ether;\n    uint256 public constant ValidatorSlashAmount = 500 ether;\n\n    enum Status {\n        // validator not exist, default status\n        NotExist,\n        // validator created\n        Created,\n        // anyone has staked for the validator\n        Staked,\n        // validator's staked amount < MinimalStakingCoin\n        Unstake,\n        // validator is jailed by system(validator have to repropose)\n        Jailed\n    }\n\n    struct Description {\n        string moniker;\n        string identity;\n        string website;\n        string email;\n        string details;\n    }\n\n    struct Validator {\n        address payable rewardAddr;\n        Status status;\n        uint256 stakingAmount;\n        Description description;\n        uint256 rewardAmount;\n        uint256 slashAmount;\n        uint256 lastWithdrawRewardBlock;\n        // Address list of user who has staked for this validator\n        address[] stakers;\n    }\n\n    struct StakingInfo {\n        uint256 amount;\n        // unstakeBlock != 0 means that you are unstaking your stake, so you can't stake or unstake\n        uint256 unstakeBlock;\n        // index of the staker list in validator\n        uint256 index;\n    }\n\n    mapping(address => Validator) validatorInfo;\n    // staker => validator => info\n    mapping(address => mapping(address => StakingInfo)) stakerInfo;\n    // validator candidate set\n    address[] public validatorCandidateSet;\n    // top validator set(dynamic changed)\n    address[] public validatorSet;\n    // total staking amount of all validators\n    uint256 public totalStaking;\n\n    // slash contract\n    Slash slash;\n\n    // Record the operations is done or not.\n    uint256 distributedRewardNumber;\n    uint256 updateValidatorNumber;\n\n    event ValidatorCreated(address indexed validator, address indexed rewardAddr);\n    event ValidatorUpdated(address indexed validator, address indexed rewardAddr);\n    event ValidatorUnjailed(address indexed validator);\n    event Unstake(address indexed staker, address indexed validator, uint256 amount, uint256 unLockHeight);\n    event Staking(address indexed staker, address indexed validator, uint256 amount);\n    event WithdrawStaking(address indexed staker, address indexed validator, uint256 amount);\n    event WithdrawRewards(address indexed validator, address indexed rewardAddress, uint256 amount, uint256 nextWithdrawBlock);\n    event RewardDistributed(address []validators, uint256 []rewards, uint256 rewardCount);\n    //event RewardDistributed(address indexed validator, uint256 indexed reward);\n    event ValidatorSlash(address indexed validator, uint256 amount);\n\n    event ValidatorSetUpdated(address []validators);\n\n    modifier onlyNotRewarded() {\n        require(\n            block.number > distributedRewardNumber,\n            \"Block is already rewarded\"\n        );\n        _;\n        distributedRewardNumber = block.number;\n    }\n\n    modifier onlyNotUpdated() {\n        require(\n            block.number > updateValidatorNumber,\n            \"Validators already updated\"\n        );\n        _;\n        updateValidatorNumber = block.number;\n    }\n\n    function initialize(address[] calldata validators) external onlyNotInitialized {\n        slash = Slash(SlashContractAddr);\n\n        for (uint256 i = 0; i < validators.length; i++) {\n            require(validators[i] != address(0), \"Invalid validator address\");\n\n            if (!isValidatorCandidate(validators[i])) {\n                validatorCandidateSet.push(validators[i]);\n            }\n            if (!isValidatorActivated(validators[i])) {\n                validatorSet.push(validators[i]);\n            }\n            if (validatorInfo[validators[i]].rewardAddr == address(0)) {\n                validatorInfo[validators[i]].rewardAddr = payable(validators[i]);\n            }\n            // Important: NotExist validator can't get rewards\n            if (validatorInfo[validators[i]].status == Status.NotExist) {\n                validatorInfo[validators[i]].status = Status.Staked;\n            }\n        }\n\n        initialized = true;\n    }\n\n    function create(\n        address payable rewardAddr,\n        string calldata moniker,\n        string calldata identity,\n        string calldata website,\n        string calldata email,\n        string calldata details\n    ) external payable onlyInitialized returns (bool) {\n        address payable validator = msg.sender;\n        require(validatorInfo[validator].status == Status.NotExist, \"validator already exist\");\n        uint256 stakingAmount = msg.value;\n        _updateValidator(validator, rewardAddr, moniker, identity, website, email, details);\n        emit ValidatorCreated(validator, rewardAddr);\n        if (stakingAmount <= 0) {\n            return true;\n        }\n\n        return _stake(validator, validator, stakingAmount);\n    }\n\n    function edit(\n        address payable rewardAddr,\n        string calldata moniker,\n        string calldata identity,\n        string calldata website,\n        string calldata email,\n        string calldata details\n    ) external onlyInitialized returns (bool) {\n        address payable validator = msg.sender;\n        require(validatorInfo[validator].status != Status.NotExist, \"validator isn't exist\");\n        _updateValidator(validator, rewardAddr, moniker, identity, website, email, details);\n        emit ValidatorUpdated(validator, rewardAddr);\n        return true;\n    }\n\n    // stake for the validator\n    function stake(address validator)\n        external\n        payable\n        onlyInitialized\n        returns (bool)\n    {\n        address payable staker = msg.sender;\n        uint256 stakingAmount = msg.value;\n        return _stake(staker, validator, stakingAmount);\n    }\n\n    function _stake(address staker, address validator, uint256 stakingAmount) private returns (bool) {\n        require(\n            validatorInfo[validator].status != Status.NotExist,\n            \"validator is not exist\"\n        );\n        require(\n            stakerInfo[staker][validator].unstakeBlock == 0,\n            \"can't stake when you are unstaking\"\n        );\n\n        Validator storage valInfo = validatorInfo[validator];\n        // The staked amount of validator must >= MinimalStakingCoin\n        require(\n            valInfo.stakingAmount.add(stakingAmount) >= MinimalStakingCoin,\n            \"staking amount not enough\"\n        );\n\n        if (!isValidatorCandidate(validator)) {\n            validatorCandidateSet.push(validator);\n        }\n\n        // stake at first time to this valiadtor\n        if (stakerInfo[staker][validator].amount == 0) {\n            // add staker to validator's record list\n            stakerInfo[staker][validator].index = valInfo.stakers.length;\n            valInfo.stakers.push(staker);\n        }\n\n        valInfo.stakingAmount = valInfo.stakingAmount.add(stakingAmount);\n        if (valInfo.status != Status.Staked && valInfo.status != Status.Jailed) {\n            valInfo.status = Status.Staked;\n        }\n        \n        // record staker's info\n        stakerInfo[staker][validator].amount = stakerInfo[staker][validator].amount.add(stakingAmount);\n        totalStaking = totalStaking.add(stakingAmount);\n        emit Staking(staker, validator, stakingAmount);\n        return true;\n    }\n\n    function unstake(address validator)\n        external\n        onlyInitialized\n        returns (bool)\n    {\n        address staker = msg.sender;\n        require(validatorInfo[validator].status != Status.NotExist, \"validator is not exist\");\n\n        StakingInfo storage stakingInfo = stakerInfo[staker][validator];\n        Validator storage valInfo = validatorInfo[validator];\n        uint256 unstakeAmount = stakingInfo.amount;\n\n        require(stakingInfo.unstakeBlock == 0, \"you are already in unstaking status\");\n        require(unstakeAmount > 0, \"you don't have any stake\");\n        // You can't unstake if the validator is the only one top validator and\n        // this unstake operation will cause staked amount of validator < MinimalStakingCoin\n        require(\n            !(validatorSet.length == 1 &&\n                isValidatorActivated(validator) &&\n                valInfo.stakingAmount.sub(unstakeAmount) < MinimalStakingCoin),\n            \"you can't unstake, validator list will be empty after this operation\"\n        );\n\n        // try to remove this staker out of validator stakers list.\n        if (stakingInfo.index != valInfo.stakers.length - 1) {\n            valInfo.stakers[stakingInfo.index] = valInfo.stakers[valInfo\n                .stakers\n                .length - 1];\n            // update index of the changed staker.\n            stakerInfo[valInfo.stakers[stakingInfo.index]][validator]\n                .index = stakingInfo.index;\n        }\n        valInfo.stakers.pop();\n\n        valInfo.stakingAmount = valInfo.stakingAmount.sub(unstakeAmount);\n        stakingInfo.unstakeBlock = block.number;\n        stakingInfo.index = 0;\n        totalStaking = totalStaking.sub(unstakeAmount);\n\n        // try to remove it out of active validator set if validator's stakingAmount < MinimalStakingCoin\n        if (valInfo.stakingAmount < MinimalStakingCoin) {\n            valInfo.status = Status.Unstake;\n        }\n        uint256 unLockHeight = block.number + StakingLockPeriod + 1;\n        emit Unstake(staker, validator, unstakeAmount, unLockHeight);\n        return true;\n    }\n\n    function _updateValidator(address payable validator, address payable rewardAddr,\n        string calldata moniker,\n        string calldata identity,\n        string calldata website,\n        string calldata email,\n        string calldata details\n    ) private returns (bool) {\n        require(rewardAddr != address(0), \"invalid receive reward address\");\n        require(validateDescription(moniker, identity, website, email,details), \"invalid validator description\");\n        if (validatorInfo[validator].status == Status.NotExist) {\n            validatorInfo[validator].status = Status.Created;\n        }\n\n        if (validatorInfo[validator].rewardAddr != rewardAddr) {\n            validatorInfo[validator].rewardAddr = rewardAddr;\n        }\n\n        validatorInfo[validator].description = Description(\n            moniker,\n            identity,\n            website,\n            email,\n            details\n        );\n\n        return true;\n\n    }\n\n    function unjailed()\n        external\n        onlyInitialized\n        returns (bool)\n    {\n        address validator = msg.sender;\n        require(validatorInfo[validator].status == Status.Jailed, \"validator isn't jailed\");\n        require(slash.clean(validator), \"clean slash reward failed\");\n\n        if (validatorInfo[validator].stakingAmount >= MinimalStakingCoin) {\n            validatorInfo[validator].status = Status.Staked;\n        } else {\n            validatorInfo[validator].status = Status.Unstake;\n        }\n\n        emit ValidatorUnjailed(validator);\n        return true;\n    }\n\n    function withdrawStaking(address validator) external returns (bool) {\n        address payable staker = payable(msg.sender);\n        StakingInfo storage stakingInfo = stakerInfo[staker][validator];\n        require(\n            validatorInfo[validator].status != Status.NotExist,\n            \"validator not exist\"\n        );\n        require(stakingInfo.unstakeBlock != 0, \"you have to unstake first\");\n        // Ensure staker can withdraw his staking back\n        require(\n            stakingInfo.unstakeBlock + StakingLockPeriod <= block.number,\n            \"your staking haven't unlocked yet\"\n        );\n        require(stakingInfo.amount > 0, \"you don't have any stake\");\n\n        uint256 staking = stakingInfo.amount;\n        stakingInfo.amount = 0;\n        stakingInfo.unstakeBlock = 0;\n\n        // send stake back to staker\n        staker.transfer(staking);\n\n        emit WithdrawStaking(staker, validator, staking);\n        return true;\n    }\n\n    // rewardAddress can withdraw reward of it's validator\n    function withdrawRewards(address validator) external returns (bool) {\n        address payable rewardAddr = payable(msg.sender);\n        require(\n            validatorInfo[validator].status != Status.NotExist,\n            \"validator not exist\"\n        );\n        require(\n            validatorInfo[validator].rewardAddr == rewardAddr,\n            \"you are not the reward receiver of this validator\"\n        );\n        require(\n            validatorInfo[validator].lastWithdrawRewardBlock +\n                WithdrawRewardPeriod <=\n                block.number,\n            \"you must wait enough blocks to withdraw your reward after latest withdraw of this validator\"\n        );\n        uint256 rewardAmount = validatorInfo[validator].rewardAmount;\n        require(rewardAmount > 0, \"you don't have any reward\");\n\n        // update info\n        validatorInfo[validator].rewardAmount = 0;\n        validatorInfo[validator].lastWithdrawRewardBlock = block.number;\n\n        // send reward to reward address\n        if (rewardAmount > 0) {\n            rewardAddr.transfer(rewardAmount);\n        }\n        uint256 nextWithdrawBlock = block.number + WithdrawRewardPeriod + 1;\n        emit WithdrawRewards(validator, rewardAddr, rewardAmount, nextWithdrawBlock);\n\n        return true;\n    }\n\n    // distributeBlockReward distributes block reward to all active validators\n    function distributeBlockReward()\n        external\n        payable\n        onlyCoinbase\n        onlyNotRewarded\n        onlyInitialized\n    {\n        address validator = msg.sender;\n        uint256 amount = msg.value;\n\n        if (validatorInfo[validator].status == Status.NotExist) {\n            return;\n        }\n\n        _distributeRewardToActivatedValidators(amount, address(0));\n\n    }\n\n    function slashValidator(address validator) external onlySlashContract {\n        if (!isValidatorActivated(validator)) {\n            return;\n        }\n\n        Validator storage valInfo = validatorInfo[validator];\n        valInfo.status = Status.Jailed;\n        uint256 stakingAmount = valInfo.stakingAmount;\n        deactivateValidator(validator);\n        uint256 slashTotal = 0;\n        for (uint256 i = 0; i < valInfo.stakers.length; i++) {\n            StakingInfo storage stakingInfo = stakerInfo[valInfo.stakers[i]][validator];\n            uint256 stakerSlashAmount = stakingInfo.amount.mul(ValidatorSlashAmount).div(stakingAmount);\n            stakingInfo.amount = stakingInfo.amount.sub(stakerSlashAmount);\n            slashTotal = slashTotal.add(stakerSlashAmount);\n        }\n        valInfo.stakingAmount = valInfo.stakingAmount.sub(slashTotal);\n        valInfo.slashAmount = valInfo.slashAmount.add(slashTotal);\n\n        //TODO token\n        _distributeRewardToActivatedValidators(slashTotal, validator);\n        emit ValidatorSlash(validator, slashTotal);\n    }\n\n    function _distributeRewardToActivatedValidators(uint256 rewardAmount, address exceptAddress) private {\n        if (rewardAmount == 0) {\n            return;\n        }\n\n        uint256 totalRewardStaking = 0;\n        uint256 rewardValidatorLen = 0;\n        for (uint256 i = 0; i < validatorSet.length; i++) {\n            if (validatorInfo[validatorSet[i]].status != Status.Jailed && validatorSet[i] != exceptAddress) {\n                totalRewardStaking = totalRewardStaking.add(validatorInfo[validatorSet[i]].stakingAmount);\n                rewardValidatorLen++;\n            }\n        }\n        if (rewardValidatorLen == 0) {\n            return;\n        }\n\n        uint256 remain;\n        address last;\n        uint256 distributedAmount;\n        address[] memory rewardValidators = new address[](validatorSet.length);\n        uint256[] memory validatorRewardAmount = new uint256[](validatorSet.length);\n        uint256 rewardCount = 0;\n        uint256 reward = 0;\n        for (uint256 i = 0; i < validatorSet.length; i++) {\n            if (validatorInfo[validatorSet[i]].status != Status.Jailed && validatorSet[i] != exceptAddress) {\n                if (totalRewardStaking == 0) {\n                    reward = rewardAmount.div(rewardValidatorLen);\n                } else {\n                    reward = rewardAmount.mul(validatorInfo[validatorSet[i]].stakingAmount).div(totalRewardStaking);\n                }\n                validatorInfo[validatorSet[i]].rewardAmount = validatorInfo[validatorSet[i]].rewardAmount.add(reward);\n                last = validatorSet[i];\n                distributedAmount = distributedAmount.add(reward);\n                rewardValidators[rewardCount] = validatorSet[i];\n                validatorRewardAmount[rewardCount] = reward;\n                rewardCount++;\n            }\n        }\n\n        remain = rewardAmount.sub(distributedAmount);\n        if (remain > 0 && last != address(0)) {\n            validatorInfo[last].rewardAmount = validatorInfo[last].rewardAmount.add(remain);\n            validatorRewardAmount[validatorRewardAmount.length-1] = validatorRewardAmount[validatorRewardAmount.length-1].add(remain);\n        }\n\n        emit RewardDistributed(rewardValidators, validatorRewardAmount, rewardCount);\n    }\n\n    function deactivateValidator(address validator) private {\n        for (uint256 i = 0; i < validatorSet.length && validatorSet.length > 1; i++) {\n            if (validator == validatorSet[i]) {\n                if (i != validatorSet.length-1) {\n                    validatorSet[i] = validatorSet[validatorSet.length-1];\n                }\n                validatorSet.pop();\n                break;\n            }\n        }\n    }\n\n    function getValidatorDescription(address validator) public view returns (string memory, string memory, string memory, string memory, string memory){\n        Validator memory v = validatorInfo[validator];\n\n        return (\n            v.description.moniker,\n            v.description.identity,\n            v.description.website,\n            v.description.email,\n            v.description.details\n        );\n    }\n\n    function getValidatorInfo(address validator) public view returns (address payable, Status, uint256, uint256, uint256, uint256, address[] memory) {\n        Validator memory v = validatorInfo[validator];\n\n        return (\n            v.rewardAddr,\n            v.status,\n            v.stakingAmount,\n            v.rewardAmount,\n            v.slashAmount,\n            v.lastWithdrawRewardBlock,\n            v.stakers\n        );\n    }\n\n    function getStakingInfo(address staker, address validator) public view returns (uint256, uint256, uint256) {\n        return (\n            stakerInfo[staker][validator].amount,\n            stakerInfo[staker][validator].unstakeBlock,\n            stakerInfo[staker][validator].index\n        );\n    }\n\n    function getValidatorCandidate() public view returns (address[] memory, uint256[] memory, uint256) {\n        address[] memory candidates = new address[](validatorCandidateSet.length);\n        uint256[] memory stakings = new uint256[](validatorCandidateSet.length);\n        uint256 count = 0;\n        for (uint256 i = 0; i < validatorCandidateSet.length; i++) {\n            if (validatorInfo[validatorCandidateSet[i]].status == Status.Staked) {\n                candidates[count] = validatorCandidateSet[i];\n                stakings[count] = validatorInfo[validatorCandidateSet[i]].stakingAmount;\n                count++;\n            }\n        }\n        return (candidates, stakings, count);\n    }\n\n    function updateActivatedValidators(address [] memory newValidators, uint256 epoch) public \n        onlyCoinbase\n        onlyNotUpdated\n        onlyInitialized\n        onlyBlockEpoch(epoch) \n    {\n        require(newValidators.length > 0, \"validator set empty\");\n        require(newValidators.length <= MaxValidatorNum, \"validator can't more than 101\");\n        validatorSet = newValidators;\n        emit ValidatorSetUpdated(validatorSet);\n    }\n\n    function isValidatorCandidate(address who) public view returns (bool) {\n        for (uint256 i = 0; i < validatorCandidateSet.length; i++) {\n            if (validatorCandidateSet[i] == who) {\n                return true;\n            }\n        }\n\n        return false;\n    }\n\n    function isValidatorActivated(address validator) public view returns (bool) {\n        for (uint256 i = 0; i < validatorSet.length; i++) {\n            if (validatorSet[i] == validator) {\n                return true;\n            }\n        }\n\n        return false;\n    }\n\n    function isJailed(address validator) public view returns (bool) {\n        if (validatorInfo[validator].status == Status.Jailed) {\n            return true;\n        }\n        return false;\n    }\n\n    function getActivatedValidators() public view returns (address[] memory) {\n        return validatorSet;\n    }\n\n    function validateDescription(\n        string memory moniker,\n        string memory identity,\n        string memory website,\n        string memory email,\n        string memory details\n    ) public pure returns (bool) {\n        require(bytes(moniker).length <= 70, \"invalid moniker length\");\n        require(bytes(identity).length <= 3000, \"invalid identity length\");\n        require(bytes(website).length <= 256, \"invalid website length\");\n        require(bytes(email).length <= 256, \"invalid email length\");\n        require(bytes(details).length <= 1024, \"invalid details length\");\n\n        return true;\n    }\n}\n",
  "sourcePath": "/Users/vino/projects/coinexstartchain/csc_genesis_contract/contracts/Validators.sol",
  "compiler": {
    "name": "solc",
    "version": "0.6.12+commit.27d51765.Emscripten.clang"
  },
  "schemaVersion": "3.3.2",
  "updatedAt": "2021-04-26T09:20:55.562Z",
  "devdoc": {
    "kind": "dev",
    "methods": {},
    "version": 1
  },
  "userdoc": {
    "kind": "user",
    "methods": {},
    "version": 1
  }
}