{
  "contractName": "ValidatorSet",
  "abi": [
    {
      "anonymous": false,
      "inputs": [
        {
          "indexed": false,
          "internalType": "address[]",
          "name": "validators",
          "type": "address[]"
        },
        {
          "indexed": false,
          "internalType": "uint256[]",
          "name": "rewards",
          "type": "uint256[]"
        },
        {
          "indexed": false,
          "internalType": "uint256",
          "name": "rewardCount",
          "type": "uint256"
        }
      ],
      "name": "RewardDistributed",
      "type": "event"
    },
    {
      "anonymous": false,
      "inputs": [
        {
          "indexed": true,
          "internalType": "address",
          "name": "staker",
          "type": "address"
        },
        {
          "indexed": true,
          "internalType": "address",
          "name": "validator",
          "type": "address"
        },
        {
          "indexed": false,
          "internalType": "uint256",
          "name": "amount",
          "type": "uint256"
        }
      ],
      "name": "Staking",
      "type": "event"
    },
    {
      "anonymous": false,
      "inputs": [
        {
          "indexed": true,
          "internalType": "address",
          "name": "staker",
          "type": "address"
        },
        {
          "indexed": true,
          "internalType": "address",
          "name": "validator",
          "type": "address"
        },
        {
          "indexed": false,
          "internalType": "uint256",
          "name": "amount",
          "type": "uint256"
        }
      ],
      "name": "Unstake",
      "type": "event"
    },
    {
      "anonymous": false,
      "inputs": [
        {
          "indexed": true,
          "internalType": "address",
          "name": "validator",
          "type": "address"
        }
      ],
      "name": "ValidatorActivated",
      "type": "event"
    },
    {
      "anonymous": false,
      "inputs": [
        {
          "indexed": true,
          "internalType": "address",
          "name": "validator",
          "type": "address"
        },
        {
          "indexed": true,
          "internalType": "address",
          "name": "rewardAddr",
          "type": "address"
        }
      ],
      "name": "ValidatorCreated",
      "type": "event"
    },
    {
      "anonymous": false,
      "inputs": [
        {
          "indexed": true,
          "internalType": "address",
          "name": "validator",
          "type": "address"
        }
      ],
      "name": "ValidatorDeactivated",
      "type": "event"
    },
    {
      "anonymous": false,
      "inputs": [
        {
          "indexed": true,
          "internalType": "address",
          "name": "validator",
          "type": "address"
        }
      ],
      "name": "ValidatorJailed",
      "type": "event"
    },
    {
      "anonymous": false,
      "inputs": [
        {
          "indexed": false,
          "internalType": "address[]",
          "name": "validators",
          "type": "address[]"
        }
      ],
      "name": "ValidatorSetUpdated",
      "type": "event"
    },
    {
      "anonymous": false,
      "inputs": [
        {
          "indexed": false,
          "internalType": "address",
          "name": "validator",
          "type": "address"
        },
        {
          "indexed": false,
          "internalType": "uint256",
          "name": "amount",
          "type": "uint256"
        }
      ],
      "name": "ValidatorSlash",
      "type": "event"
    },
    {
      "anonymous": false,
      "inputs": [
        {
          "indexed": true,
          "internalType": "address",
          "name": "validator",
          "type": "address"
        }
      ],
      "name": "ValidatorUnjailed",
      "type": "event"
    },
    {
      "anonymous": false,
      "inputs": [
        {
          "indexed": true,
          "internalType": "address",
          "name": "validator",
          "type": "address"
        },
        {
          "indexed": true,
          "internalType": "address",
          "name": "rewardAddr",
          "type": "address"
        }
      ],
      "name": "ValidatorUpdated",
      "type": "event"
    },
    {
      "anonymous": false,
      "inputs": [
        {
          "indexed": true,
          "internalType": "address",
          "name": "validator",
          "type": "address"
        },
        {
          "indexed": true,
          "internalType": "address",
          "name": "rewardAddress",
          "type": "address"
        },
        {
          "indexed": false,
          "internalType": "uint256",
          "name": "amount",
          "type": "uint256"
        }
      ],
      "name": "WithdrawRewards",
      "type": "event"
    },
    {
      "anonymous": false,
      "inputs": [
        {
          "indexed": true,
          "internalType": "address",
          "name": "staker",
          "type": "address"
        },
        {
          "indexed": true,
          "internalType": "address",
          "name": "validator",
          "type": "address"
        },
        {
          "indexed": false,
          "internalType": "uint256",
          "name": "amount",
          "type": "uint256"
        }
      ],
      "name": "WithdrawStaking",
      "type": "event"
    },
    {
      "inputs": [],
      "name": "MaxValidatorNum",
      "outputs": [
        {
          "internalType": "uint16",
          "name": "",
          "type": "uint16"
        }
      ],
      "stateMutability": "view",
      "type": "function"
    },
    {
      "inputs": [],
      "name": "MinimalStakingCoin",
      "outputs": [
        {
          "internalType": "uint256",
          "name": "",
          "type": "uint256"
        }
      ],
      "stateMutability": "view",
      "type": "function"
    },
    {
      "inputs": [],
      "name": "SlashContractAddr",
      "outputs": [
        {
          "internalType": "address",
          "name": "",
          "type": "address"
        }
      ],
      "stateMutability": "view",
      "type": "function"
    },
    {
      "inputs": [],
      "name": "StakingLockPeriod",
      "outputs": [
        {
          "internalType": "uint64",
          "name": "",
          "type": "uint64"
        }
      ],
      "stateMutability": "view",
      "type": "function"
    },
    {
      "inputs": [],
      "name": "ValidatorContractAddr",
      "outputs": [
        {
          "internalType": "address",
          "name": "",
          "type": "address"
        }
      ],
      "stateMutability": "view",
      "type": "function"
    },
    {
      "inputs": [],
      "name": "ValidatorSlashAmount",
      "outputs": [
        {
          "internalType": "uint256",
          "name": "",
          "type": "uint256"
        }
      ],
      "stateMutability": "view",
      "type": "function"
    },
    {
      "inputs": [],
      "name": "WithdrawRewardPeriod",
      "outputs": [
        {
          "internalType": "uint64",
          "name": "",
          "type": "uint64"
        }
      ],
      "stateMutability": "view",
      "type": "function"
    },
    {
      "inputs": [],
      "name": "initialized",
      "outputs": [
        {
          "internalType": "bool",
          "name": "",
          "type": "bool"
        }
      ],
      "stateMutability": "view",
      "type": "function"
    },
    {
      "inputs": [],
      "name": "totalSlash",
      "outputs": [
        {
          "internalType": "uint256",
          "name": "",
          "type": "uint256"
        }
      ],
      "stateMutability": "view",
      "type": "function"
    },
    {
      "inputs": [],
      "name": "totalStaking",
      "outputs": [
        {
          "internalType": "uint256",
          "name": "",
          "type": "uint256"
        }
      ],
      "stateMutability": "view",
      "type": "function"
    },
    {
      "inputs": [
        {
          "internalType": "uint256",
          "name": "",
          "type": "uint256"
        }
      ],
      "name": "validatorCandidateSet",
      "outputs": [
        {
          "internalType": "address",
          "name": "",
          "type": "address"
        }
      ],
      "stateMutability": "view",
      "type": "function"
    },
    {
      "inputs": [
        {
          "internalType": "uint256",
          "name": "",
          "type": "uint256"
        }
      ],
      "name": "validatorSet",
      "outputs": [
        {
          "internalType": "address",
          "name": "",
          "type": "address"
        }
      ],
      "stateMutability": "view",
      "type": "function"
    },
    {
      "inputs": [
        {
          "internalType": "address[]",
          "name": "validators",
          "type": "address[]"
        }
      ],
      "name": "initialize",
      "outputs": [],
      "stateMutability": "nonpayable",
      "type": "function"
    },
    {
      "inputs": [
        {
          "internalType": "address payable",
          "name": "rewardAddr",
          "type": "address"
        },
        {
          "internalType": "string",
          "name": "moniker",
          "type": "string"
        },
        {
          "internalType": "string",
          "name": "identity",
          "type": "string"
        },
        {
          "internalType": "string",
          "name": "website",
          "type": "string"
        },
        {
          "internalType": "string",
          "name": "email",
          "type": "string"
        },
        {
          "internalType": "string",
          "name": "details",
          "type": "string"
        }
      ],
      "name": "createValidator",
      "outputs": [
        {
          "internalType": "bool",
          "name": "",
          "type": "bool"
        }
      ],
      "stateMutability": "nonpayable",
      "type": "function"
    },
    {
      "inputs": [
        {
          "internalType": "address payable",
          "name": "rewardAddr",
          "type": "address"
        },
        {
          "internalType": "string",
          "name": "moniker",
          "type": "string"
        },
        {
          "internalType": "string",
          "name": "identity",
          "type": "string"
        },
        {
          "internalType": "string",
          "name": "website",
          "type": "string"
        },
        {
          "internalType": "string",
          "name": "email",
          "type": "string"
        },
        {
          "internalType": "string",
          "name": "details",
          "type": "string"
        }
      ],
      "name": "editValidator",
      "outputs": [
        {
          "internalType": "bool",
          "name": "",
          "type": "bool"
        }
      ],
      "stateMutability": "nonpayable",
      "type": "function"
    },
    {
      "inputs": [
        {
          "internalType": "address",
          "name": "validator",
          "type": "address"
        }
      ],
      "name": "stake",
      "outputs": [
        {
          "internalType": "bool",
          "name": "",
          "type": "bool"
        }
      ],
      "stateMutability": "payable",
      "type": "function"
    },
    {
      "inputs": [
        {
          "internalType": "address",
          "name": "validator",
          "type": "address"
        }
      ],
      "name": "unstake",
      "outputs": [
        {
          "internalType": "bool",
          "name": "",
          "type": "bool"
        }
      ],
      "stateMutability": "nonpayable",
      "type": "function"
    },
    {
      "inputs": [
        {
          "internalType": "address",
          "name": "validator",
          "type": "address"
        }
      ],
      "name": "unjailed",
      "outputs": [
        {
          "internalType": "bool",
          "name": "",
          "type": "bool"
        }
      ],
      "stateMutability": "nonpayable",
      "type": "function"
    },
    {
      "inputs": [
        {
          "internalType": "address",
          "name": "validator",
          "type": "address"
        }
      ],
      "name": "withdrawStaking",
      "outputs": [
        {
          "internalType": "bool",
          "name": "",
          "type": "bool"
        }
      ],
      "stateMutability": "nonpayable",
      "type": "function"
    },
    {
      "inputs": [
        {
          "internalType": "address",
          "name": "validator",
          "type": "address"
        }
      ],
      "name": "withdrawRewards",
      "outputs": [
        {
          "internalType": "bool",
          "name": "",
          "type": "bool"
        }
      ],
      "stateMutability": "nonpayable",
      "type": "function"
    },
    {
      "inputs": [],
      "name": "distributeBlockReward",
      "outputs": [],
      "stateMutability": "payable",
      "type": "function"
    },
    {
      "inputs": [
        {
          "internalType": "address",
          "name": "validator",
          "type": "address"
        }
      ],
      "name": "slashValidator",
      "outputs": [],
      "stateMutability": "nonpayable",
      "type": "function"
    },
    {
      "inputs": [
        {
          "internalType": "address",
          "name": "validator",
          "type": "address"
        }
      ],
      "name": "getValidatorDescription",
      "outputs": [
        {
          "internalType": "string",
          "name": "",
          "type": "string"
        },
        {
          "internalType": "string",
          "name": "",
          "type": "string"
        },
        {
          "internalType": "string",
          "name": "",
          "type": "string"
        },
        {
          "internalType": "string",
          "name": "",
          "type": "string"
        },
        {
          "internalType": "string",
          "name": "",
          "type": "string"
        }
      ],
      "stateMutability": "view",
      "type": "function"
    },
    {
      "inputs": [
        {
          "internalType": "address",
          "name": "val",
          "type": "address"
        }
      ],
      "name": "getValidatorInfo",
      "outputs": [
        {
          "internalType": "address payable",
          "name": "",
          "type": "address"
        },
        {
          "internalType": "enum ValidatorSet.Status",
          "name": "",
          "type": "uint8"
        },
        {
          "internalType": "uint256",
          "name": "",
          "type": "uint256"
        },
        {
          "internalType": "uint256",
          "name": "",
          "type": "uint256"
        },
        {
          "internalType": "uint256",
          "name": "",
          "type": "uint256"
        },
        {
          "internalType": "uint256",
          "name": "",
          "type": "uint256"
        },
        {
          "internalType": "address[]",
          "name": "",
          "type": "address[]"
        }
      ],
      "stateMutability": "view",
      "type": "function"
    },
    {
      "inputs": [
        {
          "internalType": "address",
          "name": "staker",
          "type": "address"
        },
        {
          "internalType": "address",
          "name": "validator",
          "type": "address"
        }
      ],
      "name": "getStakingInfo",
      "outputs": [
        {
          "internalType": "uint256",
          "name": "",
          "type": "uint256"
        },
        {
          "internalType": "uint256",
          "name": "",
          "type": "uint256"
        },
        {
          "internalType": "uint256",
          "name": "",
          "type": "uint256"
        }
      ],
      "stateMutability": "view",
      "type": "function"
    },
    {
      "inputs": [],
      "name": "getValidatorCandidate",
      "outputs": [
        {
          "internalType": "address[]",
          "name": "",
          "type": "address[]"
        },
        {
          "internalType": "uint256[]",
          "name": "",
          "type": "uint256[]"
        },
        {
          "internalType": "uint256",
          "name": "",
          "type": "uint256"
        }
      ],
      "stateMutability": "view",
      "type": "function"
    },
    {
      "inputs": [
        {
          "internalType": "address[]",
          "name": "newValidators",
          "type": "address[]"
        },
        {
          "internalType": "uint256",
          "name": "epoch",
          "type": "uint256"
        }
      ],
      "name": "updateActivatedValidators",
      "outputs": [],
      "stateMutability": "nonpayable",
      "type": "function"
    },
    {
      "inputs": [
        {
          "internalType": "address",
          "name": "who",
          "type": "address"
        }
      ],
      "name": "isValidatorCandidate",
      "outputs": [
        {
          "internalType": "bool",
          "name": "",
          "type": "bool"
        }
      ],
      "stateMutability": "view",
      "type": "function"
    },
    {
      "inputs": [
        {
          "internalType": "address",
          "name": "validator",
          "type": "address"
        }
      ],
      "name": "isValidatorActivated",
      "outputs": [
        {
          "internalType": "bool",
          "name": "",
          "type": "bool"
        }
      ],
      "stateMutability": "view",
      "type": "function"
    },
    {
      "inputs": [
        {
          "internalType": "address",
          "name": "validator",
          "type": "address"
        }
      ],
      "name": "isJailed",
      "outputs": [
        {
          "internalType": "bool",
          "name": "",
          "type": "bool"
        }
      ],
      "stateMutability": "view",
      "type": "function"
    },
    {
      "inputs": [],
      "name": "getActivatedValidators",
      "outputs": [
        {
          "internalType": "address[]",
          "name": "",
          "type": "address[]"
        }
      ],
      "stateMutability": "view",
      "type": "function"
    },
    {
      "inputs": [
        {
          "internalType": "string",
          "name": "moniker",
          "type": "string"
        },
        {
          "internalType": "string",
          "name": "identity",
          "type": "string"
        },
        {
          "internalType": "string",
          "name": "website",
          "type": "string"
        },
        {
          "internalType": "string",
          "name": "email",
          "type": "string"
        },
        {
          "internalType": "string",
          "name": "details",
          "type": "string"
        }
      ],
      "name": "validateDescription",
      "outputs": [
        {
          "internalType": "bool",
          "name": "",
          "type": "bool"
        }
      ],
      "stateMutability": "pure",
      "type": "function"
    }
  ],
  "bytecode": "0x608060405234801561001057600080fd5b50614731806100206000396000f3fe6080604052600436106101e35760003560e01c80638441126011610102578063c9ea56a811610095578063db78dd2811610064578063db78dd28146110a9578063db7d5ace146110db578063e64808f3146110f0578063f2888dbb1461111a576101e3565b8063c9ea56a814610dfa578063d59070c214610fc5578063d6c0edad14610ff1578063dae4b3e614610ff9576101e3565b8063a43569b3116100d1578063a43569b314610878578063b6c8851914610abb578063b7dc5c4014610d80578063be64569214610de5576101e3565b8063844112601461053a5780638a11d7c914610705578063a0c3f2d2146107ca578063a224cee7146107fd576101e3565b806338a92c761161017a5780634711f586116101495780634711f5861461046457806360e4e6891461049957806367239a04146104cc5780637f4f95fa146104e1576101e3565b806338a92c76146103215780633a061bd31461036757806342d866931461037c578063445db4a1146103af576101e3565b80631c8b8a3d116101b65780631c8b8a3d14610280578063222d3b05146102b357806326476204146102e65780632bccecfd1461030c576101e3565b806314bfb527146101e8578063158ef93e1461022f578063165defa4146102445780631ab2ae7c1461026b575b600080fd5b3480156101f457600080fd5b5061021b6004803603602081101561020b57600080fd5b50356001600160a01b031661114d565b604080519115158252519081900360200190f35b34801561023b57600080fd5b5061021b611196565b34801561025057600080fd5b5061025961119f565b60408051918252519081900360200190f35b34801561027757600080fd5b506102596111a5565b34801561028c57600080fd5b5061021b600480360360208110156102a357600080fd5b50356001600160a01b03166111ab565b3480156102bf57600080fd5b5061021b600480360360208110156102d657600080fd5b50356001600160a01b0316611206565b61021b600480360360208110156102fc57600080fd5b50356001600160a01b0316611423565b34801561031857600080fd5b50610259611771565b34801561032d57600080fd5b5061034b6004803603602081101561034457600080fd5b503561177e565b604080516001600160a01b039092168252519081900360200190f35b34801561037357600080fd5b5061034b6117a5565b34801561038857600080fd5b5061021b6004803603602081101561039f57600080fd5b50356001600160a01b03166117ab565b3480156103bb57600080fd5b506103c4611a09565b604051808060200180602001848152602001838103835286818151815260200191508051906020019060200280838360005b8381101561040e5781810151838201526020016103f6565b50505050905001838103825285818151815260200191508051906020019060200280838360005b8381101561044d578181015183820152602001610435565b505050509050019550505050505060405180910390f35b34801561047057600080fd5b506104976004803603602081101561048757600080fd5b50356001600160a01b0316611bca565b005b3480156104a557600080fd5b5061021b600480360360208110156104bc57600080fd5b50356001600160a01b0316611d83565b3480156104d857600080fd5b5061034b611fd8565b3480156104ed57600080fd5b5061051c6004803603604081101561050457600080fd5b506001600160a01b0381358116916020013516611fde565b60408051938452602084019290925282820152519081900360600190f35b34801561054657600080fd5b5061021b600480360360c081101561055d57600080fd5b6001600160a01b038235169190810190604081016020820135600160201b81111561058757600080fd5b82018360208201111561059957600080fd5b803590602001918460018302840111600160201b831117156105ba57600080fd5b919390929091602081019035600160201b8111156105d757600080fd5b8201836020820111156105e957600080fd5b803590602001918460018302840111600160201b8311171561060a57600080fd5b919390929091602081019035600160201b81111561062757600080fd5b82018360208201111561063957600080fd5b803590602001918460018302840111600160201b8311171561065a57600080fd5b919390929091602081019035600160201b81111561067757600080fd5b82018360208201111561068957600080fd5b803590602001918460018302840111600160201b831117156106aa57600080fd5b919390929091602081019035600160201b8111156106c757600080fd5b8201836020820111156106d957600080fd5b803590602001918460018302840111600160201b831117156106fa57600080fd5b50909250905061201b565b34801561071157600080fd5b506107386004803603602081101561072857600080fd5b50356001600160a01b03166120ca565b60405180886001600160a01b0316815260200187600481111561075757fe5b815260200186815260200185815260200184815260200183815260200180602001828103825283818151815260200191508051906020019060200280838360005b838110156107b0578181015183820152602001610798565b505050509050019850505050505050505060405180910390f35b3480156107d657600080fd5b5061021b600480360360208110156107ed57600080fd5b50356001600160a01b0316612510565b34801561080957600080fd5b506104976004803603602081101561082057600080fd5b810190602081018135600160201b81111561083a57600080fd5b82018360208201111561084c57600080fd5b803590602001918460208302840111600160201b8311171561086d57600080fd5b509092509050612562565b34801561088457600080fd5b506108ab6004803603602081101561089b57600080fd5b50356001600160a01b03166128bd565b60405180806020018060200180602001806020018060200186810386528b818151815260200191508051906020019080838360005b838110156108f85781810151838201526020016108e0565b50505050905090810190601f1680156109255780820380516001836020036101000a031916815260200191505b5086810385528a5181528a516020918201918c019080838360005b83811015610958578181015183820152602001610940565b50505050905090810190601f1680156109855780820380516001836020036101000a031916815260200191505b5086810384528951815289516020918201918b019080838360005b838110156109b85781810151838201526020016109a0565b50505050905090810190601f1680156109e55780820380516001836020036101000a031916815260200191505b5086810383528851815288516020918201918a019080838360005b83811015610a18578181015183820152602001610a00565b50505050905090810190601f168015610a455780820380516001836020036101000a031916815260200191505b50868103825287518152875160209182019189019080838360005b83811015610a78578181015183820152602001610a60565b50505050905090810190601f168015610aa55780820380516001836020036101000a031916815260200191505b509a505050505050505050505060405180910390f35b348015610ac757600080fd5b5061021b600480360360a0811015610ade57600080fd5b810190602081018135600160201b811115610af857600080fd5b820183602082011115610b0a57600080fd5b803590602001918460018302840111600160201b83111715610b2b57600080fd5b91908080601f0160208091040260200160405190810160405280939291908181526020018383808284376000920191909152509295949360208101935035915050600160201b811115610b7d57600080fd5b820183602082011115610b8f57600080fd5b803590602001918460018302840111600160201b83111715610bb057600080fd5b91908080601f0160208091040260200160405190810160405280939291908181526020018383808284376000920191909152509295949360208101935035915050600160201b811115610c0257600080fd5b820183602082011115610c1457600080fd5b803590602001918460018302840111600160201b83111715610c3557600080fd5b91908080601f0160208091040260200160405190810160405280939291908181526020018383808284376000920191909152509295949360208101935035915050600160201b811115610c8757600080fd5b820183602082011115610c9957600080fd5b803590602001918460018302840111600160201b83111715610cba57600080fd5b91908080601f0160208091040260200160405190810160405280939291908181526020018383808284376000920191909152509295949360208101935035915050600160201b811115610d0c57600080fd5b820183602082011115610d1e57600080fd5b803590602001918460018302840111600160201b83111715610d3f57600080fd5b91908080601f016020809104026020016040519081016040528093929190818152602001838380828437600092019190915250929550612cf1945050505050565b348015610d8c57600080fd5b50610d95612e96565b60408051602080825283518183015283519192839290830191858101910280838360005b83811015610dd1578181015183820152602001610db9565b505050509050019250505060405180910390f35b348015610df157600080fd5b50610259612ef8565b348015610e0657600080fd5b5061021b600480360360c0811015610e1d57600080fd5b6001600160a01b038235169190810190604081016020820135600160201b811115610e4757600080fd5b820183602082011115610e5957600080fd5b803590602001918460018302840111600160201b83111715610e7a57600080fd5b919390929091602081019035600160201b811115610e9757600080fd5b820183602082011115610ea957600080fd5b803590602001918460018302840111600160201b83111715610eca57600080fd5b919390929091602081019035600160201b811115610ee757600080fd5b820183602082011115610ef957600080fd5b803590602001918460018302840111600160201b83111715610f1a57600080fd5b919390929091602081019035600160201b811115610f3757600080fd5b820183602082011115610f4957600080fd5b803590602001918460018302840111600160201b83111715610f6a57600080fd5b919390929091602081019035600160201b811115610f8757600080fd5b820183602082011115610f9957600080fd5b803590602001918460018302840111600160201b83111715610fba57600080fd5b509092509050612f06565b348015610fd157600080fd5b50610fda613025565b6040805161ffff9092168252519081900360200190f35b61049761302a565b34801561100557600080fd5b506104976004803603604081101561101c57600080fd5b810190602081018135600160201b81111561103657600080fd5b82018360208201111561104857600080fd5b803590602001918460208302840111600160201b8311171561106957600080fd5b9190808060200260200160405190810160405280939291908181526020018383602002808284376000920191909152509295505091359250613184915050565b3480156110b557600080fd5b506110be613405565b6040805167ffffffffffffffff9092168252519081900360200190f35b3480156110e757600080fd5b506110be61340c565b3480156110fc57600080fd5b5061034b6004803603602081101561111357600080fd5b5035613412565b34801561112657600080fd5b5061021b6004803603602081101561113d57600080fd5b50356001600160a01b031661341f565b600060046001600160a01b038316600090815260016020526040902054600160a01b900460ff16600481111561117f57fe5b141561118d57506001611191565b5060005b919050565b60005460ff1681565b60055481565b60065481565b6000805b6004548110156111fd57826001600160a01b0316600482815481106111d057fe5b6000918252602090912001546001600160a01b031614156111f5576001915050611191565b6001016111af565b50600092915050565b3360008181526002602090815260408083206001600160a01b0386168452825280832060019092528220549192918390600160a01b900460ff16600481111561124b57fe5b1415611294576040805162461bcd60e51b81526020600482015260136024820152721d985b1a59185d1bdc881b9bdd08195e1a5cdd606a1b604482015290519081900360640190fd5b60018101546112ea576040805162461bcd60e51b815260206004820152601960248201527f596f75206861766520746f20756e7374616b6520666972737400000000000000604482015290519081900360640190fd5b436201518067ffffffffffffffff16826001015401111561133c5760405162461bcd60e51b81526004018080602001828103825260218152602001806145316021913960400191505060405180910390fd5b805461138a576040805162461bcd60e51b8152602060048201526018602482015277596f7520646f6e2774206861766520616e79207374616b6560401b604482015290519081900360640190fd5b80546000808355600183018190556040516001600160a01b0385169183156108fc02918491818181858888f193505050501580156113cc573d6000803e3d6000fd5b50846001600160a01b0316836001600160a01b03167f3ca927248eb3fe77ad85f6de5853a874833484b0985cdb49c8ceaa326162456b836040518082815260200191505060405180910390a3506001949350505050565b6000805460ff16611469576040805162461bcd60e51b81526020600482015260196024820152600080516020614662833981519152604482015290519081900360640190fd5b333460006001600160a01b038516600090815260016020526040902054600160a01b900460ff16600481111561149b57fe5b14156114ee576040805162461bcd60e51b815260206004820152601760248201527f76616c696461746f72206973206e6f742065786973742e000000000000000000604482015290519081900360640190fd5b6001600160a01b03808316600090815260026020908152604080832093881683529290522060010154156115535760405162461bcd60e51b81526004018080602001828103825260228152602001806145976022913960400191505060405180910390fd5b6001600160a01b03841660009081526001602081905260409091209081015469021e19e0c9bab24000009061158890846137da565b10156115db576040805162461bcd60e51b815260206004820152601960248201527f5374616b696e6720616d6f756e74206e6f7420656e6f75676800000000000000604482015290519081900360640190fd5b6001600160a01b0380841660009081526002602090815260408083209389168352929052205461165457600a810180546001600160a01b038086166000818152600260208181526040808420958d1684529481529382200184905560018401855593845292200180546001600160a01b03191690911790555b600181015461166390836137da565b600182015560028154600160a01b900460ff16600481111561168157fe5b141580156116a6575060048154600160a01b900460ff1660048111156116a357fe5b14155b156116bd57805460ff60a01b1916600160a11b1781555b6001600160a01b038084166000908152600260209081526040808320938916835292905220546116ed90836137da565b6001600160a01b038085166000908152600260209081526040808320938a168352929052205560055461172090836137da565b6005556040805183815290516001600160a01b0380881692908616917f795c91e2fef542f2e8bccd08552a8961ecb158d0f47be08f5c44b349993b07a99181900360200190a3506001949350505050565b681b1ae4d6e2ef50000081565b6003818154811061178b57fe5b6000918252602090912001546001600160a01b0316905081565b61100081565b600033816001600160a01b038416600090815260016020526040902054600160a01b900460ff1660048111156117dd57fe5b1415611826576040805162461bcd60e51b815260206004820152601360248201527215985b1a59185d1bdc881b9bdd08195e1a5cdd606a1b604482015290519081900360640190fd5b6001600160a01b038381166000908152600160205260409020548116908216146118815760405162461bcd60e51b815260040180806020018281038252602e8152602001806146ce602e913960400191505060405180910390fd5b6001600160a01b0383166000908152600160205260409020600901544361708090910111156118e15760405162461bcd60e51b815260040180806020018281038252605b8152602001806145da605b913960600191505060405180910390fd5b6001600160a01b0383166000908152600160205260409020600701548061194f576040805162461bcd60e51b815260206004820152601a60248201527f596f7520646f6e2774206861766520616e792070726f66697473000000000000604482015290519081900360640190fd5b6001600160a01b038416600090815260016020526040812060078101919091554360099091015580156119b4576040516001600160a01b0383169082156108fc029083906000818181858888f193505050501580156119b2573d6000803e3d6000fd5b505b816001600160a01b0316846001600160a01b03167fa6572d5d818a6a4960ef939cd39abc0f131db8b0aaba702189dfba3cc596fb61836040518082815260200191505060405180910390a35060019392505050565b6060806000606060038054905067ffffffffffffffff81118015611a2c57600080fd5b50604051908082528060200260200182016040528015611a56578160200160208202803683370190505b5060035490915060609067ffffffffffffffff81118015611a7657600080fd5b50604051908082528060200260200182016040528015611aa0578160200160208202803683370190505b5090506000805b600354811015611bbd5760026001600060038481548110611ac457fe5b60009182526020808320909101546001600160a01b0316835282019290925260400190205460ff600160a01b909104166004811115611aff57fe5b1415611bb55760038181548110611b1257fe5b9060005260206000200160009054906101000a90046001600160a01b0316848381518110611b3c57fe5b60200260200101906001600160a01b031690816001600160a01b0316815250506001600060038381548110611b6d57fe5b60009182526020808320909101546001600160a01b031683528201929092526040019020600101548351849084908110611ba357fe5b60209081029190910101526001909101905b600101611aa7565b5091945092509050909192565b3361100114611c0a5760405162461bcd60e51b81526004018080602001828103825260298152602001806146826029913960400191505060405180910390fd5b611c13816111ab565b611c1c57611d80565b6001600160a01b0381166000908152600160208190526040909120805460ff60a01b1916600160a21b17815590810154611c558361383d565b6000805b600a840154811015611cf95760006002600086600a018481548110611c7a57fe5b60009182526020808320909101546001600160a01b0390811684528382019490945260409283018220938a1682529290925281208054909250611cd2908690611ccc90681b1ae4d6e2ef500000613966565b906139bf565b8254909150611ce19082613a01565b8255611ced84826137da565b93505050600101611c59565b506001830154611d099082613a01565b60018401556008830154611d1d90826137da565b6008840155611d2c81806137da565b9050611d388185613a43565b604080516001600160a01b03861681526020810183905281517fdd028864d7fcafbeb3bfb9802b23966c52cef5d2e4066d3c76ca2e8e4c19ebd0929181900390910190a15050505b50565b6000805460ff16611dc9576040805162461bcd60e51b81526020600482015260196024820152600080516020614662833981519152604482015290519081900360640190fd5b60046001600160a01b038316600090815260016020526040902054600160a01b900460ff166004811115611df957fe5b14611e4b576040805162461bcd60e51b815260206004820152601760248201527f76616c696461746f722069736e2774206a61696c65642e000000000000000000604482015290519081900360640190fd5b6007546040805163169b262360e01b81526001600160a01b0385811660048301529151919092169163169b26239160248083019260209291908290030181600087803b158015611e9a57600080fd5b505af1158015611eae573d6000803e3d6000fd5b505050506040513d6020811015611ec457600080fd5b5051611f17576040805162461bcd60e51b815260206004820152601960248201527f636c65616e20736c61736820726577617264206661696c656400000000000000604482015290519081900360640190fd5b6001600160a01b0382166000908152600160208190526040909120015469021e19e0c9bab240000011611f72576001600160a01b0382166000908152600160205260409020805460ff60a01b1916600160a11b179055611f9c565b6001600160a01b0382166000908152600160205260409020805460ff60a01b1916600360a01b1790555b6040516001600160a01b038316907f9390b453426557da5ebdc31f19a37753ca04addf656d32f35232211bb2af3f1990600090a2506001919050565b61100181565b6001600160a01b03918216600090815260026020818152604080842094909516835292909252919091208054600182015491909201549192909190565b6000805460ff16612061576040805162461bcd60e51b81526020600482015260196024820152600080516020614662833981519152604482015290519081900360640190fd5b33612076818e8e8e8e8e8e8e8e8e8e8e613f90565b508c6001600160a01b0316816001600160a01b03167f22d10a5eb7a0f38ef7d1b508532e80fc470342c7ffafcc24fc98b5d20b2cc0ea60405160405180910390a35060019c9b505050505050505050505050565b60008060008060008060606120dd6143a2565b6001600160a01b038981166000908152600160209081526040918290208251610100810190935280549384168352919290830190600160a01b900460ff16600481111561212657fe5b600481111561213157fe5b815260200160018201548152602001600282016040518060a0016040529081600082018054600181600116156101000203166002900480601f0160208091040260200160405190810160405280929190818152602001828054600181600116156101000203166002900480156121e85780601f106121bd576101008083540402835291602001916121e8565b820191906000526020600020905b8154815290600101906020018083116121cb57829003601f168201915b50505050508152602001600182018054600181600116156101000203166002900480601f01602080910402602001604051908101604052809291908181526020018280546001816001161561010002031660029004801561228a5780601f1061225f5761010080835404028352916020019161228a565b820191906000526020600020905b81548152906001019060200180831161226d57829003601f168201915b5050509183525050600282810180546040805160206001841615610100026000190190931694909404601f8101839004830285018301909152808452938101939083018282801561231c5780601f106122f15761010080835404028352916020019161231c565b820191906000526020600020905b8154815290600101906020018083116122ff57829003601f168201915b505050918352505060038201805460408051602060026001851615610100026000190190941693909304601f81018490048402820184019092528181529382019392918301828280156123b05780601f10612385576101008083540402835291602001916123b0565b820191906000526020600020905b81548152906001019060200180831161239357829003601f168201915b505050918352505060048201805460408051602060026001851615610100026000190190941693909304601f81018490048402820184019092528181529382019392918301828280156124445780601f1061241957610100808354040283529160200191612444565b820191906000526020600020905b81548152906001019060200180831161242757829003601f168201915b5050505050815250508152602001600782015481526020016008820154815260200160098201548152602001600a82018054806020026020016040519081016040528092919081815260200182805480156124c857602002820191906000526020600020905b81546001600160a01b031681526001909101906020018083116124aa575b505050505081525050905080600001518160200151826040015183608001518460a001518560c001518660e00151975097509750975097509750975050919395979092949650565b6000805b6003548110156111fd57826001600160a01b03166003828154811061253557fe5b6000918252602090912001546001600160a01b0316141561255a576001915050611191565b600101612514565b60005460ff16156125ba576040805162461bcd60e51b815260206004820181905260248201527f74686520636f6e747261637420616c726561647920696e697469616c697a6564604482015290519081900360640190fd5b600780546001600160a01b03191661100117905560005b818110156128ab5760008383838181106125e757fe5b905060200201356001600160a01b03166001600160a01b03161415612653576040805162461bcd60e51b815260206004820152601960248201527f496e76616c69642076616c696461746f72206164647265737300000000000000604482015290519081900360640190fd5b61267783838381811061266257fe5b905060200201356001600160a01b0316612510565b6126c657600383838381811061268957fe5b835460018101855560009485526020948590200180546001600160a01b0319166001600160a01b0395909202939093013593909316929092179055505b6126ea8383838181106126d557fe5b905060200201356001600160a01b03166111ab565b6127395760048383838181106126fc57fe5b835460018101855560009485526020948590200180546001600160a01b0319166001600160a01b0395909202939093013593909316929092179055505b600060018185858581811061274a57fe5b6001600160a01b03602091820293909301358316845283019390935260409091016000205416919091141590506127ff5782828281811061278757fe5b905060200201356001600160a01b0316600160008585858181106127a757fe5b905060200201356001600160a01b03166001600160a01b03166001600160a01b0316815260200190815260200160002060000160006101000a8154816001600160a01b0302191690836001600160a01b031602179055505b60006001600085858581811061281157fe5b602090810292909201356001600160a01b031683525081019190915260400160002054600160a01b900460ff16600481111561284957fe5b14156128a35760026001600085858581811061286157fe5b602090810292909201356001600160a01b0316835250810191909152604001600020805460ff60a01b1916600160a01b83600481111561289d57fe5b02179055505b6001016125d1565b50506000805460ff1916600117905550565b60608060608060606128cd6143a2565b6001600160a01b038781166000908152600160209081526040918290208251610100810190935280549384168352919290830190600160a01b900460ff16600481111561291657fe5b600481111561292157fe5b815260200160018201548152602001600282016040518060a0016040529081600082018054600181600116156101000203166002900480601f0160208091040260200160405190810160405280929190818152602001828054600181600116156101000203166002900480156129d85780601f106129ad576101008083540402835291602001916129d8565b820191906000526020600020905b8154815290600101906020018083116129bb57829003601f168201915b50505050508152602001600182018054600181600116156101000203166002900480601f016020809104026020016040519081016040528092919081815260200182805460018160011615610100020316600290048015612a7a5780601f10612a4f57610100808354040283529160200191612a7a565b820191906000526020600020905b815481529060010190602001808311612a5d57829003601f168201915b5050509183525050600282810180546040805160206001841615610100026000190190931694909404601f81018390048302850183019091528084529381019390830182828015612b0c5780601f10612ae157610100808354040283529160200191612b0c565b820191906000526020600020905b815481529060010190602001808311612aef57829003601f168201915b505050918352505060038201805460408051602060026001851615610100026000190190941693909304601f8101849004840282018401909252818152938201939291830182828015612ba05780601f10612b7557610100808354040283529160200191612ba0565b820191906000526020600020905b815481529060010190602001808311612b8357829003601f168201915b505050918352505060048201805460408051602060026001851615610100026000190190941693909304601f8101849004840282018401909252818152938201939291830182828015612c345780601f10612c0957610100808354040283529160200191612c34565b820191906000526020600020905b815481529060010190602001808311612c1757829003601f168201915b5050505050815250508152602001600782015481526020016008820154815260200160098201548152602001600a8201805480602002602001604051908101604052809291908181526020018280548015612cb857602002820191906000526020600020905b81546001600160a01b03168152600190910190602001808311612c9a575b5050509190925250505060609081015180516020820151604083015193830151608090930151919b909a50929850909650945092505050565b6000604686511115612d43576040805162461bcd60e51b8152602060048201526016602482015275092dcecc2d8d2c840dadedcd2d6cae440d8cadccee8d60531b604482015290519081900360640190fd5b610bb885511115612d9b576040805162461bcd60e51b815260206004820152601760248201527f496e76616c6964206964656e74697479206c656e677468000000000000000000604482015290519081900360640190fd5b608c84511115612deb576040805162461bcd60e51b8152602060048201526016602482015275092dcecc2d8d2c840eecac4e6d2e8ca40d8cadccee8d60531b604482015290519081900360640190fd5b608c83511115612e39576040805162461bcd60e51b8152602060048201526014602482015273092dcecc2d8d2c840cadac2d2d840d8cadccee8d60631b604482015290519081900360640190fd5b61011882511115612e8a576040805162461bcd60e51b8152602060048201526016602482015275092dcecc2d8d2c840c8cae8c2d2d8e640d8cadccee8d60531b604482015290519081900360640190fd5b50600195945050505050565b60606004805480602002602001604051908101604052809291908181526020018280548015612eee57602002820191906000526020600020905b81546001600160a01b03168152600190910190602001808311612ed0575b5050505050905090565b69021e19e0c9bab240000081565b6000805460ff16612f4c576040805162461bcd60e51b81526020600482015260196024820152600080516020614662833981519152604482015290519081900360640190fd5b33600081815260016020526040812054600160a01b900460ff166004811115612f7157fe5b1415612fbd576040805162461bcd60e51b81526020600482015260166024820152753b30b634b230ba37b91034b9b713ba1032bc34b9ba1760511b604482015290519081900360640190fd5b612fd1818e8e8e8e8e8e8e8e8e8e8e613f90565b508c6001600160a01b0316816001600160a01b03167fcfac5dc75b8d9a7e074162f59d9adcd33da59f0fe8dfb21580db298fc0fdad0d60405160405180910390a35060019c9b505050505050505050505050565b606581565b3341146130685760405162461bcd60e51b815260040180806020018281038252602d815260200180614635602d913960400191505060405180910390fd5b43600090815260086020908152604080832083805290915290205460ff16156130d8576040805162461bcd60e51b815260206004820152601960248201527f426c6f636b20697320616c726561647920726577617264656400000000000000604482015290519081900360640190fd5b60005460ff1661311d576040805162461bcd60e51b81526020600482015260196024820152600080516020614662833981519152604482015290519081900360640190fd5b4360009081526008602090815260408083208380528252808320805460ff1916600190811790915533808552925282205490913491600160a01b900460ff16600481111561316757fe5b1415613174575050613182565b61317f816000613a43565b50505b565b3341146131c25760405162461bcd60e51b815260040180806020018281038252602d815260200180614635602d913960400191505060405180910390fd5b4360009081526008602090815260408083206001845290915290205460ff1615613233576040805162461bcd60e51b815260206004820152601a60248201527f56616c696461746f727320616c72656164792075706461746564000000000000604482015290519081900360640190fd5b60005460ff16613278576040805162461bcd60e51b81526020600482015260196024820152600080516020614662833981519152604482015290519081900360640190fd5b8080438161328257fe5b06156132c8576040805162461bcd60e51b815260206004820152601060248201526f426c6f636b2065706f6368206f6e6c7960801b604482015290519081900360640190fd5b6000835111613315576040805162461bcd60e51b815260206004820152601460248201527356616c696461746f722073657420656d7074792160601b604482015290519081900360640190fd5b82516065101561336c576040805162461bcd60e51b815260206004820152601e60248201527f56616c696461746f722063616e2774206d6f7265207468616e20313031210000604482015290519081900360640190fd5b825161337f9060049060208601906143ee565b507f6120448f3d4245c1ff708d970c34e1b6484ee22a794ede0bfca2317a97aa8ced6004604051808060200182810382528381815481526020019150805480156133f257602002820191906000526020600020905b81546001600160a01b031681526001909101906020018083116133d4575b50509250505060405180910390a1505050565b6201518081565b61708081565b6004818154811061178b57fe5b6000805460ff16613465576040805162461bcd60e51b81526020600482015260196024820152600080516020614662833981519152604482015290519081900360640190fd5b3360006001600160a01b038416600090815260016020526040902054600160a01b900460ff16600481111561349657fe5b14156134df576040805162461bcd60e51b815260206004820152601360248201527215985b1a59185d1bdc881b9bdd08195e1a5cdd606a1b604482015290519081900360640190fd5b6001600160a01b038082166000908152600260209081526040808320938716835292815282822060019182905292909120825491830154909190156135555760405162461bcd60e51b81526004018080602001828103825260238152602001806146ab6023913960400191505060405180910390fd5b600081116135a5576040805162461bcd60e51b8152602060048201526018602482015277596f7520646f6e2774206861766520616e79207374616b6560401b604482015290519081900360640190fd5b60045460011480156135bb57506135bb866111ab565b80156135df5750600182015469021e19e0c9bab2400000906135dd9083613a01565b105b1561361b5760405162461bcd60e51b81526004018080602001828103825260458152602001806145526045913960600191505060405180910390fd5b600a8201546002840154600019909101146136f857600a82018054600019810190811061364457fe5b9060005260206000200160009054906101000a90046001600160a01b031682600a0184600201548154811061367557fe5b9060005260206000200160006101000a8154816001600160a01b0302191690836001600160a01b0316021790555082600201546002600084600a018660020154815481106136bf57fe5b60009182526020808320909101546001600160a01b0390811684528382019490945260409283018220938b168252929092529020600201555b81600a0180548061370557fe5b600082815260209020810160001990810180546001600160a01b031916905501905560018201546137369082613a01565b6001808401919091554390840155600060028401556005546137589082613a01565b600555600182015469021e19e0c9bab2400000111561378357815460ff60a01b1916600360a01b1782555b856001600160a01b0316846001600160a01b03167f390b1276974b9463e5d66ab10df69b6f3d7b930eb066a0e66df327edd2cc811c836040518082815260200191505060405180910390a350600195945050505050565b600082820183811015613834576040805162461bcd60e51b815260206004820152601b60248201527f536166654d6174683a206164646974696f6e206f766572666c6f770000000000604482015290519081900360640190fd5b90505b92915050565b60005b6004548110801561385357506004546001105b1561317f576004818154811061386557fe5b6000918252602090912001546001600160a01b038381169116141561395e576004546000190181146138f8576004805460001981019081106138a357fe5b600091825260209091200154600480546001600160a01b0390921691839081106138c957fe5b9060005260206000200160006101000a8154816001600160a01b0302191690836001600160a01b031602179055505b600480548061390357fe5b600082815260208120820160001990810180546001600160a01b03191690559091019091556040516001600160a01b038416917f23d934bfe7f1275bc6fd70432159c9cc1c0075d069f89da6a40f43bfe7a94ed391a261317f565b600101613840565b60008261397557506000613837565b8282028284828161398257fe5b04146138345760405162461bcd60e51b81526004018080602001828103825260218152602001806145b96021913960400191505060405180910390fd5b600061383483836040518060400160405280601a81526020017f536166654d6174683a206469766973696f6e206279207a65726f0000000000008152506142a6565b600061383483836040518060400160405280601e81526020017f536166654d6174683a207375627472616374696f6e206f766572666c6f770000815250614348565b81613a4d5761317f565b60008060005b600454811015613b3c5760046001600060048481548110613a7057fe5b60009182526020808320909101546001600160a01b0316835282019290925260400190205460ff600160a01b909104166004811115613aab57fe5b14158015613ae35750836001600160a01b031660048281548110613acb57fe5b6000918252602090912001546001600160a01b031614155b15613b3457613b2b6001600060048481548110613afc57fe5b60009182526020808320909101546001600160a01b0316835282019290925260400190206001015484906137da565b92506001909101905b600101613a53565b5080613b4957505061317f565b6000806000606060048054905067ffffffffffffffff81118015613b6c57600080fd5b50604051908082528060200260200182016040528015613b96578160200160208202803683370190505b5060045490915060609067ffffffffffffffff81118015613bb657600080fd5b50604051908082528060200260200182016040528015613be0578160200160208202803683370190505b50905060008060005b600454811015613e095760046001600060048481548110613c0657fe5b60009182526020808320909101546001600160a01b0316835282019290925260400190205460ff600160a01b909104166004811115613c4157fe5b14158015613c7957508a6001600160a01b031660048281548110613c6157fe5b6000918252602090912001546001600160a01b031614155b15613e015789613c9457613c8d8c8a6139bf565b9150613cde565b613cdb8a611ccc6001600060048681548110613cac57fe5b60009182526020808320909101546001600160a01b031683528201929092526040019020600101548f90613966565b91505b613d21826001600060048581548110613cf357fe5b60009182526020808320909101546001600160a01b03168352820192909252604001902060070154906137da565b6001600060048481548110613d3257fe5b60009182526020808320909101546001600160a01b031683528201929092526040019020600701556004805482908110613d6857fe5b6000918252602090912001546001600160a01b03169650613d8986836137da565b955060048181548110613d9857fe5b9060005260206000200160009054906101000a90046001600160a01b0316858481518110613dc257fe5b60200260200101906001600160a01b031690816001600160a01b03168152505081848481518110613def57fe5b60209081029190910101526001909201915b600101613be9565b50613e148b86613a01565b9650600087118015613e2e57506001600160a01b03861615155b15613ec0576001600160a01b038616600090815260016020526040902060070154613e5990886137da565b6001600160a01b0387166000908152600160205260409020600701558251613ea390889085906000198101908110613e8d57fe5b60200260200101516137da90919063ffffffff16565b83600185510381518110613eb357fe5b6020026020010181815250505b7f762312188fa57bea7344b027aa7fe37066e66085ddedd6dbec6190a107668dd6848484604051808060200180602001848152602001838103835286818151815260200191508051906020019060200280838360005b83811015613f2e578181015183820152602001613f16565b50505050905001838103825285818151815260200191508051906020019060200280838360005b83811015613f6d578181015183820152602001613f55565b505050509050019550505050505060405180910390a15050505050505050505050565b60006001600160a01b038c16613fed576040805162461bcd60e51b815260206004820152601e60248201527f496e76616c696420726563656976652072657761726420616464726573730000604482015290519081900360640190fd5b60006001600160a01b038e16600090815260016020526040902054600160a01b900460ff16600481111561401d57fe5b141561404d576001600160a01b038d166000908152600160205260409020805460ff60a01b1916600160a01b1790555b6001600160a01b038d81166000908152600160205260409020548116908d16146140a0576001600160a01b038d8116600090815260016020526040902080546001600160a01b031916918e169190911790555b6040518060a001604052808c8c8080601f016020809104026020016040519081016040528093929190818152602001838380828437600092019190915250505090825250604080516020601f8d018190048102820181019092528b815291810191908c908c9081908401838280828437600092019190915250505090825250604080516020601f8b0181900481028201810190925289815291810191908a908a9081908401838280828437600092019190915250505090825250604080516020601f890181900481028201810190925287815291810191908890889081908401838280828437600092019190915250505090825250604080516020601f870181900481028201810190925285815291810191908690869081908401838280828437600081840152601f19601f82011690508083019250505050505050815250600160008f6001600160a01b03166001600160a01b031681526020019081526020016000206002016000820151816000019080519060200190614223929190614453565b50602082810151805161423c9260018501920190614453565b5060408201518051614258916002840191602090910190614453565b5060608201518051614274916003840191602090910190614453565b5060808201518051614290916004840191602090910190614453565b5060019f9e505050505050505050505050505050565b600081836143325760405162461bcd60e51b81526004018080602001828103825283818151815260200191508051906020019080838360005b838110156142f75781810151838201526020016142df565b50505050905090810190601f1680156143245780820380516001836020036101000a031916815260200191505b509250505060405180910390fd5b50600083858161433e57fe5b0495945050505050565b6000818484111561439a5760405162461bcd60e51b81526020600482018181528351602484015283519092839260449091019190850190808383600083156142f75781810151838201526020016142df565b505050900390565b604080516101008101909152600080825260208201908152602001600081526020016143cc6144cd565b8152602001600081526020016000815260200160008152602001606081525090565b828054828255906000526020600020908101928215614443579160200282015b8281111561444357825182546001600160a01b0319166001600160a01b0390911617825560209092019160019091019061440e565b5061444f9291506144fc565b5090565b828054600181600116156101000203166002900490600052602060002090601f016020900481019282601f1061449457805160ff19168380011785556144c1565b828001600101855582156144c1579182015b828111156144c15782518255916020019190600101906144a6565b5061444f92915061451b565b6040518060a0016040528060608152602001606081526020016060815260200160608152602001606081525090565b5b8082111561444f5780546001600160a01b03191681556001016144fd565b5b8082111561444f576000815560010161451c56fe596f7572207374616b696e6720686176656e277420756e6c6f636b656420796574596f752063616e277420756e7374616b652c2076616c696461746f72206c6973742077696c6c20626520656d7074792061667465722074686973206f7065726174696f6e2143616e2774207374616b65207768656e20796f752061726520756e7374616b696e67536166654d6174683a206d756c7469706c69636174696f6e206f766572666c6f77596f75206d757374207761697420656e6f75676820626c6f636b7320746f20776974686472617720796f757220726577617264206166746572206c6174657374207769746864726177206f6620746869732076616c696461746f72746865206d6573736167652073656e646572206d7573742062652074686520626c6f636b2070726f647563657274686520636f6e7472616374206e6f7420696e69742079657400000000000000746865206d6573736167652073656e646572206d75737420626520736c61736820636f6e7472616374596f752061726520616c726561647920696e20756e7374616b696e6720737461747573596f7520617265206e6f742074686520666565207265636569766572206f6620746869732076616c696461746f72a2646970667358221220394c0130b90ea6f8cdf28d21530d061496ba896a3d13eb432c2ba14eb7f756c164736f6c634300060c0033",
  "immutableReferences": {},
  "source": "// SPDX-License-Identifier: GPL\npragma solidity 0.6.12;\n\nimport \"./System.sol\";\nimport \"./Slash.sol\";\nimport \"./library/SafeMath.sol\";\n\ncontract ValidatorSet is System {\n    using SafeMath for uint256;\n\n    uint16 public constant MaxValidatorNum = 101;\n    // Validator have to wait StakingLockPeriod blocks to withdraw staking\n    uint64 public constant StakingLockPeriod = 86400;\n    // Validator have to wait WithdrawProfitPeriod blocks to withdraw his profits\n    uint64 public constant WithdrawRewardPeriod = 28800;\n    uint256 public constant MinimalStakingCoin = 10000 ether;\n    uint256 public constant ValidatorSlashAmount = 500 ether;\n\n    enum Status {\n        // validator not exist, default status\n        NotExist,\n        // validator created\n        Created,\n        // anyone has staked for the validator\n        Staked,\n        // validator's staked amount < MinimalStakingCoin\n        Unstake,\n        // validator is jailed by system(validator have to repropose)\n        Jailed\n    }\n\n    struct Description {\n        string moniker;\n        string identity;\n        string website;\n        string email;\n        string details;\n    }\n\n    struct Validator {\n        address payable rewardAddr;\n        Status status;\n        uint256 stakingAmount;\n        Description description;\n        uint256 rewardAmount;\n        uint256 slashAmount;\n        uint256 lastWithdrawRewardBlock;\n        // Address list of user who has staked for this validator\n        address[] stakers;\n    }\n\n    struct StakingInfo {\n        uint256 amount;\n        // unstakeBlock != 0 means that you are unstaking your stake, so you can't stake or unstake\n        uint256 unstakeBlock;\n        // index of the staker list in validator\n        uint256 index;\n    }\n\n    mapping(address => Validator) validatorInfo;\n    // staker => validator => info\n    mapping(address => mapping(address => StakingInfo)) stakerInfo;\n    // validator candidate set\n    address[] public validatorCandidateSet;\n    // top validator set(dynamic changed)\n    address[] public validatorSet;\n    // total staking amount of all validators\n    uint256 public totalStaking;\n    // total slash amount\n    uint256 public totalSlash;\n\n    // slash contract\n    Slash slash;\n\n    enum Operations {Distributed, UpdateValidators}\n    // Record the operations is done or not.\n    mapping(uint256 => mapping(uint8 => bool)) operationsDone;\n\n    event ValidatorCreated(address indexed validator, address indexed rewardAddr);\n    event ValidatorUpdated(address indexed validator, address indexed rewardAddr);\n    event ValidatorJailed(address indexed validator);\n    event ValidatorUnjailed(address indexed validator);\n    event Unstake(address indexed staker, address indexed validator, uint256 amount);\n    event Staking(address indexed staker, address indexed validator, uint256 amount);\n    event WithdrawStaking(address indexed staker, address indexed validator, uint256 amount);\n    event WithdrawRewards(address indexed validator, address indexed rewardAddress, uint256 amount);\n    event RewardDistributed(address []validators, uint256 []rewards, uint256 rewardCount);\n    event ValidatorSlash(address validator, uint256 amount);\n\n    event ValidatorActivated(address indexed validator);\n    event ValidatorDeactivated(address indexed validator);\n\n    event ValidatorSetUpdated(address []validators);\n\n    modifier onlyNotRewarded() {\n        require(\n            operationsDone[block.number][uint8(Operations.Distributed)] == false,\n            \"Block is already rewarded\"\n        );\n        _;\n    }\n\n    modifier onlyNotUpdated() {\n        require(\n            operationsDone[block.number][uint8(Operations.UpdateValidators)] == false,\n            \"Validators already updated\"\n        );\n        _;\n    }\n\n    function initialize(address[] calldata validators) external onlyNotInitialized {\n        slash = Slash(SlashContractAddr);\n\n        for (uint256 i = 0; i < validators.length; i++) {\n            require(validators[i] != address(0), \"Invalid validator address\");\n\n            if (!isValidatorCandidate(validators[i])) {\n                validatorCandidateSet.push(validators[i]);\n            }\n            if (!isValidatorActivated(validators[i])) {\n                validatorSet.push(validators[i]);\n            }\n            if (validatorInfo[validators[i]].rewardAddr == address(0)) {\n                validatorInfo[validators[i]].rewardAddr = payable(validators[i]);\n            }\n            // Important: NotExist validator can't get profits\n            if (validatorInfo[validators[i]].status == Status.NotExist) {\n                validatorInfo[validators[i]].status = Status.Staked;\n            }\n        }\n\n        initialized = true;\n    }\n\n    function createValidator(\n        address payable rewardAddr,\n        string calldata moniker,\n        string calldata identity,\n        string calldata website,\n        string calldata email,\n        string calldata details\n    ) external onlyInitialized returns (bool) {\n        address payable validator = msg.sender;\n        _updateValidator(validator, rewardAddr, moniker, identity, website, email, details);\n        emit ValidatorCreated(validator, rewardAddr);\n        return true;\n    }\n\n    function editValidator(\n        address payable rewardAddr,\n        string calldata moniker,\n        string calldata identity,\n        string calldata website,\n        string calldata email,\n        string calldata details\n    ) external onlyInitialized returns (bool) {\n        address payable validator = msg.sender;\n        require(validatorInfo[validator].status != Status.NotExist, \"validator isn't exist.\");\n        _updateValidator(validator, rewardAddr, moniker, identity, website, email, details);\n        emit ValidatorUpdated(validator, rewardAddr);\n        return true;\n    }\n\n    // stake for the validator\n    function stake(address validator)\n        external\n        payable\n        onlyInitialized\n        returns (bool)\n    {\n        address payable staker = msg.sender;\n        uint256 stakingAmount = msg.value;\n\n        require(\n            validatorInfo[validator].status != Status.NotExist,\n            \"validator is not exist.\"\n        );\n        require(\n            stakerInfo[staker][validator].unstakeBlock == 0,\n            \"Can't stake when you are unstaking\"\n        );\n\n        Validator storage valInfo = validatorInfo[validator];\n        // The staked amount of validator must >= MinimalStakingCoin\n        require(\n            valInfo.stakingAmount.add(stakingAmount) >= MinimalStakingCoin,\n            \"Staking amount not enough\"\n        );\n\n        // stake at first time to this valiadtor\n        if (stakerInfo[staker][validator].amount == 0) {\n            // add staker to validator's record list\n            stakerInfo[staker][validator].index = valInfo.stakers.length;\n            valInfo.stakers.push(staker);\n        }\n\n        valInfo.stakingAmount = valInfo.stakingAmount.add(stakingAmount);\n        if (valInfo.status != Status.Staked && valInfo.status != Status.Jailed) {\n            valInfo.status = Status.Staked;\n        }\n\n        // record staker's info\n        stakerInfo[staker][validator].amount = stakerInfo[staker][validator].amount.add(stakingAmount);\n        totalStaking = totalStaking.add(stakingAmount);\n\n        emit Staking(staker, validator, stakingAmount);\n        return true;\n    }\n\n    function unstake(address validator)\n        external\n        onlyInitialized\n        returns (bool)\n    {\n        address staker = msg.sender;\n        require(validatorInfo[validator].status != Status.NotExist, \"Validator not exist\");\n\n        StakingInfo storage stakingInfo = stakerInfo[staker][validator];\n        Validator storage valInfo = validatorInfo[validator];\n        uint256 unstakeAmount = stakingInfo.amount;\n\n        require(stakingInfo.unstakeBlock == 0, \"You are already in unstaking status\");\n        require(unstakeAmount > 0, \"You don't have any stake\");\n        // You can't unstake if the validator is the only one top validator and\n        // this unstake operation will cause staked amount of validator < MinimalStakingCoin\n        require(\n            !(validatorSet.length == 1 &&\n                isValidatorActivated(validator) &&\n                valInfo.stakingAmount.sub(unstakeAmount) < MinimalStakingCoin),\n            \"You can't unstake, validator list will be empty after this operation!\"\n        );\n\n        // try to remove this staker out of validator stakers list.\n        if (stakingInfo.index != valInfo.stakers.length - 1) {\n            valInfo.stakers[stakingInfo.index] = valInfo.stakers[valInfo\n                .stakers\n                .length - 1];\n            // update index of the changed staker.\n            stakerInfo[valInfo.stakers[stakingInfo.index]][validator]\n                .index = stakingInfo.index;\n        }\n        valInfo.stakers.pop();\n\n        valInfo.stakingAmount = valInfo.stakingAmount.sub(unstakeAmount);\n        stakingInfo.unstakeBlock = block.number;\n        stakingInfo.index = 0;\n        totalStaking = totalStaking.sub(unstakeAmount);\n\n        // try to remove it out of active validator set if validator's stakingAmount < MinimalStakingCoin\n        if (valInfo.stakingAmount < MinimalStakingCoin) {\n            valInfo.status = Status.Unstake;\n        }\n\n        emit Unstake(staker, validator, unstakeAmount);\n        return true;\n    }\n\n    function _updateValidator(address payable validator, address payable rewardAddr,\n        string calldata moniker,\n        string calldata identity,\n        string calldata website,\n        string calldata email,\n        string calldata details\n    ) private returns (bool) {\n        require(rewardAddr != address(0), \"Invalid receive reward address\");\n        if (validatorInfo[validator].status == Status.NotExist) {\n            validatorInfo[validator].status = Status.Created;\n        }\n\n        if (validatorInfo[validator].rewardAddr != rewardAddr) {\n            validatorInfo[validator].rewardAddr = rewardAddr;\n        }\n\n        validatorInfo[validator].description = Description(\n            moniker,\n            identity,\n            website,\n            email,\n            details\n        );\n\n        return true;\n\n    }\n\n    function unjailed(address validator)\n        external\n        onlyInitialized\n        returns (bool)\n    {\n        require(validatorInfo[validator].status == Status.Jailed, \"validator isn't jailed.\");\n        require(slash.clean(validator), \"clean slash reward failed\");\n\n        if (validatorInfo[validator].stakingAmount >= MinimalStakingCoin) {\n            validatorInfo[validator].status = Status.Staked;\n        } else {\n            validatorInfo[validator].status = Status.Unstake;\n        }\n\n        emit ValidatorUnjailed(validator);\n        return true;\n    }\n\n    function withdrawStaking(address validator) external returns (bool) {\n        address payable staker = payable(msg.sender);\n        StakingInfo storage stakingInfo = stakerInfo[staker][validator];\n        require(\n            validatorInfo[validator].status != Status.NotExist,\n            \"validator not exist\"\n        );\n        require(stakingInfo.unstakeBlock != 0, \"You have to unstake first\");\n        // Ensure staker can withdraw his staking back\n        require(\n            stakingInfo.unstakeBlock + StakingLockPeriod <= block.number,\n            \"Your staking haven't unlocked yet\"\n        );\n        require(stakingInfo.amount > 0, \"You don't have any stake\");\n\n        uint256 staking = stakingInfo.amount;\n        stakingInfo.amount = 0;\n        stakingInfo.unstakeBlock = 0;\n\n        // send stake back to staker\n        staker.transfer(staking);\n\n        emit WithdrawStaking(staker, validator, staking);\n        return true;\n    }\n\n    // feeAddr can withdraw reward of it's validator\n    function withdrawRewards(address validator) external returns (bool) {\n        address payable rewardAddr = payable(msg.sender);\n        require(\n            validatorInfo[validator].status != Status.NotExist,\n            \"Validator not exist\"\n        );\n        require(\n            validatorInfo[validator].rewardAddr == rewardAddr,\n            \"You are not the fee receiver of this validator\"\n        );\n        require(\n            validatorInfo[validator].lastWithdrawRewardBlock +\n                WithdrawRewardPeriod <=\n                block.number,\n            \"You must wait enough blocks to withdraw your reward after latest withdraw of this validator\"\n        );\n        uint256 rewardAmount = validatorInfo[validator].rewardAmount;\n        require(rewardAmount > 0, \"You don't have any profits\");\n\n        // update info\n        validatorInfo[validator].rewardAmount = 0;\n        validatorInfo[validator].lastWithdrawRewardBlock = block.number;\n\n        // send profits to fee address\n        if (rewardAmount > 0) {\n            rewardAddr.transfer(rewardAmount);\n        }\n\n        emit WithdrawRewards(validator, rewardAddr, rewardAmount);\n\n        return true;\n    }\n\n    // distributeBlockReward distributes block reward to all active validators\n    function distributeBlockReward()\n        external\n        payable\n        onlyCoinbase\n        onlyNotRewarded\n        onlyInitialized\n    {\n        operationsDone[block.number][uint8(Operations.Distributed)] = true;\n        address validator = msg.sender;\n        uint256 amount = msg.value;\n\n        if (validatorInfo[validator].status == Status.NotExist) {\n            return;\n        }\n\n        _distributeRewardToActivatedValidators(amount, address(0));\n\n    }\n\n    function slashValidator(address validator) external onlySlashContract {\n        if (!isValidatorActivated(validator)) {\n            return;\n        }\n\n        Validator storage valInfo = validatorInfo[validator];\n        valInfo.status = Status.Jailed;\n        uint256 stakingAmount = valInfo.stakingAmount;\n        deactivateValidator(validator);\n        uint256 slashTotoal = 0;\n        for (uint256 i = 0; i < valInfo.stakers.length; i++) {\n            StakingInfo storage stakingInfo = stakerInfo[valInfo.stakers[i]][validator];\n            uint256 stakerSlashAmount = stakingInfo.amount.mul(ValidatorSlashAmount).div(stakingAmount);\n            stakingInfo.amount = stakingInfo.amount.sub(stakerSlashAmount);\n            slashTotoal = slashTotoal.add(stakerSlashAmount);\n        }\n        valInfo.stakingAmount = valInfo.stakingAmount.sub(slashTotoal);\n        valInfo.slashAmount = valInfo.slashAmount.add(slashTotoal);\n        slashTotoal = slashTotoal.add(slashTotoal);\n\n        //TODO token\n        _distributeRewardToActivatedValidators(slashTotoal, validator);\n        emit ValidatorSlash(validator, slashTotoal);\n    }\n\n    function _distributeRewardToActivatedValidators(uint256 rewardAmount, address exceptAddress) private {\n        if (rewardAmount == 0) {\n            return;\n        }\n\n        uint256 totalRewardStaking = 0;\n        uint256 rewardValidatorLen = 0;\n        for (uint256 i = 0; i < validatorSet.length; i++) {\n            if (validatorInfo[validatorSet[i]].status != Status.Jailed && validatorSet[i] != exceptAddress) {\n                totalRewardStaking = totalRewardStaking.add(validatorInfo[validatorSet[i]].stakingAmount);\n                rewardValidatorLen++;\n            }\n        }\n        if (rewardValidatorLen == 0) {\n            return;\n        }\n\n        uint256 remain;\n        address last;\n        uint256 distributedAmount;\n        address[] memory rewardValidators = new address[](validatorSet.length);\n        uint256[] memory validatorRewardAmount = new uint256[](validatorSet.length);\n        uint256 rewardCount = 0;\n        uint256 reward = 0;\n        for (uint256 i = 0; i < validatorSet.length; i++) {\n            if (validatorInfo[validatorSet[i]].status != Status.Jailed && validatorSet[i] != exceptAddress) {\n                if (totalRewardStaking == 0) {\n                    reward = rewardAmount.div(rewardValidatorLen);\n                } else {\n                    reward = rewardAmount.mul(validatorInfo[validatorSet[i]].stakingAmount).div(totalRewardStaking);\n                }\n                validatorInfo[validatorSet[i]].rewardAmount = validatorInfo[validatorSet[i]].rewardAmount.add(reward);\n                last = validatorSet[i];\n                distributedAmount = distributedAmount.add(reward);\n                rewardValidators[rewardCount] = validatorSet[i];\n                validatorRewardAmount[rewardCount] = reward;\n                rewardCount++;\n            }\n        }\n\n        remain = rewardAmount.sub(distributedAmount);\n        if (remain > 0 && last != address(0)) {\n            validatorInfo[last].rewardAmount = validatorInfo[last].rewardAmount.add(remain);\n            validatorRewardAmount[validatorRewardAmount.length-1] = validatorRewardAmount[validatorRewardAmount.length-1].add(remain);\n        }\n\n        emit RewardDistributed(rewardValidators, validatorRewardAmount, rewardCount);\n    }\n\n    function activateValidator(address validator, uint256 stakingAmount) private {\n        if (isValidatorActivated(validator)) {\n            return;\n        }\n\n        if (validatorSet.length < MaxValidatorNum) {\n            validatorSet.push(validator);\n            emit ValidatorActivated(validator);\n            return;\n        }\n\n        uint256 lowestStaking = validatorInfo[validatorSet[0]].stakingAmount;\n        uint256 lowestIndex = 0;\n        for (uint256 i = 1; i < validatorSet.length; i++) {\n            if (validatorInfo[validatorSet[i]].stakingAmount < lowestStaking) {\n                lowestStaking = validatorInfo[validatorSet[i]].stakingAmount;\n                lowestIndex = i;\n            }\n        }\n        if (stakingAmount <= lowestStaking) {\n            return;\n        }\n        validatorSet[lowestIndex] = validator;\n        emit ValidatorActivated(validator);\n        emit ValidatorDeactivated(validatorSet[lowestIndex]);\n    }\n\n    function deactivateValidator(address validator) private {\n        for (uint256 i = 0; i < validatorSet.length && validatorSet.length > 1; i++) {\n            if (validator == validatorSet[i]) {\n                if (i != validatorSet.length-1) {\n                    validatorSet[i] = validatorSet[validatorSet.length-1];\n                }\n                validatorSet.pop();\n                emit ValidatorDeactivated(validator);\n                break;\n            }\n        }\n    }\n\n    function getValidatorDescription(address validator) public view returns (string memory, string memory, string memory, string memory, string memory){\n        Validator memory v = validatorInfo[validator];\n\n        return (\n            v.description.moniker,\n            v.description.identity,\n            v.description.website,\n            v.description.email,\n            v.description.details\n        );\n    }\n\n    function getValidatorInfo(address val) public view returns (address payable, Status, uint256, uint256, uint256, uint256, address[] memory) {\n        Validator memory v = validatorInfo[val];\n\n        return (\n            v.rewardAddr,\n            v.status,\n            v.stakingAmount,\n            v.rewardAmount,\n            v.slashAmount,\n            v.lastWithdrawRewardBlock,\n            v.stakers\n        );\n    }\n\n    function getStakingInfo(address staker, address validator) public view returns (uint256, uint256, uint256) {\n        return (\n            stakerInfo[staker][validator].amount,\n            stakerInfo[staker][validator].unstakeBlock,\n            stakerInfo[staker][validator].index\n        );\n    }\n\n    function getValidatorCandidate() public view returns (address[] memory, uint256[] memory, uint256) {\n        address[] memory candidates = new address[](validatorCandidateSet.length);\n        uint256[] memory stakings = new uint256[](validatorCandidateSet.length);\n        uint256 count = 0;\n        for (uint256 i = 0; i < validatorCandidateSet.length; i++) {\n            if (validatorInfo[validatorCandidateSet[i]].status == Status.Staked) {\n                candidates[count] = validatorCandidateSet[i];\n                stakings[count] = validatorInfo[validatorCandidateSet[i]].stakingAmount;\n                count++;\n            }\n        }\n        return (candidates, stakings, count);\n    }\n\n    function updateActivatedValidators(address [] memory newValidators, uint256 epoch) public \n        onlyCoinbase\n        onlyNotUpdated\n        onlyInitialized\n        onlyBlockEpoch(epoch) {\n        require(newValidators.length > 0, \"Validator set empty!\");\n        require(newValidators.length <= MaxValidatorNum, \"Validator can't more than 101!\");\n\n        validatorSet = newValidators;\n        emit ValidatorSetUpdated(validatorSet);\n    }\n\n    function isValidatorCandidate(address who) public view returns (bool) {\n        for (uint256 i = 0; i < validatorCandidateSet.length; i++) {\n            if (validatorCandidateSet[i] == who) {\n                return true;\n            }\n        }\n\n        return false;\n    }\n\n    function isValidatorActivated(address validator) public view returns (bool) {\n        for (uint256 i = 0; i < validatorSet.length; i++) {\n            if (validatorSet[i] == validator) {\n                return true;\n            }\n        }\n\n        return false;\n    }\n\n    function isJailed(address validator) public view returns (bool) {\n        if (validatorInfo[validator].status == Status.Jailed) {\n            return true;\n        }\n        return false;\n    }\n\n    function getActivatedValidators() public view returns (address[] memory) {\n        return validatorSet;\n    }\n\n    function validateDescription(\n        string memory moniker,\n        string memory identity,\n        string memory website,\n        string memory email,\n        string memory details\n    ) public pure returns (bool) {\n        require(bytes(moniker).length <= 70, \"Invalid moniker length\");\n        require(bytes(identity).length <= 3000, \"Invalid identity length\");\n        require(bytes(website).length <= 140, \"Invalid website length\");\n        require(bytes(email).length <= 140, \"Invalid email length\");\n        require(bytes(details).length <= 280, \"Invalid details length\");\n\n        return true;\n    }\n}\n",
  "sourcePath": "/Users/vino/projects/coinexstartchain/csc_genesis_contract/contracts/ValidatorSet.sol",
  "compiler": {
    "name": "solc",
    "version": "0.6.12+commit.27d51765.Emscripten.clang"
  },
  "schemaVersion": "3.3.2",
  "updatedAt": "2021-03-16T06:06:33.727Z",
  "devdoc": {
    "kind": "dev",
    "methods": {},
    "version": 1
  },
  "userdoc": {
    "kind": "user",
    "methods": {},
    "version": 1
  }
}